S00F00004170705F4D52412E73726563B5
S3850001000000000110A50101003D020100430201005D0201006302010069020100B2F2F8EF0000000000000000000000006F02010075020100000000007B0201008102010087020100910201008702010087020100870201008702010041A6010087020100D12604008702010087020100870201008702010087020100870201005D580400EA
S38500010080870201008702010087020100870201008702010087020100870201008702010087020100094E0400870201008702010087020100870201008702010087020100870201008702010087020100870201008702010087020100395B04008702010087020100FFFFFFFFFFFFFFFFFFFFFFFFFFFFFFFFFFFFFFFFFFFFFFFFFFFFFFFFBC
S38500010100002B05000000001000170000002B050000000020000000000017001000B40000000000200000000080B489B000AFF860B9607A60BB68FB61FB68BB6100237B610AE0BA69131DBB61FB69191DF96112681A607B6904337B617A697B689A42F0D300BF2437BD465DF8047B704780B485B000AF786039607B68FB600023BB6007E041
S38500010180FB681A1DFA6000221A60BB680433BB60BA683B689A42F3D300BF1437BD465DF8047B704780B586B000AF1F4B7B6113E07B691A1D7A611B687B607B691A1D7A611B68FB607B691A1D7A611B68BB60BA68F9687868FFF7A8FF7B69144A9342E7D30DE07B691A1D7A611B68FB607B691A1D7A611B68BB60B968F868FFF7B7FF7B69AE
S385000102000B4A9342EDD3DFF88400016841F470010160084B3B61084A3B691A6031F046FB3FF0FDFCFEE700BF00010100180101002801010008ED00E00000010080B400AFFEE704207146084203D0EFF309801DF0D9B9EFF308801DF0D5B900BF80B400AFFEE780B400AFFEE780B400AFFEE780B400AFFEE780B400AFFEE780B400AFFEE7DB
S3850001028080B400AFFEE780B400AFFEE788ED00E080B483B000AF4FF040237B607B681B6843F001027B681A60054B5B680133044A536000BF0C37BD465DF8047B704700BF98C6001098B500AF36F032F80346002B22D11CF003FB0346012B04D91CF0FEFA0346602B03D9542023F0AEFF14E01CF0F5FA03461C46AE2036F0C4FA034623448E
S38500010300602B05DCAE2036F0BDFA03461F2B03D940F28E2023F098FF00BF98BD80B483B000AF78607B680A221A817B684FF4FA725A81002318460C37BD465DF8047B704780B584B000AF78601CF0B0FA0346002B77D136F0CBFF0346002B00F081804FF45A7036F0BFFA034618461CF045FB5C2036F088FA0346FB73212036F053FA03468D
S38500010380BB730C2036F07EFA03467B730D2036F079FA03463B73302036F044FA0346FB72FB7B012B02D80223FB7304E0FB7B5F2B01D96023FB73FB7B042118463FF02EFE02462A4B1A60FB7B012118463FF026FE0246274B1A60FB7B012118463FF01EFE0246244B1A60BB7B002B0FD0FB7B012118463FF013FE02461F4B1A60FB7B01212E
S3850001040018463FF00BFE02461C4B1A6036F0F0F91CF058FABB7B18461CF08EFAFB7B18461CF068FA7B7B002118461CF0A9FA3B7B012118461CF0A4FAFB7A18461CF0C0FA0EE0FFF73FFF36F0E1F90346002B07D035F06EFF0346002B02D1762023F0F4FE002318461037BD4680BD00BF682700102C20001088200010302000108C200010CB
S3850001048080B483B000AF0346FB71FB79092B02D8044AFB79137000BF0C37BD465DF8047B704700BF0017001080B582B000AF164B1B78002B24D0144B1A7839463B1D184634F02CF90346002B03D00F4B00221A7016E034F007F903467B717B79002B0FD07B79052B0CD87B799BB24E33FB80FB88532B01D95323FB80FB8818461EF005F8BE
S3850001050000BF0837BD4680BD0017001080B582B000AF8D218A2024F069F90346002B0DD19321902024F062F90346002B06D19921962024F05BF90346002B01D0012300E00023BB710E4B1B78002B11D1BB79002B0ED00023FB7108E0FB792B33194609483DF07AF8FB790133FB71FB793B2BF3D9034ABB79137000BF0837BD4680BD00BFC2
S3850001058001170010801C001080B582B000AF0023FB7135F0CDFE0346002B07D1002031F0E7FC0346002B01D10123FB71FB7918460837BD4680BD80B485B000AF0346FB71FB79013B022B02DC0523FB7316E0FB79013B0D2B02DC0423FB730FE0FB79013B352B02DC0323FB7308E0FB79013B3A2B02DC0223FB7301E00123FB73FB7B18465F
S385000106001437BD465DF8047B7047FFFF80B485B000AF0346FB710B46BB711346BB80FB79013B042B58D801A252F823F0B9060100990601007B0601005D06010041060100BB79013B9BB21A46D200D31A5B009AB2BB8813449BB2013BFB8140E0BB79043B9BB21A46D2001A44520013449AB2BB8813449BB2013BFB8131E0BB790F3B9BB21F
S385000106801A46D200D21A920013449AB2BB8813449BB2013BFB8122E0BB79373B9BB21A46D200D21A920013445B009AB2BB8813449BB2013BFB8112E0BB793C3B9BB21A46D200D21A920013441B019AB2BB8813449BB2013BFB8102E00023FB8100BFFB8918461437BD465DF8047B704780B586B000AF03463A60FB710B46BB80FB79184605
S38500010700FFF759FF0346FB75BA88F979FB7D1846FFF77CFF0346BB82FB7D013BFB74FB7C042B21D8FB7CDB00DBB203F07803DBB23B723B7A5AB2BB8A1B0A9BB25BB203F007035BB213435BB2DBB23B72BB8ADBB27B7200237B813B68FB6007F108031A466B2103483CF0B9FF00BF1837BD4680BD801C001080B588B000AF78600223FB77F6
S3850001078033F064FA0346BB77BB7F052B02D00A2B28D05CE033F066FA0346FB7433F086FA03463B82FB7C002B13D03B8A002B10D0FB7C013BDBB2BB733B8A013B9BB2BB8133F080FA0346BB6007F10803184636F033FD33F077FA0246398AFB7C1846FFF785FF34E033F03EFA03467B7733F046FA03463B7733F04EFA0346FB76FA7EFB7F5B
S385000108009A4223D17B7F002B20D03B7F002B1DD07B7F013BDAB23B7F013BDBB21946104636F088FA0346002B10D0FA7F13465B00134448337A6813447B617B697A7F1A707B693A7F5A707B6905229A7000BF00BF2037BD4680BD80B588B000AF78600323FB7732F0CDFB0346BB77BB7F052B02D00A2B28D055E032F0CFFB0346FB7432F063
S38500010880EFFB03463B82FB7C002B13D03B8A002B10D0FB7C013BDBB2BB733B8A013B9BB2BB8132F0E9FB0346BB6007F10803184636F0C2FC32F0E0FB0246398AFB7C1846FFF714FF2DE032F0A7FB03467B7732F0AFFB03463B7732F0B7FB0346FB76FA7EFB7F9A421CD17B7F002B19D07B7F3C2B16D83B7F002B13D03B7F0F2B10D8FA7F89
S3850001090013465B00134448337A6813447B617B697A7F1A707B693A7F5A707B6905229A7000BF00BF2037BD4680BD80B588B000AF78600423FB7732F08DFC0346BB77BB7F052B02D00A2B28D05CE032F08FFC0346FB7432F0AFFC03463B82FB7C002B13D03B8A002B10D0FB7C013BDBB2BB733B8A013B9BB2BB8132F0A9FC0346BB6007F1DD
S385000109800803184636F058FC32F0A0FC0246398AFB7C1846FFF7AAFE34E032F067FC03467B7732F06FFC03463B7732F077FC0346FB76FA7EFB7F9A4223D17B7F002B20D03B7F002B1DD07B7F013BDAB23B7F013BDBB21946104636F0ADF90346002B10D0FA7F13465B00134448337A6813447B617B697A7F1A707B693A7F5A707B69052276
S38500010A009A7000BF00BF2037BD4680BD80B588B000AF78600523FB7732F090F80346BB77BB7F052B02D00A2B28D05CE032F092F80346FB7432F0B2F803463B82FB7C002B13D03B8A002B10D0FB7C013BDBB2BB733B8A013B9BB2BB8132F0ACF80346BB6007F10803184636F0E7FB32F0A3F80246398AFB7C1846FFF739FE34E032F06AF880
S38500010A8003467B7732F072F803463B7732F07AF80346FB76FA7EFB7F9A4223D17B7F002B20D03B7F002B1DD07B7F013BDAB23B7F013BDBB21946104636F03CF90346002B10D0FA7F13465B00134448337A6813447B617B697A7F1A707B693A7F5A707B6905229A7000BF00BF2037BD4680BD80B588B000AF78600623FB7732F049F9034645
S38500010B00BB77BB7F052B02D00A2B28D05CE032F04BF90346FB7432F06BF903463B82FB7C002B13D03B8A002B10D0FB7C013BDBB2BB733B8A013B9BB2BB8132F065F90346BB6007F10803184636F076FB32F05CF90246398AFB7C1846FFF7C8FD34E032F023F903467B7732F02BF903463B7732F033F90346FB76FA7EFB7F9A4223D17B7F20
S38500010B80002B20D03B7F002B1DD07B7F013BDAB23B7F013BDBB21946104636F0CBF80346002B10D0FA7F13465B00134448337A6813447B617B697A7F1A707B693A7F5A707B6905229A7000BF00BF2037BD4680BD80B582B000AF78607868FFF7CBFD7868FFF739FE7868FFF7A0FE7868FFF70EFF7868FFF77CFF00BF0837BD4680BDFFFF41
S38500010C0080B588B000AF78602C4BBB61BB69002B50D00023FB774AE0FA7F294B1B6813441946B8693CF0F8FC7861FB7F184636F0CDF9386107233B72FB7F0133DBB27B7200237B813B69FB60FA7F1D4B1B68134407F108021946B8693CF03FFD7B69002B0ED1FA7F164B1B6813441946B8693CF0D3FC0346002B03D0FB7F124A0321D154D6
S38500010C80FB7F104AD35C002B0ED0FB7F0D4AD25C013AD1B20B4AD154FA7F094B1B6813441946B8693CF0D8FCFB7F0133FB77FB7F3B2BB1D900BF2037BD4680BD801C0010741105000417001080B586B000AF78600B46FB70374B7B61FB78012B66D9FB78062B63D8FB78344A52F82330194678693CF092FC0346002B58D1FA7813465B002E
S38500010D00134448337A6813443B613B691B78002B38D03B695B78002B34D03B699B78002B30D03B699B78013BDAB23B699A700B233B723B691B787B723B695B78BB72FB78FB723B691B78013BDAB23B695B78013BDBB21946104636F00BFB0346FB60FB78154A52F8233007F10802194678693CF0B4FCFB78104A52F82330194678693CF0FC
S38500010D806BFC13E03B6900221A703B6900225A700023BB600023FB60FB78074A52F8233007F10802194678693CF097FC00BF1837BD4680BD801C00107811050080B584B000AF78600223FB7307E0FB7B19467868FFF77AFFFB7B0133FB73FB7B062BF4D900BF1037BD4680BD80B582B000AF0023FB7108E0FB792B33194610483CF03AFC34
S38500010E00FB790133FB71FB793B2BF3D91A210B483CF030FC1B2109483CF02CFC1C2107483CF028FC1D2105483CF024FC1E2103483CF020FC00BF0837BD4680BD801C001080B483B000AF7860114B012283F8DB200F4B104A1A60104B1B78002B03D10C4B012283F8DD200D4BDB6803F5D6736FF000421A607B680A221A817B680A225A8100
S38500010E80002318460C37BD465DF8047B704700BFA8C9001024160010541F0010801C001080B584B000AF7860174BFB60174B1B78012B15D1FFF768FB0346002B02D1FFF793FF1CE0FFF7F0FAFFF720FBF868FFF77FFEF868FFF794FEF868FFF76FFF0EE0FB6893F8DC30002B08D0094B1B78002B04D135F095FE054B01221A7000BF00232F
S38500010F0018461037BD4680BDA8C9001040170010541F001080B582B000AF0023FB7135F007FA0346002B07D1002031F021F80346002B01D10123FB71FB7918460837BD4680BDFFFF80B582B000AF786035F0F0F90346002B1CD17B6893F8D830002B09D00D4B1B68002B13D10B4B1B6801330A4A13600DE0084B00221A60084B00221A7014
S38500010F8035F0D6F90346002B02D1532023F05CF900BF0837BD4680BD44170010541F001080B584B000AF78600023FB734AE0FB7B2B33DBB2184631F025FC0346BB73BB7B184631F0D9FC0346002B38D0BB7B184631F0C0FCFB7B184632F0DEFD03467B73FB7B184632F0F2FD03463B73FB7B184632F006FEB8607B7B072B17D13B7B002B27
S3850001100014D0FB7B134AD35C3A7B9A420ED1FB7B114A52F82330BA689A4207D13B7B013BDBB2BA681946786836F04DF8FB7B09493A7BCA54FB7B0849BA6841F82320FB7B0133FB73FB7B3B2BB1D900BF1037BD4680BD00BF481700108417001080B584B000AF7860B62031F087FC0346002B44D0B62031F06FFC32F05FFD0346FB7332F03C
S3850001108067FD0346BB7332F06FFD03467B7332F077FDB860FB7B0B2B26D1BB7B002B23D07B7B002B20D0174B1B78BA7B9A421BD1154B1B787A7B9A4216D1144B1B68BA689A4211D17B68BA7B83F85D207B687A7B83F85E20BB7B013BD8B27B7B013BDBB2BA68194636F078F9064ABB7B1370064A7B7B1370054ABB68136000BF1037BD46C0
S3850001110080BD00BF74180010751800107818001080B485B000AF78600023FB73294B93F8DB307B737B6893F8D830002B42D00123FB737A7B13465B00134448337A681344BB600023BB73BB685B78002B03D0BB685B78013BBB737B6893F85D207B6893F8D8309A4213D17B6893F85E20BB685B789A420CD1BB7B01331946134BA3FB0123BC
S38500011180DA0813461B019B1ACA1A1346BB73BB7B0E2B01D90E23BB737B68BA7B83F8D9207B6893F8D820BB681A70BB7B0133DAB2BB685A70FB7B18461437BD465DF8047B704700BFA8C900108988888880B588B000AF7860354BFB610023BB61344B93F8DB30FB75B969F8693CF016FA0346002B57D1FB7D0C33DB007A6813443B61786803
S38500011200FFF786FF0346002B1BD00A233B727B6893F8D8307B727B6893F8D9300133DBB2BB72FB7DFB720023FB6007F108031A46B969F8693CF051FAB969F8693CF00CFA2FE03B69DB79002B20D03B69DB79013BDAB23B69DA7105233B723B699B790133DBB27B723B699B8801339BB27B813B691B68FB6007F108031A46B969F8693CF092
S385000112802CFAB969F8693CF0E7F90AE00023BB600023FB6007F108031A46B969F8693CF01CFA00BF2037BD4680BD00BF801C0010A8C9001080B500AF002102483CF0DAF900BF80BD801C001080B483B000AF7860094B032283F8DB20074B084A1A607B680A221A817B6814225A81002318460C37BD465DF8047B7047A8C900102416001076
S3850001130080B584B000AF78602D4BFB602D4B1B78012B19D0022B2AD1FFF7FCFD0346002B02D1FFF7C7FF45E0F868FFF739FEF868FFF794FEF86835F0E5FFF868FFF746FFF868FFF7FFFD35E01F4B1B88002B06D01D4B1B88013B9AB21B4B1A8027E01B4B1B78002B23D0174B02221A701FE035F0BDFF0346002B1CD0134B4FF4FA721A80AE
S38500011380124B1B78002B0DD0FB681B681B79042118463EF043FE0246FB68DA60094B01221A7006E0064B012283F8DB2001E000BF00E000BF002318461037BD4680BD00BFA8C900107C18001042170010541F0010F0B58FB000AF35F065F8034687F83730BB4B1B6893F82030032B40F01281B94B93F90130012B40F08680B54B1B6893EDF6
S385000114002B7AB34B1B68D3ED2A7A77EE677A9FEDB27A67EE877AB6EE007A77EE877AFCEEE77A17EE903A7B81AA4BB3F902301A46A84B93F9013003FB02F27B89134418463FF0CDFD9EA3D3E900233FF0B9FA03460C46184621463FF087FD03463B819C4B1B681B6D18463FF0C3FD05460E463B89184637F039FC04463B89184637F0FCFE63
S385000114800346234418463FF0B3FD8FA3D3E900233FF096FA03460C461A462346284631463FF092FC03460C46184621463FF05CFD03467B6034F0EAFF03469BB2013B9BB2BB8618E0B7F93430002B0EDBBB8EDBB26033DBB2184635F037FA02467B68934203D8BB8E87F83730F8E1B7F934309BB201339BB2BB86B7F934401BF0EFF9034679
S385000115009C42DFDBEAE1724B1B6893ED2B7A704B1B68D3ED2A7A77EE677A9FED6F7A67EE877AB6EE007A77EE877AFCEEE77A17EE903A7B82674BB3F902301A46654B93F9013003FB02F27B8A134418463FF047FD5BA3D3E900233FF033FA03460C46184621463FF001FD03463B82594B1B681B6D18463FF03DFD05460E463B8A184637F0A7
S38500011580B3FB04463B8A184637F076FE0346234418463FF02DFD4CA3D3E900233FF010FA03460C461A462346284631463FF032FB03460C46184621463FF0D6FC0346FB6034F064FF03469BB201339BB27B861BE0B7F932401BF082F903469C420EDA7B8EDBB26033DBB2184635F0AEF90246FB68934203D37B8E87F837306FE1B7F932303E
S385000116009BB2013B9BB27B86B7F93230002BDFDA64E12F4B1B6893F82030042B40F0A8802C4B93F90130012B58D13BF05FFF034618463FF0DDFC04460D4600F09DFB034618463FF0D5FC20A3D3E900233FF0B8F902460B46204629463FF0B6FB03460C46184621463FF080FC03467B6134F00EFF03469BB2013B9BB23B8618E0B7F930304C
S38500011680002B0EDB3B8EDBB26033DBB2184635F05BF902467B69934203D83B8E87F837301CE1B7F930309BB201339BB23B86B7F930401BF013F903469C42DFDB0EE100BFCDCCCCCCCCCCF03F9A9999999999F13F3016001080180010000070423BF006FF034618463FF084FC04460D4600F044FB034618463FF07CFC8FA3D3E900233FF046
S385000117005FF902460B46204629463FF083FA03460C46184621463FF027FC0346BB6134F0B5FE03469BB201339BB2FB851BE0B7F92E401BF0D3F803469C420EDAFB8DDBB26033DBB2184635F0FFF80246BB69934203D3FB8D87F83730C0E0B7F92E309BB2013B9BB2FB85B7F92E30002BDFDAB5E0734B1B6893F82030072B40F0AF8000F011
S3850001178017FBB8626F4BB3F902301A466D4B93F9013003FB02F434F06DFE03469C4201DC0023BB62674B93F90130012B4BD13BF09DFE034618463FF01BFC04460D4600F0DBFA0246BB6A134418463FF011FC5AA3D3E900233FF0F4F802460B46204629463FF0F2FA03460C46184621463FF0BCFB0346FB6134F04AFE03469BB2013B9BB262
S38500011800FB8418E0B7F92630002B0EDBFB8CDBB26033DBB2184635F097F80246FB69934203D8FB8C87F8373058E0B7F926309BB201339BB2FB84B7F926401BF04FF803469C42DFDB4AE03BF051FE034618463FF0CFFB04460D4600F08FFA0246BB6A134418463FF0C5FB34A3D3E900233FF0A8F802460B46204629463FF0CCF903460C4600
S38500011880184621463FF070FB03463B6234F0FEFD03469BB201339BB2BB841BE0B7F924401BF01CF803469C420EDABB8CDBB26033DBB2184635F048F802463B6A934203D3BB8C87F8373009E0B7F924309BB2013B9BB2BB84B7F92430002BDFDA194B93F90130012B0DD134F0DDFD03461A4697F83730934205D934F0D5FD034687F83730E4
S3850001190012E0104B93F90130B3F1FF3F0CD134F0C9FD03461A4697F83730934204D234F0C1FD034687F8373097F8373018463C37BD46F0BDAFF300809A9999999999F13F301600108018001080B592B000AF00233B63FF2387F84730A04B1B6893F8203087F82F3097F82F30042B04D897F82F30002B40F09580994B1B689B6807EE903A4E
S38500011980B8EE677A954B1B68D3ED617A67EE277AC7ED057A4FF000033B643BF0A7FD38618F4B5B68FB6034F0F3FC0346FB728D4B1968FA7A13461B0113449B000B445B8B7B603A69FB68D31AFB633A69FB689A4203D2FA683B69D31AFB63824B1968FA7A13461B0113449B000B441B8B002B40D0FA6B7B689A421ED8FB6B07EE903AF8EE0D
S38500011A00677A9FED797AC7EE876A764B1968FA7A13461B0113449B000B441B8B07EE903AF8EEE77A9FED716A87EE867AC6EE877AC7ED107A1DE07B6807EE903AF8EE677A9FED697AC7EE876A664B1968FA7A13461B0113449B000B441B8B07EE903AF8EEE77A9FED626A87EE867AC6EE877AC7ED107A97ED057AD7ED107A77EE277AB6EE34
S38500011A80007A77EE877AFCEEE77A17EE903A3B633B6BFF2B00F29B803B6B87F8473096E097F82F30042B40F093803BF01FFDB8624A4B1B689B6D7B6234F06AFC034687F82330464B1B689B6E07EE903AB8EE677A424B1B68D3ED617A67EE277AC7ED077A4FF000037B633F4B196897F8232013461B0113449B000B441B8B002B27D0394BBD
S38500011B00196897F8232013461B0113449B000B445B8B07EE903AF8EEE77A9FED337AC7EE876A304B196897F8232013461B0113449B000B441B8B07EE903AF8EEE77A9FED2B6A87EE867AC6EE877AC7ED0D7ABA6A7B6A9A4204D27A6ABB6AD31ABB6303E0BA6A7B6AD31ABB63BB6B07EE903AF8EE677A9FED1D7AC7EE876A184B1B68B3F808
S38500011B80903007EE903AF8EEE77A9FED186A87EE867AC6EE877AC7ED067A97ED067AD7ED077A37EE277AD7ED0D7A77EE277AB6EE007A77EE877AFCEEE77A17EE903A3B633B6BFF2B04D83B6B87F8473000E000BF97F8473018464837BD4680BD30160010801800102C160010666618440000704280B400AF044B1B6893F822311846BD46E8
S38500011C005DF8047B704700BF3016001080B400AF044B1B6893F81C311846BD465DF8047B704700BF3016001080B400AF044B1B6893F81D311846BD465DF8047B704700BF3016001080B400AF044B1B6893F81E311846BD465DF8047B704700BF3016001080B400AF044B1B6893F81F311846BD465DF8047B704700BF3016001080B400AF9C
S38500011C80044B1B6893F820311846BD465DF8047B704700BF3016001080B400AF044B1B6893F821311846BD465DF8047B704700BF3016001080B400AF044B1B6893F827301846BD465DF8047B704700BF3016001080B400AF044B1B6893F821301846BD465DF8047B704700BF3016001080B400AF044B1B6893F822301846BD465DF8047BAA
S38500011D00704700BF3016001080B400AF044B1B6893F820301846BD465DF8047B704700BF3016001080B400AF044B1B6893F894301846BD465DF8047B704700BF3016001080B400AF044B1B6893F823301846BD465DF8047B704700BF3016001080B400AF044B1B681B6D23F07F431846BD465DF8047B70473016001080B400AF044B1B685D
S38500011D809B6C23F07F431846BD465DF8047B70473016001080B400AF044B1B685B6C23F07F431846BD465DF8047B70473016001080B400AF044B1B68DB6C23F07F431846BD465DF8047B70473016001080B400AF034B1B781846BD465DF8047B704700BF9518001080B400AF064B1B6803F5BE434C331B6823F07F431846BD465DF8047B30
S38500011E00704700BF3016001080B582B000AF3B2034F008FD0346FB71154B00221A70154B1B68002283F81E21124B1B68002283F82021104B1B68002283F82121982034F0F1FC0346002B05D00A4B1B6893F82030002B04D0074B1B68002283F81C21054B1B68002283F8232000BF0837BD4680BD801800103016001080B483B000AF00235F
S38500011E80FB710AE00C4B1A68FB7948339B00134400229A60FB790133FB71FB79082BF1D9054B1B680022C3F8742100BF0C37BD465DF8047B704700BF3016001080B483B000AF0023FB710AE0094B1A68FB7952339B00134400225A60FB790133FB71FB79092BF1D900BF0C37BD465DF8047B70473016001080B483B000AF0346FB71054B8D
S38500011F001B68FA7983F8252000BF0C37BD465DF8047B70473016001080B400AF034B1B781846BD465DF8047B704700BF9418001080B584B000AF0023FB733BF0D7FAB8600E4B5B687B600D4B93F90130012B03D1BA687B689A4209D8084B93F90130B3F1FF3F05D1BA687B689A4201D20123FB73FB7B18461037BD4680BD00BF8018001038
S38500011F8080B582B000AF7860104B1B68002283F81D210E4B1B68002283F81F210B4B1B68002283F82220094B1B68092283F82120064B1B68002283F82020044B1B68184604F06EFC00BF0837BD4680BD3016001090B583B000AF0023FB71992034F022FC0346002B1CD103200AF0FCFA0346FB710E4B93F901301A460C4BB3F9023003FBAE
S3850001200002F42F2034F03EFC03469C42D4BF01230023DBB25AB297F9073013405BB2FB71FB7918460C37BD4690BD00BF8018001090B587B000AF764B1B68012283F824202F2034F01FFC0346FB813BF05BFA0346002B19D03BF04AFA044634F0EFF903469C4211D83BF042FA044634F0F5F903469C4209D3FFF75CFF0346002B04D1FFF711
S38500012080A7FF0346002B1AD0614B1C683BF03AFA0346A3825E4B1B68062283F820205C4B1B68002283F82220594B1B68022283F82120574B1B68184604F0F2FBA3E00023FB82172034F0DEFB034607EE903AF8EE677AC7ED047A4E4B1B68D3ED5F6AD7ED047A86EEA77ADFED4B6AC7EE267AB6EE007A77EE877AFCEEE77A17EE903ABB60F2
S38500012100D7ED047AB1EE047AF4EEC77AF1EE10FA02D5414B3B610AE0D7ED047A9FED3F7AF4EEC77AF1EE10FA01DD3D4B3B6197ED047AF2EE046AC7EE267AC7ED047A344B1B681B6807EE903AB8EE677AD7ED047A27EE277ADFED2F6AC7EE267AC7ED017AD7ED017A9FED2F7A67EE877AB6EE007A77EE877AFDEEE77A17EE903A7B802A4B13
S3850001218093F901301A46224B1B68B3F9143003FB02F2B7F902309A420FDB234B93F901309AB21B4B1B68B3F914309BB212FB03F39AB27B88D31A9BB2FB82B7F91620B7F90E309A4201DAFB89FB82174B93F901309AB2FB8A12FB03F39BB21AB2124B5A800B4B1B681B68BA689A4206D3084B1B681A68074B1B6805321A60054B1B680A4A94
S38500012200B2F902209A8200BF1C37BD4690BD00BF3016001000007A440000A0400000204300002043000070428018001080B584B000AF78600B467B807B8807EE903AB8EEE77ADFED276AC7EE267AC7ED037A7B68002B2DD0786836F09FF9B860D7ED027A9FED1F7A67EE877AB6EE007A77EE877A1C4B1B68FCEEE77A17EE902A92B2A3F87E
S38500012280902097ED027AD7ED037AB4EEE77AF1EE10FA06DDF86837F0FBFDF86838F0DCFA19E0B86837F0F4FDB86838F0D5FA12E00C4B1B68D3ED5F7A97ED037AB4EEE77AF1EE10FA04DD074B1B68D3F87C31FB60F86837F0DDFD00BF1037BD4680BD00BF000070423016001090B591B000AF34F097F804463BF0FAF803469C4208D3A9208F
S3850001230034F0C0FA03469BB25B429BB21BB204E0AA2034F0B7FA03461BB2FB875C4B1B6893F82730002B16D034F07AF804463BF0DDF803469C4208D39C2034F0A3FA03469BB25B429BB21BB204E09D2034F09AFA03461BB2FB8734F063F80246B7F93E3013447B634B4B5B683B63494B1B6801221A76474B1B687A6BDA61464B93F90130F8
S38500012380012B40F05181434B5B687A6B9A425FD93F4B1B6893F89430032B49D03C4B1B685B6D7A6BD31A7B60786836F0C5FBB861374B1B68D3ED2B7A97ED067AB4EEE77AF1EE10FAC0F28C82B86938F0ABFF304B1B681C6D2E4B1B685B6E013B18463AF0E1FF02462A4B1B682244DA65284B1B68DC6D274B1B68DB6E013B18463AF0F8FF43
S385000124000246234B1B6822445A65B86938F024FA1F4B1B689A6C1E4B1B68796B8A1A9A651C4A7B6B53601A4B1B6800221A7657E2174B1B689A6C164B1B68796B8A1A9A65144A7B6B5360124B1B6800221A7647E2104B5B687A6B9A4280F042820C4B1B685A6D0B4B1B689B6C13447A6B9A4213D9074B1B689A6C064B1B68796B8A1A9A6582
S38500012480044A7B6B5360024B1B6800221A7627E23016001080180010A94B1B6893F89430012B00F01D82A64B1B6893F8B430012B00F01682A24B1B689B6807EE903AB8EE677A9F4B1B68D3ED616A9FED9E6AC6EE267A37EE277A9A4B1B681B6B07EE903AF8EE677AB4EEE77AF1EE10FA40F1F881934B1B681B6D7A6BD31A7B61904B1B68EF
S3850001250093ED2B7A8E4B1B68D3ED2A7A77EE677A9FED8D7A67EE877AB6EE007A77EE877AFCEEE77A17EE903A7B827B8A07EE903AF8EEE77A9FED857A67EE877AFCEEE77A17EE903A7B82824BB3F902309AB2804B93F901309BB212FB03F39AB27B8A13443B82786936F018F807EE100ADFED767A67EE277AB6EE007A77EE877AFCEEE77AC7
S3850001258017EE903AFB8133F075FF0346BB81FB89BB87FA893B8A9A4201D23B8ABB87BA8FBB899A4201D9BB89BB87BB8F184636F09BFB0446BB8F184636F05EFE03462344BB60BB6807EE903AF8EE677A9FED5F7A67EE877AFCEEE77A17EE903ABB607A69BB689A4240F27C81BB8F19467869FFF71DFE574A7B6B5360514B1B68196D504B7E
S385000126001B685A6C4E4B1B680A445A65504B59684B4B1B689A6C4A4B1B688A1A9A65484B1B6800221A765BE1494B93F90130B3F1FF3F40F05581464B5B687A6B9A425FD23F4B1B6893F89430032B49D03C4B1B685A6D7B6BD31AFB61F86936F06DFAB861374B1B68D3ED2B7A97ED067AB4EEE77AF1EE10FAC0F23481B86938F053FE304BA8
S385000126801B681C6D2E4B1B685B6E013B18463AF089FE02462A4B1B68A21ADA65284B1B68DC6D274B1B68DB6E013B18463AF0A0FE0246234B1B68A21A5A65B86938F0CCF81F4B1B68996C1E4B1B687A6B0A449A651F4A7B6B53601A4B1B6800221A76FFE0174B1B68996C164B1B687A6B0A449A65174A7B6B5360124B1B6800221A76EFE0F6
S38500012700134B5B687A6B9A4240F2EA800C4B1B685A6D0B4B1B689B6CD31A7A6B9A4219D2074B1B68996C064B1B687A6B0A449A65074A7B6B5360024B1B6800221A76CFE03016001000000000000070426666863F80180010674B1B6893F89430012B00F0BF80644B1B6893F8B430012B00F0B880604B1B689B6807EE903AB8EE677A5D4B8B
S385000127801B68D3ED616A9FED5C6AC6EE267A37EE277A584B1B681B6B07EE903AF8EE677AB4EEE77AF1EE10FA40F19A80514B1B681A6D7B6BD31AFB624E4B1B6893ED2B7A4C4B1B68D3ED2A7A77EE677A9FED4B7A67EE877AB6EE007A77EE877AFCEEE77A17EE903A7B857B8D07EE903AF8EEE77A9FED437A67EE877AFCEEE77A17EE903A08
S385000128007B85404BB3F902309AB23E4B93F901309BB212FB03F39AB27B8D13443B85F86A35F0BAFE07EE100ADFED347A67EE277AB6EE007A77EE877AFCEEE77A17EE903AFB8433F017FE0346BB84FB8C7B87FA8C3B8D9A4201D23B8D7B877A8FBB8C9A4201D9BB8C7B877B8F184636F03DFA04467B8F184636F000FD034623443B623B6AD5
S3850001288007EE903AF8EE677A9FED1D7A67EE877AFCEEE77A17EE903A3B62FA6A3B6A9A421ED97B8F1946F86AFFF7C0FC154A7B6B5360104B1B68196D0E4B1B685A6C0D4B1B688A1A5A650F4B59680A4B1B689A6C084B1B680A449A65064B1B6800221A76084B5B68184633F001FD00BF4437BD4690BD00BF301600100000000000007042FE
S385000129006666863F8018001090B58DB000AF0023BB6233F085FD04463AF0E8FD03469C4208D3A92033F0AEFF03469BB25B429BB21BB204E0AA2033F0A5FF03461BB2FB85A34B1B6893F82730002B16D033F068FD04463AF0CBFD03469C4208D39C2033F091FF03469BB25B429BB21BB204E09D2033F088FF03461BB2FB8533F051FD024635
S38500012980B7F92E3013447B623AF0B0FD3862904B1B687A6ADA618F4B93F90130012B40F084808C4B5B687A6A9A425AD9884B1B6893F89430032B54D0854B1B68D3ED2B7A9FED857A67EE877AFCEEE77A17EE903AFB603A6AFB681344BB607A6ABB68D31A7B60786836F0A8F83860794B1B68D3ED2B7A97ED007AB4EEE77AF1EE10FA2BDBF5
S38500012A00386838F08FFC724B1B68BA68DA65704B1B68DB6E013B18463AF0EAFC01466C4B1B68BA680A445A65386837F015FF684B1B689A6C664B1B68796A8A1A9A65654A7B6A5360624B1B68032283F82020604B1B6800221A76B2E05D4B1B6801221A76ADE05C4B5B687A6A9A4207D8584B1B689A6C796A3B6ACB1A9A4211D2544B1B68F2
S38500012A809B6C7A6AD31ABB62524A7B6A5360504B1B68BA6A9A654E4B1B6800221A768EE04B4B1B6801221A7689E04A4B93F90130B3F1FF3F40F08380464B5B687A6A9A425AD2434B1B6893F89430032B54D0404B1B68D3ED2B7A9FED407A67EE877AFCEEE77A17EE903AFB613A6AFB69D31ABB61BA697B6AD31A7B61786936F01DF838617F
S38500012B00334B1B68D3ED2B7A97ED047AB4EEE77AF1EE10FA2BDB386938F004FC2C4B1B68BA69DA652A4B1B68DB6E013B18463AF05FFC0146264B1B68BA69521A5A65386937F08AFE224B1B68996C214B1B687A6A0A449A651F4A7B6A53601D4B1B68032283F820201A4B1B6800221A7627E0184B1B6801221A7622E0164B5B687A6A9A4295
S38500012B8007D3134B1B689A6C396A7B6ACB1A9A4211D20F4B1B689B6C7A6A1344BB620D4A7B6A53600A4B1B68BA6A9A65084B1B6800221A7603E0064B1B6801221A76054B5B68184633F092FB00BF3437BD4690BD30160010801800106666184490B585B000AF0023FB730023BB600023FB7133F017FC04463AF07AFC03469C4208D3A92096
S38500012C0033F040FE03469BB25B429BB21BB204E0AA2033F037FE03461BB2BB80524B1B6893F82730002B16D033F0FAFB04463AF05DFC03469C4208D39C2033F023FE03469BB25B429BB21BB204E09D2033F01AFE03461BB2BB8033F0E3FB0246B7F9043013443B6033F0DCFB04463AF03FFC03469C4209D93D4B01225A703AF037FC0246E9
S38500012C803B689B1ABB6016E033F0CAFB04463AF02DFC03469C4209D2344BFF225A703AF025FC02463B68D31ABB6004E02F4B00225A700123FB71BB68B3F1807F01D2BB6800E00023BB60284B1B681B7E002B40D1FB79002B3DD1244B1C683AF007FC0346236533F0C7FB03461946B868FFF79EFA1E4A3B6853601D4B93F90130012B13D1EA
S38500012D00194B1B68196D184B1B685A6C164B1B680A445A65154B5968134B1B689A6C124B1B688A1A9A6512E00F4B1B68196D0E4B1B685A6C0C4B1B688A1A5A650B4B5968094B1B689A6C084B1B680A449A650123FB73064B5B68184633F0C8FAFB7B18461437BD4690BD00BF301600108018001090B587B000AF0023FB7533F021FB034611
S38500012D80032B40F0988033F059FB786033F096FB0346002B04D127F0A5FA0346002B01D0012300E00023FB70FB78002B05D13AF09DFB02467B6893426AD9FB78002B04D033F058FB03461A4605E040F26B3033F089FD03461A46884B1A8040F2813033F081FD034607EE903AF8EEE77A9FED837A67EE877AB6EE007A77EE877AFCEEE77A81
S38500012E0017EE903ABB6033F019FB0246BB68D31A7B4A136033F02EFB03463B803B88002B25D03AF063FB0246754B1B689A4216D933F020FB03461A466F4B1B889A420ED933F0E2FA0346092B09D06B4B1B8819460020FFF7EBF96B4B01221A700BE033F009FB034619460020FFF7E0F903E0664B1B6801225A66644B1C6833F007FB0346D4
S38500012E8084F87430614B01225A700123FB75ADE015F02AFA0346002B09D03AF027FB02467B68934203D8EB2021F0CEF99EE0EC2021F0CAF99AE033F083FA0346042B40F0958033F0C9FA386133F0F8FA0346002B04D127F007FA0346002B01D0012300E00023FB73FB7B002B05D13AF0FFFA02463B69934268D2FB7B002B04D033F0BAFA8C
S38500012F0003461A4605E040F26B3033F0EBFC03461A46394B1A8040F2823033F0E3FC034607EE903AF8EEE77A9FED347A67EE877AB6EE007A77EE877AFCEEE77A17EE903ABB6033F089FA0246BB6813442C4A136033F090FA0346002B25D03AF0C7FA0246274B1B689A4216D233F084FA03461A46214B1B889A420ED933F046FA0346092B51
S38500012F8009D01D4B1B8819460020FFF74FF91D4B01221A700BE033F06DFA034619460020FFF744F903E0184B1B6801225A66164B1C6833F06BFA034684F87430134BFF225A700123FB7511E015F08EF90346002B09D03AF08BFA02463B69934203D3EB2021F032F902E0EC2021F02EF9FB7D18461C37BD4690BD00BF9018001066661844B0
S385000130008C18001093180010301600108018001090B585B000AF33F0D3F90346052B40F098800023FB600023FB7233F0F9F904463AF05CFA03469C4208D3A92033F022FC03469BB25B429BB21BB204E0AA2033F019FC03461BB23B812AF010F90346002B16D033F0DDF904463AF040FA03469C4208D39C2033F006FC03469BB25B429BB27E
S385000130801BB204E09D2033F0FDFB03461BB23B8133F0C6F90246B7F9083013447B6033F0BFF904463AF022FA03469C4209D92B4B01225A703AF01AFA02467B689B1AFB6016E033F0ADF904463AF010FA03469C4209D2224BFF225A703AF008FA02467B68D31AFB6004E01D4B00225A700123FB72FB68B3F1807F01D2FB6800E00023FB6041
S38500013100174B1B681B7E002B20D1FB7A002B1DD1124A7B685360124B1C6833F0B7F9034684F874300E4B1C682AF0A8F8034684F827300B4B1B68022283F82020FEF79CFEFEF7BCFE054B01221A7002E0034B00225A7000BF1437BD4690BD00BF801800103016001090B587B000AF33F029F90346032B63D133F062F9B86033F09FF9034683
S38500013180FB71FB79002B05D13AF0B0F90246BB68934240D9FB79002B04D033F06BF903461A4605E040F26B3033F09CFB03461A46594B1A8040F2813033F094FB034607EE903AF8EEE77A9FED557A67EE877AB6EE007A77EE877AFCEEE77A17EE903AFB6033F02CF90246FB68D31A4D4A13604D4B1C6833F04BF9034684F874304A4B0122A9
S385000132005A70484B1B68022283F82020FEF734FEFEF754FE7BE015F067F80346002B09D03AF064F90246BB68934203D8EB2021F00BF86CE0EC2021F007F868E033F0C0F80346042B63D133F007F9786133F036F90346FB74FB7C002B05D13AF047F902467B69934240D2FB7C002B04D033F002F903461A4605E040F26B3033F033FB034692
S385000132801A46254B1A8040F2823033F02BFB034607EE903AF8EEE77A9FED207A67EE877AB6EE007A77EE877AFCEEE77A17EE903AFB6033F0D1F80246FB681344184A1360184B1C6833F0E2F8034684F87430164BFF225A70134B1B68022283F82020FEF7CBFDFEF7EBFD12E014F0FEFF0346002B09D03AF0FBF802467B69934203D3EB2077
S3850001330020F0A2FF03E0EC2020F09EFFFFE700BF1C37BD4690BD00BF90180010666618448C180010301600108018001098B500AF0A4B1C6833F0AAF8034684F87430084B01225A70054B1B68022283F82020FEF793FDFEF7B3FD00BF98BD00BF301600108018001080B582B000AF0023FB7133F01BF80346032B0BD133F03AF80346172B62
S3850001338004D12EF021FA0346002B01D10123FB71FB7918460837BD4680BD80B582B000AF0023FB7133F000F80346012B04D032F0FBFF0346022B02D10123FB7110E032F0F3FF0346032B0BD133F012F80346172B06D12EF0F9F90346002B01D00123FB71FB7918460837BD4680BDFFFF80B582B000AF0023FB713AF085F80346BB80B7F9F9
S385000134000430022B1DDCB7F9043013F1020F18DB5D2033F037FA03469BB21A46920013445B007B800C4B1B887A889A4202D80123FB7109E0084B1B8801339AB2064B1A8002E0054B00221A80044AFB79137000BF0837BD4680BD00BF800000109418001080B500AF982033F0DDF90346002B39D0822033F007FA0346022B33D11A4B1B68B7
S3850001348093F82930002B07D0174B1B68002283F82920164B00221A80134B1B6893F81C31002B0AD0114B1B88B3F5FA6F05D20F4B1B8801339AB20D4B1A8009F0C5F80346002B0AD0094B1B88B3F5FA6F05D2064B1B68012283F81C2104E0034B1B68002283F81C2100BF80BD301600109618001080B500AF484B1B68002283F82420464B46
S385000135001B6800221A76444B1B686FF07F42DA61414B1B68002283F828203F4B1B680022DA663D4B1B6800221A673B4B1B6800225A60394B1B6800229A64374B1B6800225A64354B1B680022DA64344B00221A70334B00221A70304B1B68002283F822202D4B1B68002283F821202E4B00225A802C4B00225A70284B1B68002283F8742033
S38500013580254B1B6800229A60234B1B680022DA60214B1B6800221A611F4B1B6800221A601D4B1B68002283F8272039F09FFF02461C4B5A60FEF728FCFFF752FFFEF718FB0346002B25D12AF043F80346002B06D0154B9B7B002B02D1FFF7A8FE19E0FFF7C1FE0346002B0CD0FEF796FC0346002B04D129F043FE0346002B02D0FFF708FD6A
S3850001360007E0FFF7CAFE0346002B02D0FFF7AAFDFFE700BF80BD00BF30160010921800109318001080180010D821001090B587B000AF934B1B68D3ED617A9FED927A27EE877AF1EE046AC7EE267AFCEEE77AC7ED017A3B79FB758C4B01221A7032F0B0FE0346032B40F0EC80874B01225A7032F025FF0346002B08D139F038FF044632F004
S38500013680DDFE03469C4280F0D58032F0F3FE0346002B03D17C4B00225A80E8E17B4B1B78002B06D139F022FF0246794B1B689A422DD2784B1B780133DAB2764B1A70754B1B78FA7D9A4207D8724B00221A706C4B1B685A6801325A60694B1B685A68684B1B685B6E013B9A4206D9654B1B685A6E634B1B68013A5A60614B1B685B6818466E
S3850001370039F074F803461AB25F4B5A80AFE1624B1B78002B5CD15A4B1B685B68184639F065F803463B825D4B1B883A8A9A4214D95B4A3B8A13805A4B1A88584B1B88D31A9BB219460020FEF771FD4D4B1B6800225A60514B01221A7089E14E4B1B780133DAB24C4B1A704B4B1B78FA7D9A4207D8484B00221A70424B1B685A6801325A6089
S385000137803F4B1B685A683E4B1B685B6E013B9A4206D93B4B1B685A6E394B1B68013A5A60374B1B685B68184639F020F80346FB813A4B1B88FA899A4204D2B7F90E20324B5A8054E1354B1B881AB22F4B5A804EE1304B1B780133DAB22E4B1A702D4B1B78FA7D9A4207D82B4B00221A70244B1B685A6801325A60224B1B685A68204B1B6884
S385000138005B6E013B9A4206D91D4B1B685A6E1C4B1B68013A5A60224B1C88194B1B685B68184638F0E3FF0346E31A9BB21AB2164B5A801CE1124B1B681846FEF7A1FB16E132F0BEFD0346042B40F007810E4BFF225A7032F033FE0346002B08D139F046FE044632F0F9FD03469C4240F2F08032F001FE0346002B15D1034B00225A80DCE065
S385000138803016001000007A4480180010931800108C1800109818001092180010901800109A180010774B1B78002B06D139F01EFE0246754B1B689A422DD9744B1B780133DAB2724B1A70714B1B78FA7D9A4207D86E4B00221A706E4B1B685A6801325A606B4B1B685A686A4B1B685B6E013B9A4206D9674B1B685A6E654B1B68013A5A6057
S38500013900634B1B685B68184638F070FF03461AB2604B5A8091E0604B1B78002B5CD15C4B1B685B68184638F061FF0346BB825B4B1B88BA8A9A4214D9594ABB8A1380584B1A88564B1B88D31A9BB219460020FEF76DFC4F4B1B6800225A604F4B01221A706BE04A4B1B780133DAB2484B1A70474B1B78FA7D9A4207D8444B00221A70444B3B
S385000139801B685A6801325A60414B1B685A68404B1B685B6E013B9A4206D93D4B1B685A6E3B4B1B68013A5A60394B1B685B68184638F01CFF03467B82384B1B887A8A9A4204D2B7F91220334B5A8036E0334B1B881AB2304B5A8030E02C4B1B780133DAB22A4B1A70294B1B78FA7D9A4207D8274B00221A70264B1B685A6801325A60244BBD
S38500013A001B685A68224B1B685B6E013B9A4206D91F4B1B685A6E1E4B1B68013A5A60204B1C881B4B1B685B68184638F0DFFE0346E31A9BB21AB2174B5A80164BB3F902309BB25B429BB21AB2124B5A800FE0104B1B681846FEF794FA09E00D4B1B68062283F820200A4B1B68002283F82120084B1B68084AB2F902209A8200BF1C37BD4651
S38500013A8090BD00BF931800108C18001098180010301600108018001092180010901800109A18001090B583B000AF00237B6039F01DFD38603B4B93F90130012B36D13A4B1B68DB687B601FE0374B1B68DC6D786839F08EFC034623443A689A4211D3324B1B68DC6D7B680133184639F081FC034623443A689A4204D22B4B1B687A68DA6047
S38500013B0009E07B6801337B60274B1B68DB6E013B7A689A42D8D3244B1B68DB68184639F057F903461AB21F4B5A8037E01E4B1B68DB687B601FE01C4B1B68DC6D786839F057FC0346E31A3A689A4211D8164B1B68DC6D7B680133184639F04AFC0346E31A3A689A4204D9104B1B687A68DA6009E07B6801337B600C4B1B68DB6E013B7A68F7
S38500013B809A42D8D3084B1B68DB68184639F020F903465B429BB21AB2024B5A8000BF0C37BD4690BD801800103016001090B587B000AF00237B6139F099FC38613F4B93F90130012B3AD13E4B1B689B687B6123E03B4B1B681C6D786939F0E4FB034623447B60374B1B681C6D7B690133184639F0D9FB034623443B603A697B689A4208D38C
S38500013C003A693B689A4204D22D4B1B687A699A6009E07B6901337B61294B1B685B6E013B7A699A42D4D3264B1B689B68184638F0DDFD03461AB2214B5A803BE0204B1B689B687B6123E01E4B1B681C6D7B690133184639F0A7FB0346E31AFB60184B1B681C6D786939F09EFB0346E31ABB603A69BB689A4208D83A69FB689A4204D9104B2B
S38500013C801B687A699A6009E07B6901337B610C4B1B685B6E013B7A699A42D4D3084B1B689B68184638F0A2FD03465B429BB21AB2024B5A8000BF1C37BD4690BD801800103016001080B582B000AF324B01221A7039F00CFC78602F4B93F90130012B22D12D4B1B685B6D7A689A4216D22A4B1B689B6D7A689A4210D2274B1B68DB6E002BA6
S38500013D0008D0254B1B68DB6D7A689A4202D9FFF7C9FE2AE0FFF74AFF27E01F4B1B68042283F8202021E01C4B1B685B6D7A689A4216D9194B1B689B6D7A689A4210D9164B1B68DB6E002B08D0134B1B68DB6D7A689A4202D2FFF7A6FE07E0FFF727FF04E00D4B1B68042283F820200A4BB3F90230002B05D1074B93F901301AB2054B5A805E
S38500013D80054B1B68034AB2F902209A8200BF0837BD4680BD801800103016001080B582B000AF414B01221A7039F0A0FB78603F4B1B689B6D7A689A4204D83B4B93F90130012B0BD0394B1B689B6D7A689A423FD3354B93F90130B3F1FF3F39D1334B1B6893F82830002B07D0304B1B68B3F878311AB22D4B5A801BE02C4B1B68DB6E002BCC
S38500013E000BD02A4B1B68DB6E013B184638F0E0FF03461AB2244B5A800AE0244B1B685B6E013B184638F0E2FC03461AB21E4B5A801D4B93F90130B3F1FF3F2BD11A4BB3F902309BB25B429BB21AB2174B5A8021E0164B1B6893F82530002B04D032F0C8FA0346172B0CD0114B1B68052283F820200E4B1B689A6E0D4B1B68013A9A6009E051
S38500013E80FEF756F80346002B04D0084B1B681846FEF776F8054B1B68034AB2F902209A8200BF0837BD4680BD801800103016001080B586B000AF6A4B1B7AFB73684B5B78BB7397F90E3099B2664B1868FA7B13461B0113449B0003441B8B11FB03F39BB2BB81604B1968FA7B13461B0113449B000B445B8B7B815A4B5B687B6039F0F6FA9B
S38500013F003860574B01221A7097F90E30012B47D13A687B689A423DD2534B1B689B687B6120E07B69184639F04FFA02467B689A1A7B89D31A3A689A4211D37B69013B184639F042FA02467B689A1A7B89D31A3A689A4204D2444B1B687A699A6005E07B69013B7B617B69002BDBDC3F4B1B689B68184638F0BBFD03461AB2394B5A80384B0A
S38500013F80B3F90230B7F90C209A4252DD344ABB8953804EE0344B1B68062283F8202048E03A687B689A423FD92F4B1B689B683B6120E03B69184639F007FA02467B681A447B8913443A689A4211D83B69013B184639F0FAF902467B681A447B8913443A689A4204D9204B1B683A699A6005E03B69013B3B613B69002BDBDC1B4B1B689B68A2
S38500014000184638F073FD03465B429BB21AB2144B5A80134BB3F90230B7F90C209A4208DA0F4ABB89538004E00F4B1B68062283F820200B4BB3F90230B7F90C209A4204D1094B1B68012283F82320074B1B68044AB2F902209A8200BF1837BD4680BD00BF801800102C1600103016001080B582B000AF1E4B01221A7029F0EAFA0346002BA2
S3850001408009D01A4B00225A80194B1B68174AB2F902209A8225E029F0F9FA0346002B1BD04FF4637032F01EFC0346FB80FB88142B02D91423FB8004E0FB88002B01D10123FB80B7F90620094B5A80094B1B68074AB2F902209A8204E0054B1B68062283F8202000BF0837BD4680BD00BF8018001030160010FFFFFFFF98B500AF452032F04D
S3850001410091FB0346002B00F07D81AB4B1B78002B00F0788100F04EFB0346002B40F07281A64B1B6893F82030062B00F06B81A34B1B6893F82430002B40F064819E4BB3F90230002B40F3A7809B4BB3F90230642B5CDD994BB3F90220984B1B68B3F916309A4224DD954B1B68B3F9163018463CF036FF8DA3D3E900233CF022FC03460C462A
S38500014180184621463CF0D0FE03461AB28C4B1A80894BB3F902208A4BB3F900309A4240F33181874BB3F90020834B5A802AE1824BB3F90220814B1B68B3F916309A4280F221817E4B1B68B3F9163018463CF007FF77A3D3E900233CF0F3FB03460C46184621463CF0A1FE03461AB2754B1A80724BB3F90220724BB3F900309A4280F20281D2
S385000142006F4BB3F900206C4B5A80FBE06A4BB3F902206A4B1B68B3F916309A4218DD674B1B68B3F916309BB20A339BB21AB2644B1A80614BB3F90220614BB3F900309A4240F3E0805E4BB3F900205B4B5A80D9E0594BB3F90220594B1B68B3F916309A4280F2D080554B1B68B3F916309BB20A3B9BB21AB2524B1A804F4BB3F90220504B72
S38500014280B3F900309A4280F2BD804D4BB3F90020494B5A80B6E0484BB3F90230002B80F2B180454BB3F9023013F1640F5ADA424BB3F90220414B1B68B3F916309A4224DA3E4B1B68B3F9163018463CF088FE36A3D3E900233CF074FB03460C46184621463CF022FE03461AB2354B1A80324BB3F90220334BB3F900309A4280F28380304BAD
S38500014300B3F900202C4B5A807CE02B4BB3F902202A4B1B68B3F916309A4273DD274B1B68B3F9163018463CF05AFE21A3D3E900233CF046FB03460C46184621463CF0F4FD03461AB21E4B1A801B4BB3F902201C4BB3F900309A4255DD194BB3F90020164B5A804FE0144BB3F90220144B1B68B3F916309A4226DA114B1B68B3F916309BB2DB
S385000143800A3B9BB21AB20E4B1A800B4BB3F902200B4BB3F900309A4234DA094BB3F90020054B5A802EE000BF9A9999999999F13FCDCCCCCCCCCCEC3F80180010301600109C180010104BB3F90220104B1B68B3F916309A4216DD0D4B1B68B3F916309BB20A339BB21AB20A4B1A80074BB3F90220074BB3F900309A4204DD054BB3F9002043
S38500014400014B5A8000BF98BD80180010301600109C18001080B500AF0E4B1B78184631F02FFF0C4B93F90130184631F03FFF094BB3F90230184631F049FF064B5B68184631F054FF034B1B7A184631F061FF00BF80BD00BF8018001080B500AF164B1B685B6EB3F5FA6F03D3ED201FF0EDFE21E031F09AFF0346012B09D00F4B1B689B6E79
S38500014480B3F5FA6F03D3EE201FF0DEFE12E00A4B1B68DB6EB3F5FA6F03D3EF201FF0D4FE08E0054B1B681B6FB3F5FA6F02D3F0201FF0CAFE00BF80BD3016001080B582B000AF0346FB71FB79032B0DD0FB79184638F0B6FF0346002B06D0FB799BB2F1339BB218461FF0B0FE00BF0837BD4680BD80B500AF1E4B1B6893F82030012B35D1DC
S3850001450031F076FF0346172B30D117F0A5FF0346092B2BD1164B1B6893F82630002B25D040F2693032F0DEF9034607EE903AF8EEE77A9FED107A67EE877AB6EE007A77EE877AFDEEE77A17EE903A1AB20A4B5A80094BB3F902309AB2074B93F901309BB212FB03F39BB21AB2034B5A8000BF80BD30160010CDCC8C3F8018001080B582B00D
S3850001458000AF414BB3F902309AB23F4B93F901309BB212FB03F3FB80FDF7B6FB0346052B0AD13A4B1B6893F82330002B02D0FB88142B01D9012300E000237B71334B1B6893F82430002B11D1FDF79EFB0346002B0CD0FDF799FB0346022B07D0FDF794FB0346062B02D07B79002B49D0274B1B68B3F91630002B11DD234BB3F90220234B62
S385000146001B68B3F916309A423ADDAF201FF01CFE1E4B1B681846FDF7B3FC31E01B4B1B68B3F91630002B11DA174BB3F90220174B1B68B3F916309A4222DAAF201FF004FE124B1B681846FDF79BFC19E00E4BB3F902200E4B1B68B3F916309A4208DB0A4BB3F90220094B1B68B3F916309A4207DDAF201FF0E9FD054B1B681846FDF780FC9E
S3850001468000BF0837BD4680BD801800103016001080B58AB000AF0346FB7131F079FE0346FB77FB79184631F033FEFB79022B11D140F26E3032F016F9034607EE903AF8EEE77A9FED397AC7EE876A16EE900A36F0C3F806E0354B1B68D3F87C31184636F0BBF8324B1B689B6EDB08BB61BB695B087B61802032F0C6F803469BB21A469200EB
S3850001470013445B007B82002387F8273038E097F82730BA6902FB03F37A691344FB60F86838F052FE224B1968FA7913461B0113449B000B445B8B03443B627B8A3A6A9A4204D97B8A3A6AD31A3B6201E000233B62F86838F0CBF903467B81FA7997F827107B8918461FF098F9FA7997F827301946386A1FF0B1F997F82730013387F8273023
S3850001478097F82730072BC2D9FB7F184631F0C0FD064B1B68D3F87C31184636F05DF800BF2837BD4680BD00BF00007042301600102C16001080B582B000AF0023FB7131F0FFFD0346BB71144B1B6893F82030002B10D0124B9B7B002B0AD1BB79002B07D031F0E2FD03461A460D4B1B789A4201D00123FB7131F0E4FD03461A46094B1A70A5
S3850001480031F0D2FD03461A46054B1A70FB7918460837BD4680BD00BF30160010D82100109E1800109F18001080B582B000AF0123FB7131F0C5FD0346022B08D01B4B1B6893F82430002B02D10023FB7129E031F0CFFD0346172B14D1144B1B6893F82530002B0ED00023FB71114B93F88630022B16D117F0F1FD0346012B11D10123FB7149
S385000148800EE00A4B1B6893F82030062B05D0074B1B6893F82030002B03D10023FB7100E000BFFB7918460837BD4680BD301600101C1B001080B483B000AF1B4B1B6893F820201A4B1B789A4227D0174B1B6893F82020164B1A700023FB710AE0124B1A68FB7948339B00134400229A60FB790133FB71FB79082BF1D90023BB710AE00A4BA7
S385000149001A68BB7952339B00134400225A60BB790133BB71BB79092BF1D900BF0C37BD465DF8047B704700BF30160010A018001090B589B000AF0346FB71FB79002B40F0B8800023FB610023FB7614E0FB7E6133DBB2184631F0F8FF0446FB7E6033DBB2184631F0F1FF0346E31AFA691344FB61FB7E0133FB76FC7E17F0B0FF0346013B73
S385000149809C42E3DB17F0AAFF0346013B1A46FB69B3FBF2F3FB6131F0FBFC0346BB76FB79184631F0B5FC18F01BF803461946F869FDF73CFC414B1B685B6CFA69D21A3F4B1B689B6CD11A3E4B1868FA7913461B0113449B0003445B8BCB1A07EE903AF8EE677A9FED387AC7EE876A344B1B68B3F8903007EE903AF8EEE77A9FED336A87EE12
S38500014A00867AC6EE877AC7ED057A2D4B1968FA7913461B0113449B000B445B8B07EE903AF8EEE77A9FED277AC7EE876A244B1968FA7913461B0113449B000B441B8B07EE903AF8EEE77A9FED206A87EE867AC6EE877AC7ED047A194B1B6893ED287A174B1B68D3ED307A77EE277AC7ED037A97ED037AD7ED047A77EE277AC7ED037A97EDA2
S38500014A80037AD7ED057A77EE277AC7ED037AD7ED037AB6EE007A77EE877AFCEEE77AC7ED007A3B68DAB2094B1A70BB7E184631F02FFC00BF2437BD4690BD00BF301600102C16001066661844000070429518001080B582B000AF0023FB710023BB711CE0BB79184632F0D0FC0346002B12D00123FB71BB79184633F047F8BB791846FFF750
S38500014B00C7FDBB791846FFF7D9FCBB791846FFF70FFF05E0BB790133BB71BB79032BDFD9FB79002B02D0FD201FF08EFB00BF0837BD4680BD80B584B000AF78607B684FF4FA721A817B6805225A81184B00221A72164B00221A70154B00225A80134B00225A700023FB7319E0FB7B184632F08CFC0346002B0FD0FB7B184633F005F8FB7BF5
S38500014B801846FFF785FDFB7B1846FFF797FCFB7B1846FFF7CDFEFB7B0133FB73FB7B032BE2D9002318461037BD4680BD8018001090B583B000AF0023FB7131F031FC044638F094FC03469C4208D3A92031F05AFE03469BB25B429BB21BB204E0AA2031F051FE03461BB2BB80254B1B6893F82730002B16D031F014FC044638F077FC034674
S38500014C009C4208D39C2031F03DFE03469BB25B429BB21BB204E09D2031F034FE03461BB2BB8031F0FDFB0246B7F9043013443B602B2031F0F7FD0346002B1CD0104B1B6893F82730002B16D10E4B5B683A689A4211D00B4B1B681B7E002B05D0084B1B68DB693A689A4206D0054B1B68DB6E002B01D10123FB71FB7918460C37BD4690BD98
S38500014C80301600108018001080B582B000AF4FF45A7031F027FE0346FB800F4BB3F90230B7F906209A4203DA0B4AFB8853800EE0094BB3F902301A46B7F906305B429A4205DAFB885B429BB21AB2034B5A8000BF0837BD4680BD00BF8018001080B582B000AF3B2031F09EFD0346FB71114B1B6893F82030002B05D00E4B1B6893F82030F9
S38500014D00062B01D1012300E00023BB71FB79002B0CD0BB79002B09D0064B1B68184601F03FFD044B1B68184601F07EFD00BF0837BD4680BD3016001080B500AFFCF758FF0346002B04D0034B1B68184601F0A8FC00BF80BD3016001080B582B000AF274B1B6893F82030012B11D0244B1B6893F82030032B0BD0214B1B6893F82030022B48
S38500014D8038D11E4B1B6893F82230042B32D940F2713031F0A7FD03467B6031F005FB0346012B05D14FF45C7031F09CFD03467B60124B1B68D3F840217B681149A1FB03139B089A420FD30D4B1B680022C3F840210A4B1B68012283F82121084B1B68012283F81F2106E0054B1B68D3F840210132C3F8402100BF0837BD4680BD30160010E2
S38500014E00CDCCCCCC80B400AF00BFBD465DF8047B7047FFFF80B582B000AF7860FFF7F2FFFEF7E4FAFFF754FEFFF7C4FC0346002B0AD0754B1B681846FDF7A2F838F056FB0246724B5A6079E0FFF7EEFC0346002B02D0FDF7EDF871E06B4B1B6893F82030082B65D801A252F823F000BF914E0100974E0100074F01009D4E0100CF4E01005E
S38500014E80014F0100134F01001F4F01002B4F0100FEF72EFB52E0FEF7C9FB4FE05A4B1B68184600F0B7F80346002B05D0564B1B68184600F0DDF841E0FFF77AFE0346002B02D0FDF711FA39E0FEF7FCFE36E04E4B1B68184600F09EF80346002B05D04A4B1B68184600F066F928E0FFF761FE0346002B02D0FDF708FD20E0FEF74FFF1DE044
S38500014F00FEF7D6FF1AE0404B1B68184600F094FE14E03D4B1B68184601F0C2FC0EE03A4B1B68184600F0C4F908E0FFF79FF805E0354B1B681846FDF723F800BFFFF7CEFEFFF7FAFEFFF708FFFFF7D6F8FFF716FBFFF782FAFFF798FEFFF7CAFAFFF75AFAFFF7A8FC7E2031F05DFC0346002B1AD00E202CF0FDFF0346002B14D0224B1B68CA
S38500014F8093F82221204B1B6842F00102D2B283F822211D4B1B680022C3F824211A4B1B680022C3F86C2131F02FFA0346092B08D0154B1B6893F82231194602202DF00AF903E0002102202DF005F90F4B1B680F4AB2F90220DA820C4B18680D4B1A680B4B1B7A19460B461B010B449B00134419462CF0CBFB044B1B6818462CF0D1FB002352
S3850001500018460837BD4680BD30160010801800102C16001090B585B000AF78600023FB737B6893F82830002B1BD17B68B3F8784131F020FA03469C4213D90C4BB3F902301A460A4B93F9013003FB02F431F012FA03469C4205DB7B68012283F828200123FB73FB7B18461437BD4690BD8018001090B585B000AF786031F072F903469CB293
S3850001508031F062F903469BB214FB03F39BB2FB8131F0F0F90346BB81B7F90E20B7F90C309A425EDDBA897B68A3F87821B7F90E3007EE903AF8EEE77A9FED3D7AC7EE876AB7F90C3007EE903AF8EEE77A9FED387A87EE876A16EE101A16EE900A36F048FEB7F90C3007EE903AF8EEE77A9FED307AC7EE876A16EE900A35F0AEFB38F0F6F903
S3850001510002467B681A6631F01FF90346012B0FD17B681A6E7B68DB6C1A447B685A6531F02BF902467B689B6CD21A7B689A650EE07B681A6E7B68DB6CD21A7B685A6531F01BF902467B689B6C1A447B689A657B681B6F5A1E7B681A617B68072283F8202022E0BA897B68A3F87821B7F90C3007EE903AF8EEE77A9FED0E7AC7EE876A16EE47
S38500015180900A35F069FB38F0B1F902467B685A6531F0F2F802467B689B6CD21A7B689A657B68042283F8202000BF1437BD4690BD0000704290B585B000AF786031F0D0F803469CB231F0C0F803469BB214FB03F39BB2FB8131F04EF90346BB81B7F90E20B7F90C309A425DDDBA897B68A3F87821B7F90E3007EE903AF8EEE77A9FED2B7AE4
S38500015200C7EE876AB7F90C3007EE903AF8EEE77A9FED267A87EE876A16EE101A16EE900A36F0A6FDB7F90C3007EE903AF8EEE77A9FED1E7AC7EE876A16EE900A35F00CFB38F054F902467B681A6631F07DF80346012B0FD17B681A6E7B68DB6C1A447B685A6531F089F802467B689B6CD21A7B689A650EE07B681A6E7B68DB6CD21A7B684E
S385000152805A6531F079F802467B689B6C1A447B689A657B681B6F5A1E7B681A617B68072283F8202000BF1437BD4690BD0000704280B588B000AF7860524B1B7AFB76514B5B78BB764F4B5B687B617B685B6D3B6138F00CF9F8600023FB614A4B01221A7097F91A30012B41D1FA687B699A422FD2FA683B699A422BD27B681B69FB611AE0FA
S38500015300F86938F089F802463B699B1AFA689A420ED3FB69013B184638F07EF802463B699B1AFA689A4203D27B68FA691A6105E0FB69013BFB61FB69002BE1D17B681B69184637F0B7FE03461AB22E4B5A8050E0FA687B699A4204D27B68042283F8202047E07B68062283F8202042E0FA687B699A4231D9FA683B699A422DD97B681B69AA
S38500015380FB611AE0F86938F047F802463B691344FA689A420ED8FB69013B184638F03CF802463B691344FA689A4203D97B68FA691A6105E0FB69013BFB61FB69002BE1D17B681B69184637F075FE03465B429BB21AB20C4B5A800CE0FA687B699A4204D97B68042283F8202003E07B68062283F82020044BB3F902207B689A8200BF20376E
S38500015400BD4680BD8018001090B585B000AF7860C22031F037FA0346FB73FB7B002B3ED0FB7B092B3BD8FB7B013BBB737B6893F82230BA7B9A4232D1FDF794FF0346002B17D030F0EDFF044638F050F803469C4203D9154B01225A7021E030F0E1FF044638F044F803469C4219D20F4BFF225A7015E0FDF792FF0346002B10D030F0A0FFA6
S385000154800346032B03D1084B01225A7007E030F097FF0346042B02D1034BFF225A7000BF1437BD4690BD00BF8018001080B584B000AF78600023FB7330F076FF0346BB73BB7B032B0BD17B6893F82730002B04D106F0E2FD0346002B01D00123FB73FB7B18461037BD4680BD80B582B000AF0023FB7130F089FF0346BB7130F055FF034620
S38500015500012B26D106F054FE0346002B07D006F0A1FE0346002B02D00123FB7119E0BB790A2B02D0BB790B2B0CD125F0D7FD0346002B0DD025F026FE0346002B08D00123FB7105E0BB79092B03D10123FB7100E000BFFB7918460837BD4680BD80B582B000AF0023FB7106F023FE0346002B15D006F070FE0346002B10D030F015FF03464E
S38500015580022B0BD130F028FF03460A2B04D030F023FF03460B2B01D10123FB71FB7918460837BD4680BDFFFF80B584B000AF78603B4B00225A803A4B01221A707B68012283F8292040F6B833FB60FF21002006F02FFB0346FB72FF21012006F029FB0346BB72FB7A002B02D1BB7A002B0FD0892031F048F903461A4613469B0013449B0073
S38500015600FB60FB68002B02D14FF47A63FB60FFF76BFF0346002B0AD17868FFF747FF0346002B04D1FFF79AFF0346002B17D01D4B93F88630022B0CBF01230023DBB27B727B7A002B01D0082200E002227B6883F822207B680022C3F8482100BF1BE07B68D3F82821FB681049A1FB03139B089A420AD37B680022C3F82821002000F022FBF3
S385000156807868FCF77DFC06E07B68D3F828315A1C7B68C3F8282100BF1037BD4680BD00BF801800101C1B0010CDCCCCCC80B483B000AF78607B68012283F81C21094B01221A70084B00225A807B680022C3F82C217B68022283F8222000BF0C37BD465DF8047B70478018001080B582B000AF78607B68012283F81E217B68012283F81C2177
S385000157001A4B01221A70194B00225A80202022F097FC0346002B04D027F0D2FE0346002B08D07B680022C3F830217B68032283F8222017E07B68D3F83031B3F5167F0AD37B680022C3F83021B2201EF07DFD7868FCF716FC06E07B68D3F830315A1C7B68C3F8302100BF0837BD4680BD8018001080B584B000AF78607B68012283F8202118
S385000157807B68012283F81E217B68012283F81C212C4B01221A702B4B00225A80432022F04FFC0346FB738D2022F0D2FA0346002B0CD0254B93F88630022B07D18D2022F03FFC03461A46FB7B1340FB7305F002F90346BB73BB7B002B02D0FB7B002B04D127F06EFE0346002B08D07B680022C3F834217B68042283F822201FE07B68D3F845
S385000158003431B3F5167F12D37B680022C3F83421BB7B002B03D1B3201EF016FD03E04FF449701EF011FD7868FCF7AAFB06E07B68D3F834315A1C7B68C3F8342100BF1037BD4680BD801800101C1B001080B584B000AF78603B2030F0E5FF0346FB737B68012283F81D217B68012283F820217B68012283F81E217B68012283F81C211A4BE8
S3850001588001221A70184B00225A80222022F0D8FB0346002B02D1FB7B002B08D17B680022C3F838217B68072283F8222017E07B68D3F83831B3F5167F0AD37B680022C3F83821B4201EF0C0FC7868FCF759FB06E07B68D3F838315A1C7B68C3F8382100BF1037BD4680BD00BF8018001090B585B000AF30F059FD0346012B03D14D4B01220B
S385000159001A728EE030F050FD0346032B17D130F06FFD03460C2B0ED030F06AFD0346102B09D00EF0BDFF0346002B04D12EF0DAFB0346002B03D03F4B02221A7271E03D4B00221A7230F06CFD044637F0CFFD03469C4208D3A92030F095FF03469BB25B429BB21BB204E0AA2030F08CFF03461BB2FB81314B1B6893F82730002B16D030F0FF
S385000159804FFD044637F0B2FD03469C4208D39C2030F078FF03469BB25B429BB21BB204E09D2030F06FFF03461BB2FB8130F038FD0246B7F90E3013443B6037F097FD02463B68D31ABB6000237B60932030F05AFF0346002B10D0932030F054FF034607EE903AF8EEE77A9FED157A67EE877AFCEEE77A17EE903A7B6030F012FD044637F0AD
S38500015A0075FD03469C4205D937F070FD02463B689B1ABB60BA687B689A4202D2054B03221A72044B1B7A184630F072FC00BF1437BD4690BD80180010301600106666184480B584B000AF78607B68012283F81D217B68012283F820217B68012283F81E217B68012283F81C21524B01221A70514B00225A8040F2723030F034FF0346FB60B7
S38500015A8030F092FC0346012B06D140F2733030F029FF0346FB600DE030F0AAFC0346102B08D1902030F0EEFE03461A46642303FB02F3FB607B68D3F84421FB683E49A1FB03139B089A4268D37B68002283F822207B680022C3F84421FFF708FF27F0B8FD0346002B0BD07B6800221A767B68082283F820207B680022C3F8742155E078686B
S38500015B00FFF7D4FC0346002B04D1FFF727FD0346002B15D0FDF726FC0346002B10D0FDF75DF80346002B0BD07B6800221A767B68032283F820207B680022C3F8742134E0FDF72BFC0346002B0DD0FDF711F90346002B08D07B68012283F820207B680022C3F8742121E07B68D3F8743140F6B732934207D87B68D3F874315A1D7B68C3F87E
S38500015B80742112E0072000F09DF87868FCF7F8F97B680022C3F8742107E07B68D3F844315A1C7B68C3F84421FFE700BF1037BD4680BD00BF80180010CDCCCCCC80B584B000AF78601B4B01221A701A4B00225A807B68012283F81C21BC2030F053FE0346002B0AD0BC2030F04DFE03469BB21A46920013445B009BB200E02823FB817B68F6
S38500015C00D3F84821FB899A4208D37B680022C3F848217B68012283F8222006E07B68D3F848315A1C7B68C3F8482100BF1037BD4680BD00BF8018001080B582B000AF78607868FFF7E1FB7B6893F82230082B31D801A252F823F000BF7D5C01008D5C0100955C01009D5C0100A55C0100B55C0100B55C0100AD5C0100855C01007868FFF798
S38500015C8093FC1BE07868FFF799FF17E07868FFF70DFD13E07868FFF727FD0FE07868FFF767FD0BE07868FFF7D1FD07E07868FFF7C7FE03E07868FFF777FC00BF00BF0837BD4680BD80B584B000AF0346FB713B2022F0B6F90346002B0CBF01230023DBB2FB73042022F0ACF90346002B0BD0052022F0A6F90346002B05D0062022F0A0F9FA
S38500015D000346002B01D1012300E00023BB735A2022F096F90346002B0DD15A2022F018F80346002B07D0002016F01AFE0346022B01D0012300E000237B7316F0F1FD0346002B44D03A2022F07BF90346002B0CBF01230023DBB25AB297F90F3013435BB2FB73072022F06CF90346002B0BD0082022F066F90346002B05D0092022F060F915
S38500015D800346002B01D1012300E000235AB297F90E3013435BB2BB73602022F051F90346002B0DD1602021F0D3FF0346002B07D0012016F0D5FD0346022B01D0012300E000235AB297F90D3013435BB27B73FB7B002B06D1BB7B002B03D17B7B002B00F04381FB79002B40F09E803B2022F028F90346002B04D140F229301EF025FA33E145
S38500015E00042022F01DF90346002B04D140F22A301EF01AFA28E1052022F012F90346002B04D140F22B301EF00FFA1DE1062022F007F90346002B04D140F22D301EF004FA12E13A2022F0FCF80346002B04D140F22E301EF0F9F907E1072022F0F1F80346002B04D140F22F301EF0EEF9FCE0082022F0E6F80346002B04D14FF44C701EF037
S38500015E80E3F9F1E0092022F0DBF80346002B04D140F231301EF0D8F9E6E05A2022F0D0F80346002B04D14FF44B701EF0CDF9DBE0602022F0C5F80346002B04D140F232301EF0C2F9D0E04A2022F0BAF80346002B04D140F23D301EF0B7F9C5E05E2022F0AFF80346002B04D140F23E301EF0ACF9BAE0492022F0A4F80346002B04D040F219
S38500015F003F301EF0A1F9AFE05D2022F099F80346002B04D04FF450701EF096F9A4E0B0201EF092F9A0E0FB79072B40F09D803B2022F086F80346002B04D140F233301EF083F991E0042022F07BF80346002B04D14FF44D701EF078F986E0052022F070F80346002B04D140F235301EF06DF97BE0062022F065F80346002B04D140F23630AD
S38500015F801EF062F970E03A2022F05AF80346002B04D14FF44E701EF057F965E0072022F04FF80346002B04D140F239301EF04CF95AE0082022F044F80346002B04D140F23A301EF041F94FE0092022F039F80346002B04D140F23B301EF036F944E05A2022F02EF80346002B04D140F237301EF02BF939E0602022F023F80346002B04D1EB
S385000160004FF44F701EF020F92EE04A2022F018F80346002B04D140F241301EF015F923E05E2022F00DF80346002B04D140F242301EF00AF918E0492022F002F80346002B04D040F243301EF0FFF80DE05D2021F0F7FF0346002B04D04FF451701EF0F4F802E0B6201EF0F0F800BF1037BD4680BD80B582B000AF00202FF0F8F90346012BF3
S385000160808CBF01230023DBB2BB712DF0B5F80346012B8CBF01230023DBB27B712CF04AFE0346012B8CBF01230023DBB23B71BB79002B08D07B79002B05D03B79002B02D00123FB7101E00023FB71FB7918460837BD4680BD80B586B000AF78607B2030F0A1FB0346002B0AD07A2030F09BFB0346002B04D07B68022283F82120B5E07A2012
S3850001610030F090FB0346002B04D127F0D9F90346002B04D07B68012283F82120A5E07B68D3F84C3140F2DB52934206D9B7201EF08BF87868FBF724FF97E02E2030F0A2FB034607EE903AB8EE677AF2EE046AC7EE267AC7ED057A30F027F90346012B0DD11C2030F08FFB034607EE903AB8EE677AF2EE046AC7EE267AC7ED057AD7ED057A09
S38500016180B3EE007AF4EEC77AF1EE10FA03DD4FF083437B610BE0D7ED057AB0EE007AF4EEC77AF1EE10FA02D54FF080437B617B68D3F84C3107EE903AB8EE677ADFED2D6AC7EE267AC7ED047A97ED057AD7ED047A67EE277A9FED287A67EE877AB6EE007A77EE877AFDEEE77A17EE903AFB817B68B3F914309AB2214B93F901309BB212FBD2
S3850001620003F39AB2FB89D31A9BB2BB817B68B3F91430002B07D1194B00225A807B68012283F8212021E0B7F90C30012B0ADC134B93F901301AB2114B5A807B68012283F8212012E00D4B93F901309AB2BB8912FB03F39BB21AB2094B5A807B68D3F84C315A1D7B68C3F84C21FFE700BF1837BD4680BD00BF00007A4400007042801800106C
S3850001628080B582B000AF78607B68B3F91430002B03D1214B00225A8005E030F055F803461AB21D4B5A807B2030F0BCFA0346002B04D127F005F90346002B04D07B68022283F8212024E004F091FB0346012B0ADC04F08CFB0346B3F1FF3F04DB7B68022283F8212014E07B68D3F85031B3F5967F06D9B8201DF0A8FF7868FBF741FE07E082
S385000163007B68D3F850315A1C7B68C3F85021FFE700BF0837BD4680BD8018001080B584B000AF78600023FB60234B00225A8037F0DDF802467B6803F5BE434C331A6030F033F80346032B06D140F2753030F0CAFA0346FB6005E040F2763030F0C3FA0346FB60FB6840F6B832934202D940F6B833FB607B68D3F85421FB681049A1FB03132F
S385000163809B089A420CD37B68002283F821217B680022C3F858217B68032283F8212006E07B68D3F854315A1C7B68C3F8542100BF1037BD4680BD00BF80180010CDCCCCCC80B582B000AF78607B68002283F82121194B00225A806F2030F024FA0346002B04D118F05DFA0346002B08D17B680022C3F85C217B68042283F8212017E07B684B
S38500016400D3F85831B3F5167F0AD37B680022C3F85821B9201DF018FF7868FBF7B1FD06E07B68D3F858315A1C7B68C3F8582100BF0837BD4680BD00BF8018001080B584B000AF78600023FB607B68002283F82121194B00225A802FF0A7FF0346032B06D140F2773030F03EFA0346FB6005E04FF45E7030F037FA0346FB607B68D3F85C2114
S38500016480FB680E49A1FB03139B089A4208D37B680022C3F864217B68062283F8212006E07B68D3F85C315A1C7B68C3F85C2100BF1037BD4680BD00BF80180010CDCCCCCC80B584B000AF78600023FB601E4B00225A707B68002283F820217B68002283F821217B68002283F81C21174B00225A802FF05AFF0346032B06D140F2793030F011
S38500016500F1F90346FB6005E040F27A3030F0EAF90346FB607B68D3F86431FA689A4208D87B680022C3F864217B68072283F8212006E07B68D3F864315A1D7B68C3F8642100BF1037BD4680BD8018001080B582B000AF0023FB712FF027FF0346032B07D1032006F03FF80346002B01D00123FB71FB7918460837BD4680BDFFFF80B586B0E7
S3850001658000AF786000233B617B68002283F81E21414B00225A707B68002283F820217B68002283F821217B68002283F81C213A4B00225A80432021F043FD0346FB758D2021F0C6FB0346002B0CD0344B93F88630022B07D18D2021F033FD03461A46FB7D1340FB7504F0F6F90346FB73202021F027FD0346002B05D0FB7D002B07D0FB7B3B
S38500016600002B04D026F05CFF0346002B25D07B680022C3F86C217B680022C3F824217B68092283F82120FFF791FF0346002B0FD0402030F0F7F80346002B09D17B6893F82730002B04D17B68012283F822211EE07B68002283F8222119E07B68D3F8683140F6B73293420AD97B680022C3F86821BB201DF0E9FD7868FBF782FC07E07B68F6
S38500016680D3F868315A1D7B68C3F86821FFE700BF1837BD4680BD00BF801800101C1B001080B584B000AF7860402030F0BBF80346002B40D1FFF7DCFC0346002B1DD04FF4FA73FB817B68D3F82421FB899A420CD37B680022C3F86C217B680022C3F824217B68002283F8222131E07B68D3F824315A1D7B68C3F8242129E07B680022C3F82E
S3850001670024217B68D3F86C31B3F5FA6F0BD3BC201DF09AFD7B680022C3F86C217B68002283F8222113E07B68D3F86C315A1C7B68C3F86C210BE07B680022C3F86C217B680022C3F824217B68002283F8222100BF1037BD4680BDFFFF80B582B000AF78600E4B00221A700D4B00225A800B4B00225A707B6800229A827B68002283F81C2179
S38500016780FBF742FB7B68002283F821207B68002283F8202000BF0837BD4680BD8018001080B584B000AF786040F27B3030F09AF80346FB60FB68B3F57A7F02D24FF47A73FB602FF0F1FD0346012B05D14FF45F7030F088F80346FB607B6893F82131002B03D00F4B00221A6015E0FB680D4AA2FB03239A080A4B1B689A4207D8084B0022F8
S385000168001A607B68002283F81F2104E0044B1B680133034A136000BF1037BD4680BD00BFA4180010CDCCCCCC80B584B000AF786040F27D3030F056F80346FB602FF0B4FD0346012B05D140F27E3030F04BF80346FB607B6893F81F31002B03D00E4B00221A6015E0FB680D4AA2FB03239A080A4B1B689A4207D8084B00221A607B680022FC
S3850001688083F81D2104E0044B1B680133024A136000BF1037BD4680BDA8180010CDCCCCCC80B582B000AF78607B6893F82130072B2ED801A252F823F0D9680100E1680100E9680100F9680100F16801001169010001690100096901007868FFF7FBFB1BE07868FFF7CDFC17E07868FFF717FD13E07868FFF7A3FD0FE07868FFF761FD0BE052
S385000169007868FFF7DDFD07E07868FFF737FE03E07868FFF721FF00BF00BF0837BD4680BD80B483B000AF78607B685B6843F002027B685A6000BF0C37BD465DF8047B704780B483B000AF78607B685B6803F00E027B685A6000BF0C37BD465DF8047B704780B483B000AF78600B46FB707B68DA68FB781340002B14BF01230023DBB2184617
S385000169800C37BD465DF8047B704780B483B000AF78607B689B689BB218460C37BD465DF8047B704780B483B000AF78600B467B807A887B689A6000BF0C37BD465DF8047B704780B485B000AFF860B9607A603B60FB681B6823F0FF02BB681A437B681A433B681A43FB681A6000BF1437BD465DF8047B704780B584B000AFF8600B467A60FE
S38500016A00FB72FB7A7A681946F86800F0FBF900BF1037BD4680BD80B588B000AFF8600B467A60FB720023FB7728E0FB7F5B001A467B681344BB610023BB7712E0FB7F5B00FA6813441B881A46BB7FDB001A41BB7FD2B207F120010B4403F80C2CBB7F0133BB77BB7F012BE9D907F11403BA690221184600F0C7F9FB7F0133FB77FA7FFB7A54
S38500016A809A42D2D300BF2037BD4680BD80B588B000AFF8600B467A60FB720023FB772EE01B4B1B781A46FB7F03FB02F31A467B681344BB610023BB7711E0FB7F9B00FA6813441A68BB7FDB00DA40BB7FD2B207F120010B4403F80C2CBB7F0133BB770C4B1B78BA7F9A42E8D3094B197807F11403BA69184600F086F9FB7F0133FB77FA7F98
S38500016B00FB7A9A42CCD300BF2037BD4680BD00BF9411050080B588B000AFF8600B467A60FB720023FB772EE01B4B1B781A46FB7F03FB02F31A467B681344BB610023BB7711E0FB7F9B00FA6813441A68BB7FDB00DA40BB7FD2B207F120010B4403F80C2CBB7F0133BB770C4B1B78BA7F9A42E8D3094B197807F11403BA69184600F042F91C
S38500016B80FB7F0133FB77FA7FFB7A9A42CCD300BF2037BD4680BD00BF9511050080B584B000AFF8600B467A60FB72FB7A7A681946F86800F05EF900BF1037BD4680BD80B588B000AFF8600B467A60FB7200233B7500237B750023FB771CE0FB7F5B001A467B681344BB6107F11403BA690221184600F03FF97B7D1B021AB23B7D1BB21343F5
S38500016C0019B2FB7F5B00FA6813448AB21A80FB7F0133FB77FA7FFB7A9A42DED300BF2037BD4680BD80B588B000AFF8600B467A60FB7200233B7500237B750023BB750023FB771FE0FA7F13465B0013441A467B681344BB6107F11403BA690321184600F008F9BB7D1A047B7D1B0213433A7D43EA0201FB7F9B00FA6813440A461A60FB7F7B
S38500016C800133FB77FA7FFB7A9A42DBD300BF2037BD4680BD80B588B000AFF8600B467A60FB7200237B610023FB7720E0FB7F9B001A467B681344BB6107F11403BA690421184600F0D6F8FB7D1A06BB7D1B041A437B7D1B0213433A7D43EA0201FB7F9B00FA6813440A461A60FB7F0133FB77FA7FFB7A9A42DAD300BF2037BD4680BDFFFF1A
S38500016D0080B584B000AF786039600023FB730023BB737B681B78FB727B685B78BB727B689B787B73BA7A7B7B1340DAB2FB7A9A420CBF01230023DBB23B733B7B002B02D0FB7ABB7352E0FA7ABB7A9A4203D0FB7A7A7B9A4218D1FB7ABB7307F10B033A680121184600F04EF8244A3B6813600223FB73A9202FF056FD0346002B36D040F242
S38500016D80762017F0C2FB31E0BB7A7A7B9A4218D1BB7ABB7307F10A033A680121184600F031F8164A3B6813600223FB73A9202FF039FD0346002B19D040F2762017F0A5FB14E007F10B033A680121184600F01AF80A4A3B6813600323FB732FF0A9FA0346002B03D140F2CB201DF02EFA044AFB7B1370BB7B18461037BD4680BDB0180010EA
S38500016E00AC18001080B588B000AFF8600B467A60FB720023FB7723E00023BB770CE0FB7FFA681A44BB7F127807F120010B4403F80C2CBB7F0133BB77BB7F022BEFD9FA7F7B681A4413465B001344BB6107F11403BA690321184600F061F9FB7F0133FB77FA7FFB7A9A42D7D3012318462037BD4680BD80B588B000AFF8600B467A60FB7252
S38500016E8000233B7500237B750023BB750023FB770023FB771DE0FA7F7B681A4413465B001344BB6107F11403BA690321184600F0D7F907F11403B9691846FFF721FF0346FB75FB7FFA681344FA7D1A70FB7F0133FB77FA7FFB7A9A42DDD3FB7F18462037BD4680BD80B582B000AF42F21073FB8001237B7102E0FB88013BFB80FB88002B19
S38500016F000DD010210C48FFF72BFD0346012BF2D001210948FFF724FD0346002BEBD0FB88002B04D1AC201DF08FF900237B717B7918460837BD4680BD0080084080B500AF0C4838F0D1FA01210A4838F082FA0023002207210748FFF734FD0749054838F08EFA0448FFF7ECFC0248FFF7D9FC00BF80BD00BF0080084040420F0080B582B0E1
S38500016F8000AF0023FB7102E01F48FFF7FEFC04211D48FFF7E5FC0346012BF5D0FFF7A2FF0346002B2BD000202BF064F91DE0174B1B78FA799A4214D200BF02211248FFF7CFFC0346002BF8D0FB79114A13441B789BB219460C48FFF7E5FCFB790133FB7103E0FF210848FFF7DDFC084B1B78FA799A42DCD3FFF776FF01202BF03BF900BF36
S385000170000837BD4680BD00BF00800840820000108300001080B582B000AF0346FB713A4B01221A70384AFB79537001202BF03CF9364B1B781A46364B1B7813441A46354B1A61344B0022DA60324B00225A60314B2D4A1A6002E03048FFF797FC04212E48FFF77EFC0346012BF5D0FFF787FF00BF10212948FFF774FC0346012BF8D0012112
S385000170802548FFF76DFC0346002BF1D000202BF0F1F823E01F4B5B681C4A1278934219D200BF02211C48FFF75BFC0346002BF8D0184B1B681A46174B5B6813441B789BB219461548FFF76EFC124B5B680133114A536003E0FF211048FFF764FC0D4B5A680C4B1B699A42D5D3FFF7FCFE01202BF0C1F800202BF0D8F8064B5B68DBB218467C
S385000171000837BD4680BD00BFB418001084000010B6180010B81800100080084080B588B000AFF860B9607A600023BB610423FB7789202FF077FB0346002B0ED10323FB77444B02221A707B681B0ADAB2414B5A707B68DAB23F4B9A7010E03E4B02221A707B681B0CDAB23B4B5A707B681B0ADAB2384B9A707B68DAB2364BDA70FB7FBA6842
S3850001718013447B617A69BB691344334A1361324B0022DA60304B00225A602F4AFB68136002E02E48FFF7F1FB04212C48FFF7D8FB0346012BF5D0FFF7E1FEFFF793FE0346002B3FD000202BF055F82EE0224B5B687A699A4230D900BF02212048FFF7C0FB0346002BF8D01C4B5A68FB7F9A4209D2194B5B68174AD35C9BB219461748FFF7FB
S38500017200D1FB0DE0144B1B681A46134B5B681A44FB7FD31A1B789BB219461048FFF7C2FB0D4B5B6801330C4A53600B4B5A680A4B1B699A42CAD300E000BFFFF753FE01202BF018F8044B5B68DBB218462037BD4680BD00BFCC180010D01800100080084080B588B000AFF860B9607A60BB680133BB610423FB7789202FF0D4FA0346002B64
S385000172800ED10323FB77504B03221A707B681B0ADAB24D4B5A707B68DAB24B4B9A7010E0494B03221A707B681B0CDAB2464B5A707B681B0ADAB2444B9A707B68DAB2424BDA70FB7F7B617A69BB6913443F4A13613E4B0022DA603D4B00225A603B4AFB6893603A4B384A1A6002E03948FFF74DFB04213748FFF734FB0346012BF5D0FFF73A
S385000173003DFEFFF7EFFD0346002B56D000202AF0B1FF47E02D4B5B687A699A4216D900BF02212B48FFF71CFB0346002BF8D0274B5B68254AD35C9BB219462548FFF732FB224B5B680133214A536003E0FF212048FFF728FB04211E48FFF702FB0346012B20D11B48FFF711FB03467B82174B9B68002B12D0FB7F01337B74144BDA687B7C6C
S385000173809A420AD3114B9B681A46104BDB681A447B7CD31A7A8AD2B21A700C4BDB6801330A4AD360094BDA68084B1B699A42B1D3FFF798FD01202AF05DFF044BDB68DBB218462037BD4680BDE4180010E81800100080084080B400AF054B1B789AB2054B1B8813449BB21846BD465DF8047B704700190010FE18001080B582B000AFBB1D0E
S385000174004FF40A7201211846FFF7D9FBFB8818460837BD4680BD80B582B000AF0346FB80BB1D4FF40A7201211846FFF7F4FA00BF0837BD4680BDFFFF80B500AF0E4B1B78022B16D9FFF7D8FF03461A460B4B1A80094B1B789AB2094B1B8813449AB2074B1A80064B1B881846FFF7D5FF024B00221A7000BF80BD00BF00190010FE18001061
S3850001748080B582B000AF224B1B78002B08D0204B00221A70FFF7B0FF03461A461D4B1A802EF046FF0346002B29D01B4B1B88B3F5FA7F1DD32EF048FF0346FB7197F90730002B21D0154B93F9003097F907209A421AD0124B93F90030002B05D0104B1B780133DAB20E4B1A700C4AFB7913700BE0094B1B8801339AB2074B1A8004E0064B0B
S3850001750000221A80FFF798FF00BF0837BD4680BD85000010FE18001002190010FC1800100019001080B400AF034B1B781846BD465DF8047B704700BF1019001080B582B000AF78603B1D4FF4097201211846FFF7E1FA00BF0837BD4680BD80B582B000AF3B1D4FF4097201211846FFF793FB7B6818460837BD4680BD80B483B000AF0346C0
S38500017580FB71FB79092B14D8FB79012202FA03F31A460B4B1B681343094A1360FB79012202FA03F3DB431A46064B1B681340054A136000BF0C37BD465DF8047B704700BF081900100C19001080B483B000AF0346FB71FB79092B14D8FB79012202FA03F3DB431A460A4B1B681340094A1360FB79012202FA03F31A46064B1B681343054A48
S38500017600136000BF0C37BD465DF8047B704700BF081900100C19001080B582B000AF1D4B1B78002B0BD1FFF798FF02461A4B1A60194B1B68194A1360164B01221A700023FB71154B1A68164B1B6813433B60154B1B68DB433A6813403B60104B1B683A689A4201D00123FB71FB79002B0BD03868FFF764FFFFF771FF0246074B1A60064B72
S385000176801B68064A1360386815F0F2FA00BF0837BD4680BD101900100419001014190010081900100C19001080B58CB000AF2EF03FFE0346002B40F001812021814835F0ABFF0346002B40F0F48021217D4835F0A3FF0346002B40F0EC806C21794835F09BFF0346002B40F0E480774B9B7B002B08D1764B9B7B002B04D115F081FA034664
S38500017700002B01D0142301E04FF4C873FB85704B1B8801339AB26E4B1A806D4B1B88FA8D9A4200F2CA806B4B1B781F2B5ED8694B1A7807F110031146184600F031FA654B1B780133DBB287F82430002387F825307B8BFB847B69BB6207F124031A462021584835F0BAFF5B4B1B780133DBB287F82430002387F82530B7F918309BB2FB84C1
S385000177803B69BB6207F124031A4621214D4835F0A4FF504B1B780133DBB287F82430002387F8253097F8203087F8263097F8213087F82730B7F91E309BB23B85B7F91C309BB27B8507F124031A466C213D4835F084FF20213B4835F03FFF2121394835F03BFF6C21374835F037FF58E0394B1B78203BDAB23B1D1146184600F039FA354B5D
S385000178001B780133DBB287F82430002387F82530FB89FB84BB68BB6207F124031A462021284835F05AFF2B4B1B780133DBB287F82430002387F82530B7F90C309BB2FB847B68BB6207F124031A4621211D4835F044FF204B1B780133DBB287F82430002387F82530002387F82630002387F8273000233B8500237B8507F124031A466C218C
S38500017880104835F02AFF20210E4835F0E5FE21210C4835F0E1FE6C210A4835F0DDFE0D4B1B780133DBB203F03F03DAB2094B1A7003E0074B00221A8000E000BF00BF3037BD4680BD801C0010D8210010681F00101C1900101E19001080B582B000AF0346FB71FB1D032201211846FFF78BFA00BF0837BD4680BD80B582B000AF0346FB719E
S38500017900FB1D40F2322201211846FFF77BFA00BF0837BD4680BD80B582B000AF0023FB71FB1D032201211846FFF7A3FAFB7918460837BD4680BD80B582B000AF0023FB71FB1D40F2322201211846FFF792FAFB7918460837BD4680BD80B584B000AF7860FFF7D9FF0346FB73FB7B0133DBB203F01F03BB73BA7B13461B0113440433BB601B
S385000179807B680A33BA6801211846FFF744F87B6803F10800BB6802331A460121FFF73BF87868BB6804331A460121FFF76FF87B68181DBB6807331A460121FFF7ABF87B6803F10E00BB680B331A460121FFF723F87B6803F10C00BB680D331A460121FFF71AF87B6803F11000BB680F331A460121FFF700F87B6803F11100BB6810331A46EE
S38500017A000121FEF7F7FFBB7B1846FFF765FF00BF1037BD4680BD80B584B000AF7860FFF78AFF0346FB73FB7B0133DBB203F01F03BB73BA7B13469B0013445B00134403F23323BB607B680A33BA6801211846FEF7E2FF7B6803F10800BB6802331A460121FEF7D9FF7868BB6804331A460121FFF70DF87B68181DBB6807331A460121FFF7C4
S38500017A8049F8BB7B1846FFF736FF00BF1037BD4680BD80B584B000AF0346FB710023BB60FA7913461B0113440433FB6007F10803FA6801211846FEF7AEFFFB689A1C07F1080301211846FEF7A6FFFB681A1D07F1080301211846FEF7D9FFFB68DA1D07F1080301211846FFF715F8FB6803F10B0207F1080301211846FEF78DFFFB6803F117
S38500017B000D0207F1080301211846FEF784FFFB6803F10F0207F1080301211846FEF76AFFFB6803F1100207F1080301211846FEF761FF00BF1037BD4680BD80B584B000AF0346FB710023BB60FA7913469B0013445B00134403F23323FB6007F10803FA6801211846FEF757FFFB689A1C07F1080301211846FEF74FFFFB681A1D07F1080357
S38500017B8001211846FEF782FFFB68DA1D07F1080301211846FEF7BEFF00BF1037BD4680BD80B584B000AF78600B46FB70FFF7B3FE034603F01F03BB73BA7BFB789A4204D3BA7BFB78D31AFB7305E0BA7BFB78D31ADBB22033FB73FA7B13461B0113440433BB607B680A33BA6801211846FEF7E7FF7B6803F10800BB6802331A460121FEF7D0
S38500017C00DEFF7868BB6804331A460121FFF70AF87B68181DBB6807331A460121FFF73AF87B6803F10E00BB680B331A460121FEF7C6FF7B6803F10C00BB680D331A460121FEF7BDFF7B6803F11000BB680F331A460121FEF7A3FF7B6803F11100BB6810331A460121FEF79AFF00BF1037BD4680BD80B584B000AF78600B46FB70FFF75BFE4E
S38500017C80034603F01F03BB73BA7BFB789A4204D3BA7BFB78D31AFB7305E0BA7BFB78D31ADBB22033FB73FA7B13469B0013445B00134403F23323BB607B680A33BA6801211846FEF77CFF7B6803F10800BB6802331A460121FEF773FF7868BB6804331A460121FEF79FFF7B68181DBB6807331A460121FEF7CFFF00BF1037BD4680BDFFFF54
S38500017D0080B500AF0C4B1B781846FFF7C2FE0A4B1B780133DAB2084B1A70074B1B781F2B08D90020FFF7D8FD044B00221A70024B00221A7000BF80BD191900101819001080B500AF0C4B1B781846FFF7F6FE0A4B1B780133DAB2084B1A70074B1B781F2B08D90020FFF7C7FD044B00221A70024B00221A7000BF80BD1B1900101A1900102B
S38500017D8080B582B000AF14F03BFF0346FB710F4B1B78FA799A4215D00C4AFB791370FB79FF2B06D10A4B00221A700A4B01221A7008E0FB79FE2B05D1074B00221A70074B01221A7000BF0837BD4680BD8600001019190010181900101B1900101A19001080B586B000AF274B1B78002B3DD10023FB7536E0FB7D5A1C234B83FB0213134410
S38500017E009910D317C91A0B46DB005B1AD11A0B46BB75BB7D18461CF025FD0346BB82BB8A002B16D0BB7D194A32F81330BA8A9A4214D0BA7D3B46114618461CF08DFC3B461846FFF789FDBB7D1049BA8A21F8132004E0BB7D0D4A002122F81310FB7D0133FB75FB7D062BC5D906E02EF061FA0346002B01D1FFF744FFFFF782FF00BF1837B7
S38500017E80BD4680BD18190010932449922019001080B584B000AF264B1B78002B3DD10023FB7336E0FB7B5A1C224B83FB021313449910D317C91A0B46DB005B1AD11A0B46BB73BB7B184616F0DDFB0346BB81BB89002B16D0BB7B184A32F81330BA899A4214D0BA7B3B461146184616F0A9FB3B461846FFF790FDBB7B0F49BA8921F8132077
S38500017F0004E0BB7B0C4A002122F81310FB7B0133FB73FB7B062BC5D906E02EF009FA0346002B01D1FFF70CFF00BF1037BD4680BD1A190010932449923019001080B483B000AF0346FB71FB79012202FA03F31A460A4B1B681343094A1360FB79012202FA03F3DB431A46064B1B681340044A136000BF0C37BD465DF8047B70474819001075
S38500017F804419001080B582B000AF0346FB71FB79012202FA03F31A460B4B1B6813430A4A1360FB79012202FA03F3DB431A46074B1B681340054A1360FB79184614F0BAFE00BF0837BD4680BD441900104819001080B582B000AF78603B1D4FF40B7201211846FEF797FD00BF0837BD4680BD80B582B000AF3B1D4FF40B7201211846FEF7D8
S3850001800049FE7B6818460837BD4680BD80B582B000AFFFF7ECFF0246194B1A60184B1B687B60184B1A68184B1B689A420CD0164B1B68144A1360144B1B687A6813437B607868FFF7C5FF12E0104B1A68104B1B689A420CD00E4B1B680C4A13600C4B1B68DB437A6813407B607868FFF7B1FF044B1B68184614F034FE00BF0837BD4680BD11
S385000180804019001050190010481900104C1900104419001080B400AF034B1B781846BD465DF8047B704700BF5819001080B582B000AF0346FB80BB1D4FF40C7201211846FEF7A9FC00BF0837BD4680BD80B582B000AFBB1D4FF40C7201211846FEF76FFDFB8818460837BD4680BDFFFF80B483B000AF0346FB71FB79602B10D80B4B1B88F0
S3850001810023F4FF4323F07F039AB2084B1A80FB799AB2064B1B8813439AB2044B1A8000BF0C37BD465DF8047B704700BF5419001080B400AF034B1B88DBB21846BD465DF8047B70475619001080B582B000AF164B1B78002B0CD1FFF7B9FF03461A46134B1A80124B1A88124B1A800F4B01221A700023FB710E4B1A880C4B1B889A4201D06B
S385000181800123FB71FB79002B0AD0084B1B881846FFF78CFFFFF79AFF03461A46044B1A8000BF0837BD4680BD58190010541900105619001080B400AF054B1B781A46054B1B6813441846BD465DF8047B704700BF591900105C19001080B582B000AF3B1D4FF40A7201211846FEF754FD7B6818460837BD4680BD80B582B000AF78603B1DC3
S385000182004FF40A7201211846FEF784FC00BF0837BD4680BD80B500AF0D4B1B780133DAB20B4B1A700A4B1B78022B0FD1FFF7D4FF0246074B1B781344064A1360054B1B681846FFF7D8FF024B00221A7000BF80BD591900105C19001080B500AF1C4B1B78002B07D01A4B00221A70FFF7B5FF0246184B1A602EF098F80346032B25D12EF09E
S3850001828057F80346002B1AD0134B1B78002B1CD1124B1B8801339AB2104B1A800F4B1B88B3F5FA7F11D90D4B00221A802EF040F803461A46084B1A70FFF7ACFF05E0074B00221A80044B00221A7000BF80BD00BF870000105C190010601900106219001080B500AF2EF024F80346002B0AD1FFF78DFEFFF775FDFFF7CBFDFFF78DF9FFF754
S3850001830023FF05E0FFF7C4FDFFF786F9FFF71CFFFFF7A2FFFFF7B4F891202EF083FA0346002B02D0024B05221A7000BF80BD00BF6419001080B400AF034B04221A7000BFBD465DF8047B70476419001080B582B000AF1B4B1B681A4664211A48FEF7DEFE0346FB70164B1B686433154A13604FF4FA237B6089202EF055FA0346002B02D136
S385000183804FF4FA437B600E4B1B687A689A4203D9AB201BF059FF0EE0002203210A48FEF731FD0A4B02221A70002191202EF030FB034B00221A6000BF0837BD4680BD00BF681900106C190010981105006419001080B582B000AF0023FB7180237B717B791846FEF717FE1F4B1B78022B33D83B46002203211846FEF73CFD0023BB7116E00B
S38500018400BB7907F10802134413F8082CBB791649CB5C9A4214BF01230023DBB25AB297F9073013435BB2FB71BB790133BB71BB79022BE5D9FB79002B09D00A4B1B780133DAB2084B1A70094B05221A7006E0074B03221A7002E0AD201BF0F6FE00BF0837BD4680BDD0190010981105006419001080B582B000AF78607B68C8221A817B6855
S385000184800A225A81044B01221A70FEF757FD002318460837BD4680BD6419001080B582B000AF7860124B1B78023B032B16D801A252F823F0D7840100CB840100C5840100D1840100FFF70CFF0CE0FFF733FF09E0FFF73CFF06E0FFF77BFF03E0044B02221A7000BF002318460837BD4680BD00BF6419001080B400AF034B1B881846BD4674
S385000185005DF8047B704700BFD219001080B584B000AF0346FB804FF00003FB60B7F90630002B4AD0B7F9063007EE903AF8EEE77AC7ED037AB7F90630002B1FDAD7ED037A9FED237A67EE877AC7ED037A4FF45A702EF0C8F9034607EE903AB8EEE77AD7ED036AC6EE877AC7ED037AD7ED037AB6EE007A77EEC77AC7ED037A1EE0D7ED037A6C
S385000185809FED147A67EE877AC7ED037A4FF45A702EF0A8F9034607EE903AB8EEE77AD7ED036AC6EE877AC7ED037AD7ED037AB6EE007A77EE877AC7ED037AD7ED037AFDEEE77A17EE903A1BB218461037BD4680BD0000004700FEFF4690B585B000AF0346FB804FF00003FB60B7F90630002B42D0B7F90630002B1FDAB7F906404FF45A7099
S385000186002EF070F9034603FB04F307EE903AF8EEE77AC7ED037A97ED037ADFED1C6AC7EE267AC7ED037AD7ED037AB6EE007A77EEC77AC7ED037A1EE0B7F906404FF45A702EF050F9034603FB04F307EE903AF8EEE77AC7ED037A97ED037ADFED0D6AC7EE267AC7ED037AD7ED037AB6EE007A77EE877AC7ED037AD7ED037AFDEEE77A17EEB9
S38500018680903A1BB218461437BD4690BD0000004700FEFF4680B485B000AF0346FB804FF00003FB60B7F90630002B3CD0B7F9063007EE903AF8EEE77AC7ED037AB7F90630002B18DAD7ED037A9FED1D7A67EE877AC7ED037A97ED037ADFED1A6AC7EE267AC7ED037AD7ED037AB6EE007A77EEC77AC7ED037A17E0D7ED037A9FED137A67EE05
S38500018700877AC7ED037A97ED037ADFED0E6AC7EE267AC7ED037AD7ED037AB6EE007A77EE877AC7ED037AD7ED037AFDEEE77A17EE903A1BB218461437BD465DF8047B7047000000470000C84200FEFF4680B584B000AF2DF005FE0346BB81B7F90C301846FFF7D4FE03467B816E4BB3F9B8301846FFF790FF03463B810523FB710A23BB71D5
S38500018780684BFA2283F85420664B052283F855200323FB73644B9B7B002B60D12DF0C8FD0346002B53D079202EF03CF80346002B03D0FB7B43F04003FB732DF0C5FD0346B3F1FF3F04D1FB7B43F01003FB7308E02DF0BAFD0346012B03D1FB7B43F02003FB73F9F74BFA0346002B03D0FB7B43F00403FB732DF09CFD0346002B20D0F9F746
S3850001880075FA0346082B1BD1484B1B78FA799A420FD8474B1B78BA799A421FD9FB7B63F07F03FB73424B1B780133DAB2404B1A7014E03E4B1B780133DAB23C4B1A700DE03A4B00221A703A4B00221A7007E0374B00221A70364B00221A7000E000BF314B93F88E30002B03D0FB7B43F00803FB732C4AFB7B82F856302A4B002283F8572079
S3850001888097F90F30002B15DAFB7B03F00403002B10D1284B14221A80B7F908301B121BB2DAB2204B83F858203B89DAB21D4B83F859202CE0F9F71AFA0346082B1AD11B4B1B78FA799A4215D8FB7B03F00403002B10D1184B14221A80B7F908301B121BB2DAB2104B83F858203B89DAB20D4B83F859200CE0B7F90A301B121BB2DAB2094BEE
S3850001890083F858207B89DAB2064B83F85920054B002283F85A20034B07221A6500BF1037BD4680BD1C1B0010D8210010D6190010D7190010D419001080B400AF00BFBD465DF8047B7047FFFF80B582B000AF7F4B93F8273003F04003002B40F0B8807B4B93F8263003F01003002B04D0774B022283F88920BAE0754B93F8263003F0200379
S38500018980002B04D0714B032283F88920AEE06F4B93F8263003F04003002B04D06B4B042283F88920A2E0694B93F826305BB2002B04DA664B102283F8892097E0634B93F8273003F00103002B04D0604B052283F889208BE05D4B93F8273003F00203002B04D05A4B062283F889207FE0574B93F8273003F00403002B04D0544B072283F8EB
S38500018A00892073E0514B93F8273003F00803002B04D04E4B082283F8892067E04B4B93F8273003F02003002B04D0484B092283F889205BE0454B93F8283003F00103002B04D0424B0A2283F889204FE03F4B93F8283003F00203002B04D03C4B0B2283F8892043E0394B93F8283003F00403002B04D0364B0C2283F8892037E0334B93F879
S38500018A80283003F00803002B04D0304B0D2283F889202BE02D4B93F8283003F00103002B04D02A4B0E2283F889201FE0274B93F8283003F00203002B04D0244B0F2283F8892013E0214B012283F889200EE01F4B93F827305BB2002B04DB1C4B012283F8892003E0194B002283F88920184B1B88002B06D0164B1B88013B9AB2144B1A805A
S38500018B0014E0124B93F829301B021AB20F4B93F82A301BB21343FB80B7F906301846FFF75BFD03461A46094BA3F88420074B93F828309B11DBB203F00103DAB2034B83F88D2000BF0837BD4680BD00BF1C1B0010D419001080B582B000AF2823FB7199E0FB79013BFB71534B1B6A272B0DD9514B00221A624F4B002283F84D204E4B1B88A6
S38500018B8001339AB24C4B1A8084E04A4B1B6A5A1C48490A62B979474A13440A4683F82420444B93F84D30002B17D1BB79FA2B0CD1BA79404B83F84E203E4B93F84D300133DAB23C4B83F84D2064E03A4B00221A62384B002283F84D205CE0364B93F84D30012B26D1BB79052B15D1324B93F84E20BB791344DAB22F4B83F84E202D4B93F843
S38500018C004D300133DAB22B4B83F84D20294B082283F84C203EE0274B00221A62254B002283F84D20244B1B8801339AB2224B1A8030E0204B93F84C30002B11D01D4B93F84E20BB791344DAB21A4B83F84E20194B93F84C30013BDAB2164B83F84C2019E0144B93F84E20BB799A4206D0124B1B8801339AB2104B1A8005E0FFF765FE0D4B7B
S38500018C800022C3F880200B4B00221A62094B002283F84D20BB1D184601F00EFC0346002B03D0FB79002B7FF45BAF00BF0837BD4680BD00BF1C1B0010D219001080B582B000AF0023FB710023BB710AE0BB79194A134493F85420FB791344FB71BB790133BB71BA79134B1B6D9A42EFD3114B93F8BC30002B0AD0FB790133FB710D4B93F8AF
S38500018D00BC30013BDAB20B4B83F8BC20094B1B6D5A1C08490A65074A1344FA7983F85420044B1B6D1946044801F0A8FB00BF0837BD4680BD1C1B0010701B001080B483B000AF78607B68022283F886207B68084A1A607B68074A5A607B68074A9A607B68064ADA6000BF0C37BD465DF8047B70474D87010039890100BD8C0100558B010098
S38500018D8080B400AF034B1B881846BD465DF8047B704700BFD819001080B582B000AF80202DF040FD0346002B2FD01A4B93F826300A2B2AD1174B93F82730002B25D1154B93F828309BB21B02FB80124B93F829309AB2FB881343FB800E4B93F82A301B043B600C4B93F82B301B021A463B6813433B60084B93F82C301A463B6813433B6011
S38500018E00FB883968184601F019FA00BF0837BD4680BD00BF1C1B001080B582B000AF80202DF000FD0346002B2FD01A4B93F82630062B2AD1174B93F82730002B25D1154B93F828309BB21B02FB80124B93F829309AB2FB881343FB800E4B93F82A301B043B600C4B93F82B301B021A463B6813433B60084B93F82C301A463B6813433B608A
S38500018E80FB883968184601F0D9F900BF0837BD4680BD00BF1C1B001080B582B000AF204B93F8263003F00103002B10D01C4B93F82930002B06D01A4B93F82920184B83F88A2008E0164B012283F88A2003E0144B002283F88A20124B93F826305B08DBB203F00103DAB20E4B83F88D200C4B93F82B301B021AB20A4B93F82C301BB21343A0
S38500018F00FB80B7F90630184601F05CFE03461A46034BA3F8842000BF0837BD4680BD00BF1C1B001080B582B000AF2BF085F80346FB80334B00221A65314B1B6D5A1C30490A652F4A1344FA2283F854202C4B1B6D5A1C2B490A652A4A1344012283F85420274B1B6D5A1C26490A65254A13440A2283F85420224B1B6D5A1C21490A65204A86
S38500018F801344002283F854201D4B1B6D5A1C1C490A651B4A1344002283F85420184B1B6D5A1C17490A65164A1344002283F85420134B1B6D5A1C12490A65114A1344002283F85420FB881B0A98B20D4B1B6D5A1C0B490A65C1B20A4A13440A4683F85420074B1B6D5A1C06490A65FA88D1B2044A13440A4683F8542000BF0837BD4680BD7D
S385000190001C1B001080B582B000AF2BF015F80346FB802BF01DF83860384B00221A65374B1B6D5A1C35490A65344A1344FA2283F85420324B1B6D5A1C30490A652F4A1344032283F854202D4B1B6D5A1C2B490A652A4A1344062283F85420FB881B0A98B2264B1B6D5A1C25490A65C1B2234A13440A4683F85420214B1B6D5A1C1F490A65F0
S38500019080FA88D1B21D4A13440A4683F854203B68180E1A4B1B6D5A1C18490A65C1B2174A13440A4683F854203B68180C134B1B6D5A1C12490A65C1B2104A13440A4683F854203B68180A0D4B1B6D5A1C0B490A65C1B20A4A13440A4683F85420074B1B6D5A1C06490A653A68D1B2044A13440A4683F8542000BF0837BD4680BD1C1B0010DA
S3850001910080B582B000AF01F0EBFC0346BB8001F095FC03467B802A4BFA2283F85420284B022283F855200023FB71FB7943F00403FB71244B9B7B002B0CD1F8F79FFD0346002B07D0FB7943F00103FB71FB7943F02003FB711A4B93F88E30002B03D0FB7943F00203FB71164AFB7982F85630144B002283F85720B7F904301B121BB2DAB2DB
S385000191800F4B83F85820BB88DAB20D4B83F859200B4B012283F85A20B7F902301B121BB2DAB2074B83F85B207B88DAB2044B83F85C20034B09221A6500BF0837BD4680BD1C1B0010D821001080B582B000AF2DF0AFF80346002B06D0294B00221A70294BC8221A7015E0274B1B78002B09D0244B00221A70234B1B78013BDAB2214B1A7083
S3850001920007E02DF0D1F80346012B02D01C4B00221A7080202DF006FB0346002B2AD0184B1B78012B02D1FFF77DFE0BE0144B1B78022B02D1FFF7E6FE04E0FFF761FF104B00221A702AF0ECFE0346FB71FB79012B03D10B4B01221A700EE0FB79022B03D1074B02221A7007E001F016F8044B00221A7001E0FFF744FF00BF0837BD4680BD6A
S38500019280DA190010DB19001080B400AF00BFBD465DF8047B7047FFFF80B500AF0A4B93F82530022B07D0032B08D0012B00D008E0FFF772FD05E0FFF7EFFD02E0FFF7ACFD00BF00BF80BD00BF1C1B001080B582B000AF0023FB71B4E0BB1D184601F0ECF80346002B00F0A7805A4B1B6A272B0DD9584B00221A62574B002283F84D20564BFE
S385000193001B8801339AB2544B1A8097E0514B1B6A5A1C50490A62B9794E4A13440A4683F824204C4B93F84D30002B13D1BB79FA2B0CD1BA79474B83F84E20464B93F84D300133DAB2434B83F84D2077E0414B00221A6273E03F4B93F84D30012B39D13D4B93F84E20BB791344DAB23A4B83F84E20384B93F84D300133DAB2364B83F84D2090
S38500019380BB79013B032B15D801A252F823F000BFA1930100AB930100A1930100AB9301002C4B072283F84C2048E02A4B0D2283F84C2043E0274B00221A62264B002283F84D20254B1B8801339AB2234B1A8000BF34E0204B93F84C30002B11D01D4B93F84E20BB791344DAB21A4B83F84E20194B93F84C30013BDAB2164B83F84C201DE022
S38500019400144B93F84E20BB799A4206D0124B1B8801339AB2104B1A8005E0FFF73DFF0D4B0022C3F880200B4B00221A62094B002283F84D2002E02823FB7106E0FB790133FB71FB79272B7FF647AF00BF0837BD4680BD00BF1C1B0010D819001080B582B000AF0023FB710023BB710AE0BB79204A134493F85420FB791344FB71BB7901337A
S38500019480BB71BA791A4B1B6D9A42EFD3184B93F8BC30002B0AD0FB790133FB71144B93F8BC30013BDAB2124B83F8BC20104B1B6D5A1C0F490A650E4A1344FA7983F854200B4B1B6D002B0ED0094B1B6D1946094800F0D4FF3860064B1B6D3A689A4202D0034B1B6D3B6000BF0837BD4680BD00BF1C1B0010701B001080B483B000AF7860D0
S385000195007B68002283F886207B68084A1A607B68074A5A607B68074A9A607B68064ADA6000BF0C37BD465DF8047B7047C9910100899201005D940100CD92010080B400AF034B1B881846BD465DF8047B704700BFE219001080B485B000AF78600B46FB707B681B78FB730123BB7309E0BB7B7A6813441A78FB7B5340FB73BB7B0133BB73C8
S38500019580BA7BFB789A42F1D3FB7B1F2B02D8FB7B2033FB73FB7B18461437BD465DF8047B704780B485B000AF78600B467B8004237B730023BB731DE07A88BB7B9B0042FA03F3DBB203F00F03FB73FB7B092B03D8FB7B3033FB7302E0FB7B3733FB737A7BBB7BD31A013B7A681344FA7B1A70BB7B0133BB73BA7B7B7B9A42DDD300BF143719
S38500019600BD465DF8047B704780B485B000AF7860396008237B730023BB731DE0BB7B9B003A6822FA03F3DBB203F00F03FB73FB7B092B03D8FB7B3033FB7302E0FB7B3733FB737A7BBB7BD31A013B7A681344FA7B1A70BB7B0133BB73BA7B7B7B9A42DDD300BF1437BD465DF8047B704780B485B000AF0346FB71FB792F2B06D9FB79392B1F
S3850001968003D8FB79303BFB730BE0FB79402B06D9FB79462B03D8FB79373BFB7301E0FF23FB73FB7B18461437BD465DF8047B704780B582B000AF0323FB710C23BB71254B042283F85420234B462283F85520214B462283F856201F4B472283F857201D4B312283F858202AF0A7FC03463B603B689BB219461848FFF754FF184B1B68043324
S38500019700164A1360134B302283F85D20114B312283F85E200F4B052283F85F20FB7950330C4A1344181DBA79FB79D31ADBB21946FFF710FF03461A46064B83F86020054B0D221A65054B0D221A6000BF0837BD4680BD00BF1C1B0010751B0010DC19001080B584B000AF0423FB731523BB732E4B042283F854202C4B462283F855202A4B2C
S38500019780462283F85620284B022283F85720264B482283F85820244B322283F859202AF04BFC03467B602AF053FC0346BB607B689BB219461D48FFF7F4FE1D4B1B6804331B4A1360BB6819461A48FFF71DFF184B1B680833164A1360134B302283F86620114B312283F867200F4B032283F86820FB7B50330C4A1344181DBA7BFB7BD31A92
S38500019800DBB21946FFF7A6FE03461A46064B83F86920054B16221A65054B16221A6000BF1037BD4680BD00BF1C1B0010761B0010DC1900107A1B001080B582B000AF674B042283F85420654B462283F85520634B462283F85620614B022283F857205F4B782283F858205E4B1A785C4B83F859200023FB802CF074FD03467B80574B93F866
S385000198808E30002B07D0FB8843F00203FB80FB8843F48063FB802CF0ABFD0346102B03D1FB8843F40063FB804E4B9B7B002B2FD1F8F7C8F90346002B03D0FB8843F00103FB80F8F7DBF90346002B21D023F0DEFE0346002B08D0FB8843F00403FB80FB8843F00803FB8013E02CF02EFD0346012B04D1FB8843F00403FB8009E02CF024FDE0
S385000199000346B3F1FF3F03D1FB8843F00803FB8000F0EEFE0346002B07D0FB8843F00103FB80FB8843F00403FB80FB8819462E48FFF737FE7B8819462C48FFF732FE274BB3F9B8309BB219462948FFF72AFE00212848FFF726FE214B032283F86A201F4B93F858307B7105233B710AE03B791B4A134493F854207B7953407B713B7901331F
S385000199803B713B79162BF1D97B791F2B02D87B7920337B71114A7B7982F86B300F4B93F8BC30002B0FD00D4B93F86B300133DAB20A4B83F86B20094B93F8BC30013BDAB2064B83F8BC20054B18221A650A4B18221A6000BF0837BD4680BD00BF1C1B0010A8000010D8210010761B00107A1B00107E1B0010821B0010DC19001080B582B078
S38500019A0000AF2CF095FC0346002B06D0294B00221A70294BC8221A7015E0274B1B78002B09D0244B00221A70234B1B78013BDAB2214B1A7007E02CF0B7FC0346012B02D01C4B00221A7080202CF0ECFE0346002B2AD0184B1B78012B02D1FFF729FE0BE0144B1B78022B02D1FFF77AFE04E0FFF7E3FE104B00221A702AF0D2FA0346FB717B
S38500019A80FB79012B03D10B4B01221A700EE0FB79022B03D1074B02221A7007E000F0FCFB044B00221A7001E0FFF7C6FE00BF0837BD4680BDE4190010E519001080B400AF00BFBD465DF8047B7047FFFF80B582B000AF124B93F82A301A46104B93F829301B021A430D4B93F828301B041A430B4B93F827301B0613437B6080202CF092FE9C
S38500019B000346002B06D02AF097FA03467968184600F094FB00BF0837BD4680BD1C1B001080B485B000AF03460A46FB801346BB800023FB73FB88DBB2FB80FB88002B79D0FB88002B05D0FB88062B02D8FB88FB7370E0FB88072B05D9FB88092B02D8FB88FB7367E0FB88072B05D9FB88092B02D8FB88FB735EE0FB880B2B05D9FB88102B34
S38500019B8002D8FB88FB7355E0FB88112B05D9FB88132B02D8FB88FB734CE0FB88162B05D9FB88232B02D8FB88FB7343E0FB88262B05D9FB883C2B02D8FB88FB733AE0FB885D2B02D1FB88FB7334E0FB88952B05D9FB889A2B02D8FB88FB732BE0FB889B2B05D9FB88A62B02D8FB88FB7322E0FB88C82B02D1FB88FB731CE0FB88CA2B02D13C
S38500019C00FB88FB7316E0FB88CE2B02D1FB88FB7310E0FB88D02B02D1FB88FB730AE0FB88D82B02D1FB88FB7304E0FB88DE2B01D1FB88FB73FB7B002B06D1BB8803F00403002B01D1FB23FB73044AFB7B82F88B3000BF1437BD465DF8047B70471C1B001080B586B000AF264B93F828301A46244B93F827301B0213437B61214B93F82A3048
S38500019C801A461F4B93F829301B0213433B611C4B93F82C301A461A4B93F82B301B021343FB60174B93F82E301A46154B93F82D301B021343BB607B69FB803B69BB80FB687B80BB683B803B8803F00803002B04D00B4B012283F88D2003E0094B002283F88D20074ABB88A2F884303A88FB8811461846FFF715FF00BF1837BD4680BD00BF09
S38500019D001C1B001080B500AF074B1B78782B02D1FFF7A6FF05E0044B1B78472B01D1FFF7D5FE00BF80BD00BFE019001080B582B000AF0023FB713AE27B1D184600F0BCFB0346002B00F02D82994B1B6A272B0DD9974B00221A62964B002283F84D20954B1B8801339AB2934B1A801DE27B7903F07F03DBB27B718E4B93F84D30002B17D156
S38500019D807B79022B10D18A4B1B6A7979884A13440A4683F82420864B93F84D300133DAB2834B83F84D20FFE1814B00221A62FBE17F4B93F84D30012B6CD17B79782B2DD17A797D4B1A707A4B102283F84C20784B1B6A0133764A1362754B1B6A272B08D9734B00221A62734B1B8801339AB2714B1A806F4B1B6A79796D4A13440A4683F8A8
S38500019E0024207A796A4B83F84E20694B93F84D300133DAB2664B83F84D20C5E17B79472B2DD17A79644B1A70614B082283F84C205F4B1B6A01335E4A13625D4B1B6A272B08D95B4B00221A625A4B1B8801339AB2584B1A80564B1B6A7979554A13440A4683F824207A79524B83F84E20504B93F84D300133DAB24E4B83F84D2094E14E4B4D
S38500019E8000221A704A4B00221A62494B002283F84D2089E1464B93F84D30022B3FD17B792F2B2ED97B793F2B2BD8414B1B6A01333F4A13623E4B1B6A272B08D93C4B00221A623C4B1B8801339AB23A4B1A80384B1B6A7979364A13440A4683F82420344B93F84E207B795340DAB2314B83F84E202F4B93F84D300133DAB22D4B83F84D2004
S38500019F0052E12B4B00221A62294B002283F84D20284B1B8801339AB2264B1A8044E1244B93F84D30032B7CD17B791846FFF79EFB0346BB71BB790F2B65D81D4B93F84E207B795340DAB21A4B83F84E20184B93F84C3003F00103DBB2002B31D0174B1B781B01DAB2154B1A70144B1A78BB791343DAB2124B1A700E4B1B6A01330C4A13622E
S38500019F800B4B1B6A272B08D9094B00221A62094B1B8801339AB2074B1A80054B1B6A074A1178034A13440A4683F824200BE000BF1C1B0010E2190010E0190010E61900107F4ABB7913707F4B93F84C30013BDAB27C4B83F84C207B4B93F84C30002B40F0E380794B1B78472B04D1764B052283F84D20D9E0734B93F84D300133DAB2714BC6
S3850001A00083F84D20D0E06F4B00221A626D4B002283F84D206D4B1B8801339AB26B4B1A80C2E0684B93F84D30042B3CD17B79302B2BD1644B1B6A0133624A1362614B1B6A272B08D95F4B00221A62604B1B8801339AB25E4B1A805B4B1B6A7979594A13440A4683F82420574B93F84E207B795340DAB2544B83F84E20524B93F84D3001339D
S3850001A080DAB2504B83F84D208EE04E4B00221A624C4B002283F84D204C4B1B8801339AB24A4B1A8080E0474B93F84D30052B3CD17B79032B2BD1434B1B6A0133414A1362404B1B6A272B08D93E4B00221A623F4B1B8801339AB23D4B1A803A4B1B6A7979384A13440A4683F82420364B93F84E207B795340DAB2334B83F84E20314B93F867
S3850001A1004D300133DAB22F4B83F84D204CE02D4B00221A622B4B002283F84D202B4B1B8801339AB2294B1A803EE0264B93F84E301F2B07D8234B93F84E302033DAB2214B83F84E201F4B93F84E207B799A4206D01E4B1B8801339AB21C4B1A8019E0FFF7D1FD184B0022C3F88020164B1B6A0133144A1362134B1B6A272B02D9114B0022B6
S3850001A1801A62104B1B6A79790E4A13440A4683F824200C4B00221A620A4B002283F84D2002E02823FB7106E0FB790133FB71FB79272B7FF6C1AD00BF0837BD4680BD00BFE61900101C1B0010E0190010E219001080B582B000AF064B1B681946054800F04DF90346FB7100BF0837BD4680BD00BFDC190010701B001080B483B000AF786049
S3850001A2007B68012283F886207B68084A1A607B68074A5A607B68074A9A607B68064ADA6000BF0C37BD465DF8047B7047FD990100BD9A0100D1A101002D9D010080B582B000AF03463960FB800F4B1B683A689A4212D129F0F1FE03461A46FB8893420BD129F0DEFE03461A46084B1A70084AFB881380084A3B681360034A3B68136000BFB8
S3850001A2800837BD4680BD00BFF0190010E7190010E8190010EC19001080B400AF064B00221A70064B00221A60054B00221A8000BFBD465DF8047B7047E7190010EC190010E819001080B400AF034B1B781846BD465DF8047B704700BFE719001080B400AF034B1B881846BD465DF8047B704700BFE819001080B400AF034B1B681846BD464A
S3850001A3005DF8047B704700BFEC19001080B483B000AF0346FB71FB7903F01F03012202FA03F1064A97F907305B0942F8231000BF0C37BD465DF8047B704700BF00E100E080B483B000AF78607B680C331A687B6810331B68D31A18460C37BD465DF8047B704790B583B000AF78607B685C687868FFF7E6FF0346E31A18460C37BD4690BD29
S3850001A38080B483B000AF78607B680C331A687B6810331B689A420CBF01230023DBB218460C37BD465DF8047B704780B483B000AF786039607B685A683B681A437B685A6000BF0C37BD465DF8047B704780B483B000AF786039607B685A683B68DB431A407B685A6000BF0C37BD465DF8047B704780B483B000AF78607B685B6818460C376F
S3850001A400BD465DF8047B704780B483B000AF786039607B683A689A6000BF0C37BD465DF8047B704780B483B000AF786039607B683A68DA6000BF0C37BD465DF8047B704780B483B000AF786039607B681A693B68DB431A407B681A6100BF0C37BD465DF8047B704780B483B000AF78607B685B6918460C37BD465DF8047B704780B584B0B8
S3850001A48000AF786039600023FB600948FFF769FF02463B68934205DC3B687A680449054835F09DFAFB6818461037BD4680BD00BFF41900100000014080B582B000AF78600948FFF75DFF0346002B08D17968064834F0A7FE0346002B01D0012300E0002318460837BD4680BD081A001080B582B000AF4FF4E1337B60AB202CF0C3F90346A2
S3850001A500FB70FB78012B03D14FF416537B6013E0FB78022B03D14FF496437B600CE0FB78032B03D14FF416437B6005E0FB78042B02D14DF6CC037B607B6818460837BD4680BDFFFF80B582B000AF0346FB71374835F09CF9FB79012B04D0022B36D0002B1BD04CE0FFF7C2FF034619462F4835F066FA1A212D48FFF755FF01212B48FFF767
S3850001A58043FF40212948FFF75BFF02212748FFF757FF264835F0B6F931E04FF49641234835F04DFA03212148FFF73CFF01211F48FFF72AFF40211D48FFF742FF02211B48FFF73EFF194835F09DF918E04FF49641164835F034FA03211448FFF723FF01211248FFF711FF40211048FFF729FF02210E48FFF725FF0D4835F084F900BF8023F6
S3850001A60001220B490B4834F02FFD802301220A490A4834F029FD03210448FFF7C6FE0620FFF774FE00BF0837BD4680BD000001401C1A0010081A00109C1A0010F419001080B582B000AF1548FFF7D2FE034603F002037B601148FFF705FF034603F020033B607B68002B06D03B68002B03D00C490A4835F094F90A48FFF782FE0346002BB6
S3850001A68003D002210548FFF7A1FE0649034835F069F900BF0837BD4680BD00BF00000140F4190010081A001080B582B000AF0023FB800E4B93F88630012B08D0022B0BD0002B0ED1FEF75CFB0346FB8009E0FEF735FF0346FB8004E0FDF70CFF0346FB8000BFFB8818460837BD4680BD1C1B001080B400AF034B93F8BB301846BD465DF819
S3850001A700047B70471C1B001080B500AF114B002283F8BB20052027F02BFC0346002B17D02BF042FE0346012B09D12BF06DFE0346092B04D1074B012283F8BB2008E02BF0F7FD0346002B03D14FF4837019F07CFD00BF80BD1C1B001080B400AF044B002283F8BC2000BFBD465DF8047B704700BF1C1B001080B582B000AF294B0022A3F813
S3850001A780B8202BF0D5FD0346002B30D087202CF079F80346FB71FB79012B07D129F070FC03461AB21E4BA3F8B82020E0FB79022B07D128F087FE03461AB2194BA3F8B82015E0BE202CF02EF80346002B0BD084202CF058F803463B7097F900301AB2104BA3F8B82003E00E4B0022A3F8B8200C4BB3F9B830642B04DD094B6422A3F8B82005
S3850001A8000AE0074BB3F9B83013F1640F04DA044B4FF69C72A3F8B82000BF0837BD4680BD1C1B001080B582B000AF0023FB71144B9B7B002B03D0134B00221A701AE02BF077FD0346002B07D00E4B1B78002B03D10C4B01221A700DE00A4B1B78002B09D02BF066FD0346002B04D1064B00221A700123FB71FB7918460837BD4680BD00BFF0
S3850001A880D8210010DD1B001080B500AFFFF7CAFF0346002B15D00C4B93F8BA30092B10D80A4B1B780133DAB2084B1A70074B1B78012B06D9054B00221A70034B002283F8BA2000BF80BD00BF1C1B0010DE1B001080B500AF3A202BF0A5FF0346002B45D1364B002283F88E20354B1B78002B19D1324B93F88830022B10D1324B1B88B3F50A
S3850001A900966F04D32D4B012283F88E200DE02D4B1B8801339AB22B4B1A8006E0294B00221A8002E06A2013F0F0FD274B1B78002B15D1224B93F88E30002B10D01F4B93F8BA30092B03D91E4B01221A7007E01B4B93F8BA300133DAB2184B83F8BA20174B93F88E20184B1A70FFF78EFF134B93F88630022B18D1154B1B88002B06D0134BEE
S3850001A9801B88013B9AB2114B1A800DE0104B1B88002B09D00E4B1B88013B9AB20C4B1A80064B012283F88E20044B93F88E30002B02D0692013F0A9FD00BF80BD1C1B0010DC1B0010E01B0010E21B0010D8000010DA00001080B400AF034B93F88D301846BD465DF8047B70471C1B001080B582B000AF0023FB80104BB3F88430FB809B20E3
S3850001AA002BF010FF0346002B0FD182202BF03AFF0346012B09D12BF097FC0346B3F1FF3F03D1FB885B429BB2FB80B7F9063018460837BD4680BD00BF1C1B001080B483B000AF234BB3F9B830002B1DDA204BB3F9B8305B4207EE903AF8EEE77AC7ED007A97ED007ADFED1B6AC7EE267AC7ED007AD7ED007A9FED187A67EE877AFDEEE77AD4
S3850001AA8017EE903A7B601BE0114BB3F9B83007EE903AF8EEE77AC7ED007A97ED007ADFED0D6AC7EE267AC7ED007AD7ED007A9FED0B7A67EE877AFDEEE77A17EE903A7B607B681BB218460C37BD465DF8047B70471C1B00100000C842000000C60000004680B584B000AF4FF45A702BF0FBFE03467B812BF035FC0346002B2CDA2BF030FC60
S3850001AB0003461A466FF0630303FB02F307EE903AF8EEE77AC7ED017A7B8907EE903AB8EEE77AD7ED016AC6EE877AC7ED017AD7ED017A9FED217A67EE877AFDEEE77A17EE903AFB60FB681D4A82FB03125211DB17D31AFB602AE02BF003FC03461A46642303FB02F307EE903AF8EEE77AC7ED017A7B8907EE903AB8EEE77AD7ED016AC6EE07
S3850001AB80877AC7ED017AD7ED017A9FED0D7A67EE877AFDEEE77A17EE903AFB60FB68074A82FB03125211DB17D31AFB60FB681BB218461037BD4680BD000000C61F85EB510000004680B586B000AF0346FB804FF45A702BF087FE034607EE903AF8EE677AC7ED047AB7F9063007EE903AF8EEE77AC7ED037AD7ED037AF5EEC07AF1EE10FA2C
S3850001AC0020D5D7ED037A9FED257A67EE877AC7ED057A97ED057AD7ED047A67EE277AC7ED057A97ED057ADFED1E6AC7EE267AC7ED057A97ED057ADFED1B6AC7EE267AC7ED057A1FE0D7ED037A9FED167A67EE877AC7ED057A97ED057AD7ED047A67EE277AC7ED057A97ED057ADFED0F6AC7EE267AC7ED057A97ED057ADFED0A6AC7EE267AFF
S3850001AC80C7ED057AD7ED057AFDEEE77A17EE903A1BB218461837BD4680BD00BF0000C8C2000000C60000C8420000004680B500AF28220021114835F032F928220021104835F02DF90F4B002283F87D200D4B00221A650C4B002283F84D200A4B00221A62084B002283F88820064B0022A3F88420044B002283F88D2000BF80BD401B001072
S3850001AD00701B00101C1B001080B582B000AF114BDB6898470F4B5B6898477B202BF0B2FD0346FB710C4B1B780133DAB20A4B1A70094B1B78FA799A4208D8074B00221A70044B1B689847034B9B68984700BF0837BD4680BD1C1B0010E31B001080B400AF044B022283F8872000BFBD465DF8047B704700BF1C1B001080B400AF044B01220F
S3850001AD8083F8872000BFBD465DF8047B704700BF1C1B001080B582B000AF0123FB71F6F7B3FF0346BB71BB79002B0AD0BB79062B07D0BB79022B07D1F6F76EFF0346002B02D10023FB7107E001200DF0D7FA0346002B01D00023FB71FB7918460837BD4680BD80B582B000AF0023FB71F6F78CFF0346BB71BB79002B0FD0BB79062B04D13A
S3850001AE00F6F720FF0346002B07D0BB79022B0CD1F6F734FF0346002B07D101200DF0AEFA0346002B01D10123FB71FB7918460837BD4680BD80B582B000AFF6F765FF0346FB71F6F71BFF0346BB7143201DF0F8F803467B712BF0CCFA0346172B10D12BF0A3FA0346032B0BD111F0F6FA0346122B04D011F0F1FA0346132B01D1012300E0C4
S3850001AE8000233B710DF0D0FA03461A463B7913433B71FFF72DFC0346002B40F0908022F00FFB0346002B40F08A80BB79002B3DD0FFF770FF0346002B38D0434B00221A807B79002B15D13B79002B12D13F4B1B8801339AB23D4B1A803C4B1B88B3F5C87F23D33A4B00221A8040F20B1019F0ACF91BE0374B93F88D30002B12D1334B1B884D
S3850001AF0001339AB2314B1A80304B1B88B3F5C87F52D32E4B00221A804FF4857019F094F94AE02A4B00221A8046E045E0BB79002B3BD1FFF756FF0346002B36D0234B00221A807B79002B14D03B79002B11D11E4B1B8801339AB21C4B1A801B4B1B88C72B22D9194B00221A8040F2091019F06CF91AE0174B93F88D30002B11D0124B1B882F
S3850001AF8001339AB2104B1A800F4B1B88C72B15D90D4B00221A804FF4847019F055F90DE0094B00221A8009E008E0084B00221A80054B00221A8002E000BF00E000BF00BF0837BD4680BD00BFE41B0010E61B00101C1B001080B582B000AF454BD3F88030C82B0ED94FF4AB7019F02EF9404B012283F88820FFF75AFE3D4B0022C3F880201C
S3850001B00071E03B4BD3F880300133394AC2F88030374B93F88A30002B1BD0354B93F88630002B16D1324B93F88A309BB203F5B373FB80FB88B3F5D77F02D940F2CA23FB80FB88184619F000F9294B022283F8882049E0274B93F88B30002B1CD0244B93F88630012B17D1224B93F88B309BB203F5D773BB80BB8840F28D22934202D940F22B
S3850001B080CA23BB80BB88184619F0DEF8184B022283F8882027E0164B93F88930002B1BD0134B93F88630022B16D1114B93F889309BB203F5AB737B807B88B3F5B37F02D940F2CA237B807B88184619F0BDF8084B022283F8882006E0054B002283F88820FFF7A8FEFFE700BF0837BD4680BD00BF1C1B001080B500AF61201CF0A1FF03465E
S3850001B100002B0ED0094B1B883B2B03D9FE2019F09BF809E0054B1B8801339AB2034B1A8002E0024B00221A8000BF80BDE81B001080B582B000AF78607B680A221A817B6805225A81184B0022C3F88020164B002283F8BA20144B002283F8BC2082202BF091FB03461A46104B83F886200E4B93F88630022B03D90C4B002283F886200A4B81
S3850001B18093F886301A46094B53F8223006489847054B93F886301846FFF7D4F9002318460837BD4680BD00BF1C1B0010CC00001080B582B000AF7860FFF7DCFA114B93F88730012B04D0022B05D1FFF79DFD05E0FFF7C4FD02E0FFF7CFFD00BF22F070F90346002B03D1FFF7F5FEFFF783FFFFF76FFBFFF789FAFFF7AFFA002318460837AF
S3850001B200BD4680BD1C1B001080B582B000AF03460A46FB711346BB71FB790649BA79CA54FB790C21184600F00BFE00BF0837BD4680BD00BFEC1B001080B483B000AF0346FB71FB79034AD35C18460C37BD465DF8047B7047EC1B001080B483B000AF0346FB71FB79034AD35C18460C37BD465DF8047B7047F01B001080B584B000AF034619
S3850001B280FB710023FB73FB792F4AD35C022B10D1FB79184601F060FF0346002B20D0FB79184601F0D5FE0346002B19D10123FB7316E0FB79184601F04FFF0346002B0FD0FB79184601F08AFE0346002B08D1FB79184601F09FFE0346002B01D00123FB73FB7B002B27D008202BF0CCFA0346BB81BB891033BB81BB89FE2B01D9FE23BB815E
S3850001B300FB79124AD35C9BB2BA899A4207D9FB790E4AD25C0132D1B20C4AD1540FE0FB7901211846FFF770FFFB791E220021184602F032FA03E0FB79044A0021D15400BF1037BD4680BD00BF101C0010FC1B001080B584B000AF0346FB710023FB7312202BF060FA0346002B0CD0042011F09CFC0346002B06D02BF017F80346032B01D195
S3850001B380012300E00023FB72FB79414AD35C002B27D1FB7A002B48D1FB79184601F010FF0346002B41D054202BF03CFA0346002B0BD0FB79184601F011FE0346002B0CBF01230023DBB2FB732FE0FB79184601F0C3FE0346002B0CBF01230023DBB2FB7323E0FB792A4AD35C012B09D0FB79284AD35C032B04D0FB79254AD35C022B14D17C
S3850001B400FB79184600F066FC0346BB72FB7A002B0BD1BB7A002B08D1FB79184601F0D0FE0346002B01D00123FB73FB7B002B27D008202BF027FA0346BB81BB891033BB81BB89FE2B01D9FE23BB81FB79114AD35C9BB2BA899A4207D9FB790E4AD25C0132D1B20C4AD1540FE0FB7902211846FFF7CBFEFB791E220021184602F08DF903E080
S3850001B480FB79044A0021D15400BF1037BD4680BD101C0010001C001080B584B000AF0346FB7194202BF0EEF90346FB812AF07CFF0346032B60D12AF09BFF0346172B5BD050202BF0AFF90346002B55D1FB89002B52D0FB791846FFF7BFFE0346002B1DD1FB791846FFF7A8FE0346002B16D0FB791846FFF7A1FE0346052B0FD0FB79254AB1
S3850001B50032F81330FA899A4208D9FB79214A32F81320013291B21F4A22F81310FB791E4A52F8233048F69F42934212D9FB791A4A002142F82310FB79164A002122F8131008F00AFE0346032B0BD1002008F0DCFD07E0FB79104A52F8232001320E4941F82320FB790B4A32F81330FA899A420DD8032008F0AFFD09E0FB79074A002142F8F9
S3850001B5802310FB79034A002122F8131000BF1037BD4680BD041C0010081C001080B582B000AF0346FB71FB79184611F0D9F90346022B15D1FB79184601F0CEFD0346002B27D1FB79184601F043FD0346002B20D1FB7900211846FFF717FE14F0F1FF18E0FB79184601F0B8FD0346002B0CD1FB7900211846FFF708FEFB790021184600F095
S3850001B6001FFC14F0DDFF04E0FB790121184600F017FC00BF0837BD4680BD80B584B000AF0346FB7112202BF0FDF80346002B0CD0042011F039FB0346002B06D02AF0B4FE0346032B01D1012300E00023FB73FB79184601F0B5FD0346002B02D0FB7B002B0CD0FB7900211846FFF7CEFDFB790021184600F0E5FB14F0A3FF04E0FB79012134
S3850001B680184600F0DDFB00BF1037BD4680BDFFFF80B582B000AF0346FB71FB791F4A32F81330952B27D8FB791C4A32F81320013291B21A4A22F81310FB79184601F080FD0346002B06D1FB79184601F0C1F80346002B0AD0FB7900211846FFF795FDFB790021184600F0ACFB14E0FB790821184600F0A6FB0EE0FB7900211846FFF784FD85
S3850001B700FB790021184600F09BFBFB790121184600F096FB00BF0837BD4680BDF41B001080B582B000AF0346FB71FB791F4A32F81330952B27D8FB791C4A32F81320013291B21A4A22F81310FB79184601F004FD0346002B06D1FB79184601F079F80346002B0AD0FB7900211846FFF74DFDFB790021184600F064FB14E0FB790821184660
S3850001B78000F05EFB0EE0FB7900211846FFF73CFDFB790021184600F053FBFB790121184600F04EFB00BF0837BD4680BDF41B001080B582B000AF0346FB71FB79184611F0CFF80346022B41D0FB79254A32F81330952B29D8FB79224A32F81320013291B21F4A22F81310FB79184601F04DFF0346002B06D1FB79184601F088F90346002BC6
S3850001B8000CD0FB7900211846FFF7FEFCFB790021184600F015FB14F0D3FE1CE0FB790121184600F00DFB16E0FB7900211846FFF7EBFCFB790021184600F002FBFB790821184600F0FDFA14F0BBFE04E0FB7900211846FFF7D9FC00BF0837BD4680BD00BFF41B001080B582B000AF0346FB71FB79184611F075F80346022B49D0FB79294ACE
S3850001B88032F81330952B33D8FB79264A32F81320013291B2234A22F81310FB79184601F00DFE0346002B06D1FB79184600F0D0FF0346002B0AD0FB7900211846FFF7A4FCFB790021184600F0BBFA26E003202AF0D9FF0346002B05D0FB790A21184600F0AFFA1AE0FB790821184600F0A9FA14E0FB7900211846FFF787FCFB7900211846BA
S3850001B90000F09EFAFB790121184600F099FA04E0FB7900211846FFF777FC00BF0837BD4680BD00BFF41B001080B582B000AF0346FB71FB79284A32F81330952B3ED8FB79254A32F81320013291B2234A22F81310FB79224AD35C022B11D1FB79184601F0ADFD0346002B33D0FB7900211846FFF74BFCFB790021184600F062FA28E0FB7924
S3850001B980184601F09BFD0346002B06D1FB79184600F05EFF0346002B0AD0FB7900211846FFF732FCFB790021184600F049FA0FE0FB790821184600F043FA09E0FB7900211846FFF721FCFB790021184600F038FA00BF0837BD4680BDF41B0010101C001080B584B000AF0346FB71F6F701F90346002B40F00E81FB791846FFF73DFCFB7954
S3850001BA001846FFF7A5FCFB791846FFF745FDFB79824AD25CFB798249CB5C9A420FD0FA79FB797F49895C7D4AD154FB797D4A002122F81310FB797C4A002122F81310FB79774AD35C002B00F0E480FB79774AD35C022B54D12AF0A8FC0346012B0AD12AF067FC0346002B05D1FB7900211846FFF7CBFBA7E0FB796A4AD35C013B082B38D806
S3850001BA8001A252F823F000BFADBA0100B7BA0100C1BA0100CBBA0100D5BA0100DFBA0100F3BA0100F3BA0100E9BA0100FB791846FFF774FD86E0FB791846FFF7AEFD81E0FB791846FFF7E4FD7CE0FB791846FFF727FE77E0FB791846FFF76AFE72E0FB791846FFF7BFFE6DE0FB791846FFF71CFF68E0FB794A4A0021D15400BF62E02AF0D6
S3850001BB0053FC0346012B05D1FB7900211846FFF77BFB13E0FB79444A32F813301D2B0DD8FB79414A32F81320013291B23E4A22F81310FB790421184601F030FAFB79384AD35C013B082B38D801A252F823F000BF75BB01007FBB010089BB010093BB01009DBB0100A7BB0100BBBB0100BBBB0100B1BB0100FB791846FFF710FD22E0FB79C8
S3850001BB801846FFF74AFD1DE0FB791846FFF780FD18E0FB791846FFF7C3FD13E0FB791846FFF706FE0EE0FB791846FFF75BFE09E0FB791846FFF7B8FE04E0FB79184A0021D15400BFFB79164AD35C002B21D0FB79002B0FD1FB79124AD35C9BB26133BB81BB896A2B28BF6A23BB81BB89184618F02BFB0EE0FB790A4AD35C9BB26A33FB818F
S3850001BC00FB89732B28BF7323FB81FB89184618F01BFB00BF1037BD4680BD00BFF01B0010EC1B0010F41B0010F81B0010101C001080B584B000AF03460A46FB711346BB710023FB73FB79224AD35C032B2ED110F045FE03461A46BB79934202D30123FB7330E0BB791B09BB73BB7903F00F037B73FB79002B02D140F2B23301E04FF46E73D7
S3850001BC807B81BB7B9AB27B8913447B817B8918462AF028FE03463B817A7B07F108031146184628F0FAFD0346FB730BE0FB79084AD35C012B04D0FB79054AD35C022B01D10123FB73FB7B18461037BD4680BD00BF101C001080B584B000AF0346FB71FB79184601F039FA0346002B06D1FB79184601F04CFA0346002B01D1012300E0002311
S3850001BD00FB732AF0C3FB03461A46FB7911461846FFF78EFF0346002B41D0D0202AF082FD0346002B0BD0FB79184601F02FFA0346002B0CBF01230023DBB2FB732FE0CF202AF070FD0346002B17D02AF0F1FA0346002B0DD1FB79184601F092FB0346002B06D1FB79184601F011FA0346002B01D1012300E00023FB7311E0FB79184601F028
S3850001BD80EBF90346002B06D1FB79184601F0FEF90346002B01D1012300E00023FB73FB7B18461037BD4680BD80B485B000AF0346FB710023FB60FB791F4A162101FB03F3134401331B7803F01F03FA681343FB60FB79194A162101FB03F313441B785B0103F47873FA681343FB60FB79124A162101FB03F3134406331B885B089BB29B02D2
S3850001BE001A460E4B1340FA681343FB60FB790A4A162101FB03F3134408331B885B089BB25B051A46FB681343FB60FB6818461437BD465DF8047B7047181C001000FC1F0080B584B000AF03460A46FB711346BB710023FB735F4B1B78FA799A4280F0B580FB795D4AD35C022B00F0AF8019F090FB0346002B04D119F0A9FB0346002B07D02A
S3850001BE801C202AF0CFFC0346002B01D1012300E00023BB73FB79184601F05EF90346002B0CBF01230023DBB27B73FB794A4AD35C012B06D1FB79184601F0AEFA0346002B09D0FB79184601F001F90346002B04D1BB7B002B01D1012300E000235AB297F90D3013405BB27B73FB793C4A162101FB03F313440133BA791A70BB790E2B4FD8EC
S3850001BF0001A252F823F000BF97BF010045BF010045BF010045BF010045BF010045BF010045BF010045BF010053BF010053BF01008BBF01008BBF0100A1BF010045BF010045BF0100BA79FB791146184601F0AAFC29E02AF029FA0346032B10D17B7B002B0DD0FB79184600F0D1FD0346002B06D1FB79184600F0C0FE0346032B12D0FB79A3
S3850001BF800521184601F032FC0CE0FB790621184601F02CFC07E0FB79184601F007FF02E000BF00E000BFFA79FB790C49162000FB02F20A4401321078084A162101FB03F3134402461A700123FB73FB7B18461037BD4680BD121C0010101C0010181C001080B582B000AF2AF0DFF90346BB712AF0FFF903467B710023FB713EE0BB79032B1D
S3850001C00035D1FB79214AD35C022B30D0FB79204A162101FB03F3134402331B78022B28DB032B02DD042B11D023E014F06DF90346002B05D0FB7906211846FFF701FF19E0FB7902211846FFF7FBFE13E014F05CF90346002B05D0FB7906211846FFF7F0FE08E0FB7908211846FFF7EAFE02E000BF00E000BFFB790133FB71064B1B78FA79A5
S3850001C0809A42BBD300BF0837BD4680BD101C0010181C0010121C001080B582B000AF0123FB710023BB7172E0BB793E4AD35C032B64D801A252F823F0C9C00100C9C0010037C10100C9C001002AF06EF90346012B13D1BB79184601F0F1F90346002B09D0BB79314A162101FB03F3134402331B78022B46D10023FB7146E00AF0CDFC034610
S3850001C1003B713B79002B13D1BB79184601F0D6F90346002B09D0BB79234A162101FB03F3134402331B78022B2BD10023FB712BE00023FB7128E02AF037F90346012B09D1BB79184601F0BAF90346002B1BD10023FB7119E00AF0A0FC03467B717B79002B09D1BB79184601F0A9F90346002B0AD10023FB7108E00023FB7105E00023FB71FE
S3850001C18002E000BF00E000BFBB790133BB71074B1B78BA799A4287D3FB7918460837BD4680BD00BF101C0010181C0010121C001080B582B000AF0123FB71234B1B78002B3CD10023BB7134E0BB79184600F0F8FF03467B71BB79184601F088F803463B71BB791A4AD35C002B04D0002B18DB032B16DC05E07B79002B15D10023FB7115E0EE
S3850001C2003B79002B09D0BB791846FFF763FD0346002B0AD07B79002B07D10023FB7105E00023FB7102E000BF00E000BFBB790133BB71074B1B78BA799A42C5D3FB7918460837BD4680BD00BF141C0010101C0010121C001080B584B000AF0123FB73544B1B78002B40F09F800023BB7395E000237B73BB7B184600F06FFF03463B73BB7B59
S3850001C280184600F0E5FE0346FB72BB7B184600F097FF0346BB72BB7B184600F0BBFE03467B72BB7B184600F099FE03463B72BB7B184601F01BF80346FB71BB7B3D4AD35C032B61D801A252F823F000BFDDC20100DDC2010047C30100DDC201002AF064F80346012B0FD13B7B002B04D0FB7A002B01D0012300E000237B737B7B002B46D1B4
S3850001C3000023FB7346E07B7A002B0AD13B7A002B07D03B7B002B04D0FB7A002B01D0012300E000237B737B7B002B09D0BB7B224A162101FB03F3134402331B78012B26D00023FB7326E02AF02FF80346012B08D13B7B002B02D0FB7A002B1AD10023FB7318E03B7B002B0CD0FB7A002B09D0BB7B114A162101FB03F3134402331B78012BE4
S3850001C38007D00023FB7305E00023FB7302E000BF00E000BFBB7B0133BB73084B1B78BA7B9A42FFF464AFFB7B18461037BD4680BD131C0010101C0010181C0010121C001080B582B000AF0123FB71244B1B78002B3ED10023BB7136E0BB79184600F0F0FE03467B71BB79184600F080FF03463B71BB79184600F0CAFE0346FB70BB79184AB5
S3850001C400D35C002B04D0002B14DB032B12DC05E07B79002B11D10023FB7111E03B79002B05D0FB78002B0AD17B79002B07D10023FB7105E00023FB7102E000BF00E000BFBB790133BB71074B1B78BA799A42C3D3FB7918460837BD4680BD00BF141C0010101C0010121C001080B582B000AF0023FB710023BB7120E0BB79184601F004F928
S3850001C4800346002B13D1BB79114A162101FB03F3134402331B78022B09D0BB790C4A162101FB03F3134402331B78032B02D10123FB7107E0BB790133BB71064B1B78BA799A42D9D3FB7918460837BD4680BD00BF181C0010121C001080B582B000AF0023FB710023BB710CE0BB79184601F0CCF80346002B02D00123FB7107E0BB790133A5
S3850001C500BB71054B1B78BA799A42EDD3FB7918460837BD4680BD00BF121C001080B582B000AF0023FB7123E0FB79164AD35C022B1BD0FB79184600F0DFFB0346BB71FB79184600F0BBFF0346002B0ED1BB79052B0BD0BB79012B08D0BB79062B05D0FB7908211846FFF76CFC07E0FB790133FB71054B1B78FA799A42D6D300BF0837BD4604
S3850001C58080BD00BF101C0010121C001080B485B000AF0346FB710F23FB730A4B1B78FA799A4208D2FB79084A162101FB03F3134401331B78FB73FB7B18461437BD465DF8047B7047121C0010181C001080B400AF034B1B781846BD465DF8047B704700BF121C001080B584B000AF0346FB710023FB73FB79032B14D10023FB710BE0FB7916
S3850001C600184600F0C3FD03461A46FB7B1343FB73FB790133FB710B4B1B78FA799A42EED30AE0084B1B78FA799A4205D2FB79184600F0ACFD0346FB73FB7B18461037BD4680BD00BF121C001080B582B000AF0123FB710023BB7117E0BB79184600F04CFB03467B717B79012B02D07B79052B01D1012300E000235AB297F9073013405BB219
S3850001C680FB71BB790133BB71044B1B78BA799A42E2D3FB7918460837BD4680BD121C001080B400AF034B1B781846BD465DF8047B704700BF141C001080B400AF034B1B781846BD465DF8047B704700BF131C001080B400AF034B1B781846BD465DF8047B704700BF151C001080B582B000AF0346FB71FB79134AD35C022B1ED0FB79184639
S3850001C700FFF744FF0346062B17D1FB7900211846FFF796FBFB790C4A162101FB03F3134406331A88FB79013290B2074A162101FB03F31344083302461A8000BF0837BD4680BD00BF101C0010181C001080B582B000AF0023FB718F202AF064F80346002B19D10023BB7111E0BB79184600F0C4FA0346062B07D115F0F7F90346FF2B02D0F0
S3850001C7800123FB7107E0BB790133BB712E4B1B78BA799A42E8D329F02BFE03460B2B4DD10F202AF06FF80346002B47D000237B713FE07B79254A162101FB03F3134402331B78052B32D17B79204A162101FB03F3134406331A887B791C49162000FB03F30B4408331B889A4212D27B79174A162101FB03F3134408331A887B7913491620CD
S3850001C80000FB03F30B4406331B88D31A9BB200E000237B800F202AF035F803463B807A883B889A4202D30123FB7107E07B7901337B71054B1B787A799A42BAD3FB7918460837BD4680BD00BF121C0010181C001090B585B000AF0346FB710023FB73FB79002B03D0012B00F0A38042E129F00EFE0346184610F070FA0346002B00F036817D
S3850001C880AD2029F0CFFF0346002B1CD029F08CFD0346032B17D1994B1C6829F0F7FD034623441B7803F00803DBB2002B0BD029F09FFD03461A46924B13F81230C3F30003DBB2002B3DD047201BF0BAFB0346002B14BF01230023DBB2FB7329F089FD03460B2B01D0FB7B00E00023FB7326F04CFB034603F002035AB297F90F3013435BB26B
S3850001C900FB7326F0A3FD034603F00203002B01D0042300E000235AB297F90F3013435BB2FB7327F09BFA034603F00203002B01D0082300E000235AB297F90F3013435BB2FB73FB796F4AD35C012B05D0FB796D4AD35C032B40F0CA8029F026FD0346032B40F0C480042010F09FF90346002B0CD029F01AFD0346032B07D1DD2029F052FF3E
S3850001C9800346002B01D1012300E000237B73FB79184600F0ABFC0346002B40F0A7807B7B002B40F0A380FB7B43F00103FB739DE029F06CFD0346184610F0F7F90346002B00F09680AD2029F02DFF0346002B1CD029F0EAFC0346032B17D14B4B1C6829F055FD034623441B7803F00803DBB2002B0BD029F0FDFC03461A46414B13F8123045
S3850001CA00C3F30003DBB2002B3DD05B201BF018FB0346002B14BF01230023DBB2FB7329F0E7FC03460B2B01D0FB7B00E00023FB7326F0AAFA034603F00803002B01D0022300E000235AB297F90F3013435BB2FB7326F0FCFC034603F00803002B01D0042300E000235AB297F90F3013435BB2FB7327F0F4F9034603F008035AB297F90F30BE
S3850001CA8013435BB2FB73FB791E4AD35C012B04D0FB791C4AD35C032B2AD129F085FC0346032B25D1042010F0FFF80346002B0CD029F07AFC0346032B07D1DD2029F0B2FE0346002B01D1012300E00023BB73FB79184600F00BFC0346002B09D1BB7B002B06D1FB7B43F00103FB7301E000BF00E000BFFB7B18461437BD4690BD2C200010FC
S3850001CB0090200010101C00103020001080B584B000AF0346FB710023FB73FB79002B02D0012B6DD0E3E048201BF08AFA0346002B14BF01230023DBB2FB73002009F0C8FF03461A46FB7B1343FB7329F051FC03460B2B01D0FB7B00E00023FB7327F07EF9034603F010035AB297F90F3013435BB2FB7326F06BFC034603F010035AB297F986
S3850001CB800F3013435BB2FB7326F0FEF9034603F010035AB297F90F3013435BB2FB7327F05DF9034603F00103002B01D0082300E000235AB297F90F3013435BB2FB7326F045FC034603F00103002B01D0042300E000235AB297F90F3013435BB2FB7326F0D3F9034603F00103002B01D0022300E000235AB297F90F3013435BB2FB7376E0E2
S3850001CC005C201BF01DFA0346002B14BF01230023DBB2FB73012009F05BFF03461A46FB7B1343FB7329F0E4FB03460B2B01D0FB7B00E00023FB7327F011F9034603F02003002B01D0102300E000235AB297F90F3013435BB2FB7326F0F9FB034603F02003002B01D0102300E000235AB297F90F3013435BB2FB7326F087F9034603F0200366
S3850001CC80002B01D0102300E000235AB297F90F3013435BB2FB7327F0E1F8034603F00403002B01D0082300E000235AB297F90F3013435BB2FB7326F0C9FB034603F004035AB297F90F3013435BB2FB7326F05CF9034603F00403002B01D0022300E000235AB297F90F3013435BB2FB7300BFFB7B18461037BD4680BD80B485B000AF034684
S3850001CD00FB710023FB730A4B1B78FA799A4208D2FB79084A162101FB03F3134402331B78FB73FB7B18461437BD465DF8047B7047121C0010181C001080B485B000AF0346FB710123FB73FB79032B50D10023BB7347E0BB7B4B4A162101FB03F3134402331B78012B32D0BB7B464A162101FB03F3134402331B78032B25D1BB7B414A1621EE
S3850001CD8001FB03F3134406331A88BB7B3D49162000FB03F30B4408331B889A4216D8BB7B384A162101FB03F3134406331B88002B09D1BB7B334A162101FB03F3134408331B88002B02D00023FB7354E0BB7B2E4AD35C022B02D10023FB734CE0BB7B0133BB732A4B1B78BA7B9A42B2D343E0FB79244A162101FB03F3134402331B78012BF9
S3850001CE0032D0FB791F4A162101FB03F3134402331B78032B25D1FB791A4A162101FB03F3134406331A88FB791649162000FB03F30B4408331B889A4216D8FB79114A162101FB03F3134406331B88002B09D1FB790C4A162101FB03F3134408331B88002B02D00023FB7306E0FB79074AD35C022B01D10023FB73FB7B18461437BD465DF875
S3850001CE80047B7047181C0010101C0010121C001080B582B000AF0346FB71FB79144AD35C022B20D0FB791846FFF79CFB0346002B19D0FB791846FFF729FE0346002B12D1FB79184600F0FAFA0346002B0BD1FB791846FFF711FF0346012B04D0FB7906211846FEF7ADFF00BF0837BD4680BD00BF101C001080B582B000AF0346FB71032064
S3850001CF00FFF770FB0346002B42D0FB79032B1CD10020FFF7FBFD0346002B07D11E4B1B78022B03D002210020FEF78AFF0120FFF7EDFD0346002B2BD1174B5B78022B27D002210120FEF77CFF22E0FB79002B0ED10020FFF7DBFD0346002B19D10E4B1B78022B15D002210020FEF76AFF10E0FB79012B0DD10120FFF7C9FD0346002B07D19D
S3850001CF80054B5B78022B03D002210120FEF758FF00BF0837BD4680BD101C001080B483B000AF03460A46FB711346BB71FB79094AD35C022B08D0FB79074A162101FB03F313440233BA791A7000BF0C37BD465DF8047B7047101C0010181C001080B584B000AF0346FB710023FB73FA79084913465B001344DB009B1A0B441B7818461BF013
S3850001D0001FF80346FB73FB7B18461037BD4680BD9C11050080B584B000AF0346FB710023FB73FA79094913465B001344DB009B1A0B4401331B7818461BF002F80346FB73FB7B18461037BD4680BD00BF9C11050080B584B000AF0346FB710023FB73FA79194913465B001344DB009B1A0B4404331B7818461AF06CFE0346002B0FD0FA7995
S3850001D080114913465B001344DB009B1A0B4404331B7818461AF0D4FF0346FB730EE0FA79094913465B001344DB009B1A0B4403331B7818461AF0C4FF0346FB73FB7B18461037BD4680BD00BF9C11050080B584B000AF0346FB710023FB73FA791D4913465B001344DB009B1A0B4402331B7818461AF0A6FF0346FB73FA79164913465B00E2
S3850001D1001344DB009B1A0B440D331B7818461AF01FFE0346002B11D0FA790E4913465B001344DB009B1A0B440D331B7818461AF087FF03461A46FB7B1340FB7329F058F903460B2B01D10123FB73FB7B18461037BD4680BD9C11050080B582B000AF0346FB71FA79084913465B001344DB009B1A0B4403331B7818461AF062FF0346184664
S3850001D1800837BD4680BD00BF9C11050080B582B000AF0346FB71FA79084913465B001344DB009B1A0B4408331B7818461AF048FF034618460837BD4680BD00BF9C11050080B584B000AF0346FB710023FB73FA791B4913465B001344DB009B1A0B4405331B7818461AF02CFF0346FB73FA79144913465B001344DB009B1A0B4406331B78F1
S3850001D20018461AF01DFF03461A46FB7B1340FB73FA790B4913465B001344DB009B1A0B4407331B7818461AF00BFF03461A46FB7B1340FB73FB7B18461037BD4680BD00BF9C11050080B584B000AF0346FB71FA79094913465B001344DB009B1A0B4407331B7818461AF0ECFE0346FB73FB7B18461037BD4680BD00BF9C11050080B584B020
S3850001D28000AF0346FB71FA79094913465B001344DB009B1A0B4406331B7818461AF0D0FE0346FB73FB7B18461037BD4680BD00BF9C11050080B584B000AF0346FB71FA79094913465B001344DB009B1A0B4405331B7818461AF0B4FE0346FB73FB7B18461037BD4680BD00BF9C11050080B584B000AF0346FB710023FB73FA791B4913461D
S3850001D3005B001344DB009B1A0B4409331B7818461AF096FE0346FB73FA79144913465B001344DB009B1A0B440A331B7818461AF087FE03461A46FB7B1340FB73FA790B4913465B001344DB009B1A0B440B331B7818461AF075FE03461A46FB7B1340FB73FB7B18461037BD4680BD00BF9C11050080B584B000AF0346FB71FA790949134648
S3850001D3805B001344DB009B1A0B440B331B7818461AF056FE0346FB73FB7B18461037BD4680BD00BF9C11050080B584B000AF0346FB71FA79094913465B001344DB009B1A0B440A331B7818461AF03AFE0346FB73FB7B18461037BD4680BD00BF9C11050080B584B000AF0346FB71FA79094913465B001344DB009B1A0B4409331B7818466D
S3850001D4001AF01EFE0346FB73FB7B18461037BD4680BD00BF9C11050080B584B000AF0346FB710023FB73FB79134AD35C012B0FD1FA79124913465B001344DB009B1A0B440C331B7818461AF0FBFD0346FB730EE0FA790A4913465B001344DB009B1A0B4402331B7818461AF0EBFD0346FB73FB7B18461037BD4680BD101C00109C1105003B
S3850001D48080B584B000AF0346FB710023FB73FA79094913465B001344DB009B1A0B4410331B7818461EF006FD0346FB73FB7B18461037BD4680BD00BF9C11050080B586B000AF0346FB710023FB75FB791846FFF743FE0346BB75FB791846FFF7B9FD03467B75FB791846FFF76BFE03463B75FB791846FFF78FFD0346FB74FB791846FFF7B7
S3850001D5006DFD0346BB74FB791846FFF7EFFE03467B74FB795A4AD35C032B00F2AB8001A252F823F035D5010093D5010031D6010093D5010028F038FF0346012B11D1BB7D002B0BD07B7D002B08D03B7D002B03D14C4B1B78002B01D0012300E00023FB7589E0FB7C002B11D1BB7C002B0ED0BB7D002B0BD07B7D002B08D03B7D002B03D1EE
S3850001D580404B1B78002B01D0012300E00023FB7571E028F009FF0346012B21D1FB791846FEF798FB0346BB73BB7D002B15D07B7D002B12D07B7C002B03D1324B1B78002B0BD03B7D002B06D1BB7B002B03D02D4B1B78002B01D0012300E00023FB754AE0FB791846FEF776FB0346FB73FB7C002B1BD1BB7C002B18D0BB7D002B15D07B7DB4
S3850001D600002B12D07B7C002B03D11E4B1B78002B0BD03B7D002B06D1FB7B002B03D0194B1B78002B01D0012300E00023FB7522E0FB791846FEF74EFB03463B74BB7D002B15D07B7D002B12D07B7C002B03D10D4B1B78002B0BD03B7D002B06D13B7C002B03D0084B1B78002B01D0012300E00023FB7500E000BFFB7D18461837BD4680BDBC
S3850001D680101C0010141C001080B584B000AF0346FB710023FB73122029F0C4F80346002B0CD004200FF000FB0346002B06D028F07BFE0346032B01D1012300E00023BB73FB791846FFF748FD03467B73FB791846FFF7BEFC03463B73FB791846FFF770FD0346FB72FB791846FFF794FC0346BB72FB791846FFF772FC03467B72FB791846A7
S3850001D700FFF7F4FD03463B72FB79224AD35C022B16D17B7B002B10D13B7B002B0DD13B7A002B02D0BB7B002B07D0FB7A002B02D0BB7B002B01D0012300E00023FB7324E0FB79144AD35C002B09D0FB79114AD35C012B04D0FB790F4AD35C032B15D1BB7A002B10D07B7A002B0DD17B7B002B0AD13B7B002B07D1FB7A002B02D0BB7B002BE1
S3850001D78001D0012300E00023FB73FB7B18461037BD4680BD101C001080B483B000AF0346FB710B46BB8013467B80FB790D4AD35C022B11D0FB790C4A162101FB03F313440633BA881A80FB79074A162101FB03F3134408337A881A8000BF0C37BD465DF8047B7047101C0010181C001080B582B000AF03460A46FB711346BB71FB79284A61
S3850001D800162101FB03F3134402331B78052B0AD1FB79234A162101FB03F3134402331B78BA799A4238D0FB791D4A162101FB03F3134402331B78012B2ED0FB79184A162101FB03F3134412331B78022B24D1FB79134A162101FB03F313440233BA791A70FB790F4A162101FB03F31344063300221A80022029F006F803469AB2FB79114653
S3850001D88089000A44520090B2054A162101FB03F31344083302461A8000BF0837BD4680BD181C001090B585B000AF03460A46FB711346BB710023FB7328F076FD0346012B13D128F035FD0346002B0ED10320FEF789FE0346002B05D1972028F0A3FF0346002B02D00123FB732BE028F05DFD0346012B26D009F0D0F80346002B21D0FB79CF
S3850001D900002B0CD1BD4B1C6828F0C0FD03469B002344DB7803F00103DBB2002B0FD1FB79012B0ED1B54B1C6828F0B0FD03469B002344DB7803F00203DBB2002B01D00123FB73FB7B002B00F02A82FB79AC4AD35C022B40F0F480FB79AA4A162101FB03F31344023303221A70BB79013B0D2B00F2138201A252F823F0D7D90100D7D901008D
S3850001D9804FDA01008BDA010013DA0100B1D90100B1D9010099DD010099DD010099DD010099DD010099DD0100C7DA010003DB0100FB79944A162101FB03F31344063300221A80FB798F4A162101FB03F31344083300221A80E3E1012028F054FF03469BB21A46920013445B0099B2FB79854A162000FB03F3134406331A88FB790A4490B2B8
S3850001DA00804A162101FB03F31344083302461A80C5E1042028F036FF03469BB21A46920013445B0099B2FB79764A162000FB03F3134406331A88FB790A4490B2714A162101FB03F31344083302461A80A7E1052028F018FF03469BB21A46920013445B0099B2FB79674A162000FB03F3134406331A88FB790A4490B2624A162101FB03F3FB
S3850001DA801344083302461A8089E1072028F0FAFE03469BB21A46920013445B0099B2FB79584A162000FB03F3134406331A88FB790A4490B2534A162101FB03F31344083302461A806BE1062028F0DCFE03469BB21A46920013445B0099B2FB79494A162000FB03F3134406331A88FB790A4490B2444A162101FB03F31344083302461A8060
S3850001DB004DE10B2028F0BEFE03469BB21A46920013445B0099B2FB793A4A162000FB03F3134406331A88FB790A4490B2354A162101FB03F31344083302461A802FE1FB79304A162101FB03F3134402331B78032B40F0EB80BB79013B0D2B00F21F8101A252F823F0C3DB0100C3DB010043DC01007DDC010009DC01009DDB01009DDB0100A2
S3850001DB809DDD01009DDD01009DDD01009DDD01009DDD0100B7DC0100F1DC0100FB79194A162101FB03F31344063300221A80FB79144A162101FB03F31344083300221A80EDE0FB790F4A162101FB03F31344063300221A80012028F055FE03469AB2FB79114689000A44520090B2064A162101FB03F31344083302461A80D0E0682700101E
S3850001DC00101C0010181C0010FB79674A162101FB03F31344063300221A80042028F032FE03469AB2FB79114689000A44520090B25D4A162101FB03F31344083302461A80ADE0FB79584A162101FB03F31344063300221A80052028F015FE03469AB2FB79114689000A44520090B24F4A162101FB03F31344083302461A8090E0FB794A4A27
S3850001DC80162101FB03F31344063300221A80072028F0F8FD03469AB2FB79114689000A44520090B2404A162101FB03F31344083302461A8073E0FB793B4A162101FB03F31344063300221A80062028F0DBFD03469AB2FB79114689000A44520090B2324A162101FB03F31344083302461A8056E0FB792D4A162101FB03F3134406330022CB
S3850001DD001A800B2028F0BEFD03469AB2FB79114689000A44520090B2234A162101FB03F31344083302461A8039E0FB791E4A162101FB03F3134402331B78022B2FD0FB79194A162101FB03F31344063300221A80FB791846FDF770FA0346002B12D1022028F090FD03469AB2FB79114689000A44520090B20C4A162101FB03F31344083350
S3850001DD8002461A80FB79084A162101FB03F31344023302221A7002E000BF00E000BF00BF1437BD4690BD00BF181C001090B585B000AF0346FB71FB79844AD35C022B00F00081FB79824A162101FB03F3134401331B78092B13D0FB797D4A162101FB03F3134401331B78072B09D0FB79784A162101FB03F3134401331B780B2B0FD1FC7954
S3850001DE00FB79184601F02AFB03461946704A162303FB04F3134402330A461A70D1E028F0C3FA0346032B40F0B78012F08FFA0346002B00F0B180FB791846FFF73FFB0346FB73FB791846FFF71FFC0346BB73FB791846FEF7FDFC03467B73FB791846FEF755FE03463B73FB7B002B40F08380BB7B002B7FD13B7B002B0CD17B7B002B0FD1DA
S3850001DE80FB79534A162101FB03F3134404331B78012B05D1FB7905211846FFF7A7FC68E07B7B002B10D1FB791846FEF79BFB0346002B0FD0FB79464A162101FB03F3134404331B78032B05D1FB7906211846FFF7E9FC4EE017F05CFB0346002B19D0FB793B4A162101FB03F3134404331B78002B0FD1FC79FB79184601F0B0FA034619464C
S3850001DF00334A162303FB04F3134402330A461A702FE0FB792E4A162101FB03F3134402331B78052B12D0FB79294A162101FB03F3134402331B78062B08D0FB79244A162101FB03F313441B78082B05D1FB7905211846FFF74BFC0CE0FB791846FEF742FB0346002B16D0FB7906211846FFF79AFC10E00FE0FC79FB79184601F06FFA034631
S3850001DF801946134A162303FB04F3134402330A461A7016E000BF14E028F006FA0346012B0FD1FC79FB79184601F058FA03461946074A162303FB04F3134402330A461A70FFE700BF1437BD4690BD00BF101C0010181C001080B582B000AF0346FB71FA79404913465B001344DB009B1A0B440E331B78002118461DF049FFFA793949134677
S3850001E0005B001344DB009B1A0B440F331B78002118461DF03BFFFA79324913465B001344DB009B1A0B4413331B78002118461DF02DFFFA792B4913465B001344DB009B1A0B4412331B78002118461DF01FFFFA79244913465B001344DB009B1A0B4411331B78002118461DF011FFFA791D4913465B001344DB009B1A0B4410331B780021BA
S3850001E08018461DF003FFFA79164913465B001344DB009B1A0B4415331B78002118461DF0F5FEFA790F4913465B001344DB009B1A0B4414331B78002118461DF0E7FEFA79084913465B001344DB009B1A0B4416331B78002118461DF0D9FE00BF0837BD4680BD00BF9C11050080B586B000AF0346FB7101F0ADFA0346FB75FB791846FFF712
S3850001E10069FFFB7D002B40F0C981FB79A84AD35C032B00F29F8101A252F823F02DE101002DE1010085E301002DE1010028F03CF90346012B67D128F0FBF80346002B0ED1FB791846FFF722F80346002B05D1972028F068FB0346002B01D0012300E00023FB736D2028F05EFB0346002B00F07481FB7B002B00F07081FA798E4913465B0041
S3850001E1801344DB009B1A0B440E331B78012118461DF07CFEFA79874913465B001344DB009B1A0B440F331B78002118461DF06EFEFA79804913465B001344DB009B1A0B4413331B78002118461DF060FEFA79794913465B001344DB009B1A0B4412331B78012118461DF052FEFA79724913465B001344DB009B1A0B4411331B7800211846E2
S3850001E2001DF044FE28E108F047FC0346002B08D0FB791846FEF7BAFF0346002B01D0012300E000237B757B7D002B52D0FB791846FFF72AFA0346002B05D06D2028F0F2FA0346002B45D0FA795A4913465B001344DB009B1A0B440E331B78012118461DF015FEFA79534913465B001344DB009B1A0B440F331B78002118461DF007FEFA7902
S3850001E2804C4913465B001344DB009B1A0B4413331B78002118461DF0F9FDFA79454913465B001344DB009B1A0B4412331B78012118461DF0EBFDFA793E4913465B001344DB009B1A0B4411331B78002118461DF0DDFDFB79384A162101FB03F3134406331A88FB793449162000FB03F30B4408331B889A4212D2FB792F4A162101FB03F378
S3850001E300134408331A88FB792B49162000FB03F30B4406331B88D31A9BB200E000237B820E2028F0AFFA03463B827A8A3B8A9A420DD8FA791F4913465B001344DB009B1A0B4415331B78012118461DF09FFDFA79184913465B001344DB009B1A0B4416331878FB79144A162101FB03F3134412331B78012B0CBF01230023DBB219461DF0AE
S3850001E38085FD69E028F010F80346012B66D0FB791846FFF779F90346002B0FD1FB791846FEF7F4FE0346002B08D0012307E000BF101C00109C110500181C00100023BB75BB7D002B4AD0FA79364913465B001344DB009B1A0B440E331B78012118461DF055FDFA792F4913465B001344DB009B1A0B440F331B78002118461DF047FDFA79A5
S3850001E400284913465B001344DB009B1A0B4413331B78002118461DF039FDFA79214913465B001344DB009B1A0B4412331B78012118461DF02BFDFA791A4913465B001344DB009B1A0B4411331B78002118461DF01DFD03E000BF02E000BF00E000BF27F067FF0346002B06D1FB791846FEF78EFE0346002B01D1012300E00023BB73FA7903
S3850001E480084913465B001344DB009B1A0B4410331B78BA7B114618461DF0F8FC00BF1837BD4680BD9C11050080B584B000AF0346FB7101F0CDF80346FB73FB791846FFF789FDFB7B002B40F05881FB79AD4AD35C032B00F22E8101A252F823F0EDE40100EDE4010071E60100EDE4010027F05CFF0346012B60D127F01BFF0346002B0ED114
S3850001E500FB791846FEF742FE0346002B05D1972028F088F90346002B01D0012300E000233B733B7B002B00F00681FA79964913465B001344DB009B1A0B440E331B78012118461DF0A3FCFA798F4913465B001344DB009B1A0B440F331B78002118461DF095FCFA79884913465B001344DB009B1A0B4413331B78002118461DF087FCFA7995
S3850001E580814913465B001344DB009B1A0B4412331B78012118461DF079FCFA797A4913465B001344DB009B1A0B4411331B78002118461DF06BFCBEE008F06EFA0346002B08D0FB791846FEF7E1FD0346002B01D0012300E000237B737B7B002B46D0FA79694913465B001344DB009B1A0B440E331B78012118461DF049FCFA7962491346F0
S3850001E6005B001344DB009B1A0B440F331B78002118461DF03BFCFA795B4913465B001344DB009B1A0B4413331B78002118461DF02DFCFA79544913465B001344DB009B1A0B4412331B78012118461DF01FFCFA794D4913465B001344DB009B1A0B4411331B78002118461DF011FC64E000BF62E027F09AFE0346012B5FD0FB791846FFF79E
S3850001E68003F80346002B08D1FB791846FEF77EFD0346002B01D0012300E00023BB73BB7B002B4AD0FA79384913465B001344DB009B1A0B440E331B78012118461DF0E6FBFA79314913465B001344DB009B1A0B440F331B78002118461DF0D8FBFA792A4913465B001344DB009B1A0B4413331B78002118461DF0CAFBFA79234913465B00BC
S3850001E7001344DB009B1A0B4412331B78012118461DF0BCFBFA791C4913465B001344DB009B1A0B4411331B78002118461DF0AEFB03E000BF02E000BF00E000BF27F0F8FD0346002B06D1FB791846FEF71FFD0346002B01D1012300E00023FB72FA790A4913465B001344DB009B1A0B4410331B78FA7A114618461DF089FB00BF1037BD4633
S3850001E78080BD00BF101C00109C11050090B585B000AF0346FB7100F05BFF0346FB73FB791846FFF717FCFB7B002B40F02782FB79C54AD35C032B00F2FF8101A252F823F0D1E70100D1E70100F7EA0100D1E7010027F0EAFD0346012B71D1FA79BB4913465B001344DB009B1A0B440E331B78002118461DF04BFBFA79B44913465B0013445E
S3850001E800DB009B1A0B4412331C78FB791846FEF701FC0346194620461DF038FBFA79AB4913465B001344DB009B1A0B4411331C7827F07EFD0346194620461DF027FB782027F0F0FF0346002B1CD0FA799F4913465B001344DB009B1A0B440F331B78012118461DF013FBFA79984913465B001344DB009B1A0B4413331B78012118461DF078
S3850001E88005FB9CE1FA79914913465B001344DB009B1A0B440F331B78012118461DF0F6FAFA798A4913465B001344DB009B1A0B4413331B78002118461DF0E8FA7FE116F067FE0346002B04D116F080FE0346002B07D01C2027F0A6FF0346002B01D1012300E000237B73FB791846FEF735FC0346002B0CBF01230023DBB23B73FB79724A75
S3850001E900D35C012B06D1FB791846FEF785FD0346002B09D0FB791846FEF7D8FB0346002B04D17B7B002B01D1012300E000235AB297F90C3013405BB23B733B7B002B4DD0FB791846FEF722FC0346002B46D0FA795E4913465B001344DB009B1A0B440E331B78012118461DF091FAFA79574913465B001344DB009B1A0B440F331B78002195
S3850001E98018461DF083FAFA79504913465B001344DB009B1A0B4413331B78002118461DF075FAFA79494913465B001344DB009B1A0B4412331B78012118461DF067FAFA79424913465B001344DB009B1A0B4411331B78002118461DF059FA7DE03B7B002B76D1FA79394913465B001344DB009B1A0B440E331B78002118461DF047FAFA7993
S3850001EA00324913465B001344DB009B1A0B4412331C78FB791846FEF7FDFA0346194620461DF034FAFA79294913465B001344DB009B1A0B4411331C7827F07AFC0346194620461DF023FA782027F0ECFE0346002B1CD0FA791D4913465B001344DB009B1A0B440F331B78012118461DF00FFAFA79164913465B001344DB009B1A0B441333B5
S3850001EA801B78012118461DF001FA25E0FA790F4913465B001344DB009B1A0B440F331B78012118461DF0F2F9FA79084913465B001344DB009B1A0B4413331B78002118461DF0E4F908E000BF101C00109C110500FB791846FFF77EFAFA794A4913465B001344DB009B1A0B4415331B78012118461DF0CCF963E027F057FC0346012B5DD0BC
S3850001EB00FB791846FEF7C0FD0346002B08D1FB791846FEF73BFB0346002B01D0012300E00023BB73BB7B002B48D0FA79354913465B001344DB009B1A0B440E331B78012118461DF0A3F9FA792E4913465B001344DB009B1A0B440F331B78002118461DF095F9FA79274913465B001344DB009B1A0B4413331B78002118461DF087F9FA79ED
S3850001EB80204913465B001344DB009B1A0B4412331B78012118461DF079F9FA79194913465B001344DB009B1A0B4411331B78002118461DF06BF901E000BF00E000BF27F0B7FB0346002B06D1FB791846FEF7DEFA0346002B01D1012300E00023FB72FA79084913465B001344DB009B1A0B4410331B78FA7A114618461DF048F900BF14378D
S3850001EC00BD4690BD9C11050090B585B000AF0346FB7100F01DFD0346FB73FB791846FFF7D9F9FB7B002B40F0F581FB79B24AD35C032B00F2CF8101A252F823F04DEC01004DEC010001EF01004DEC010016F0A0FC0346002B04D116F0B9FC0346002B07D01C2027F0DFFD0346002B01D1012300E00023BB73FB791846FEF76EFA0346002BFF
S3850001EC800CBF01230023DBB27B73FB799A4AD35C012B06D1FB791846FEF7BEFB0346002B09D0FB791846FEF711FA0346002B04D1BB7B002B01D1012300E000235AB297F90D3013405BB27B738E2027F0ABFD0346002B0BD112F048FF0346FF2B04D127F087FB0346022B01D0012300E000233B7316F04EFC0346002B04D116F067FC03463F
S3850001ED00002B01D0012300E000235AB297F90C3013435BB23B733B7B002B69D0FA79774913465B001344DB009B1A0B440E331B78002118461DF0AAF8FA79704913465B001344DB009B1A0B4412331B78012118461DF09CF8FA79694913465B001344DB009B1A0B4411331B78002118461DF08EF8782027F057FD0346002B1CD0FA795F49C2
S3850001ED8013465B001344DB009B1A0B440F331B78012118461DF07AF8FA79584913465B001344DB009B1A0B4413331B78002118461DF06CF890E0FA79504913465B001344DB009B1A0B440F331B78012118461DF05DF8FA79494913465B001344DB009B1A0B4413331B78012118461DF04FF873E07B7B002B70D1FA79404913465B00134412
S3850001EE00DB009B1A0B440E331B78002118461DF03DF8FA79394913465B001344DB009B1A0B4412331C78FB791846FEF7F3F80346194620461DF02AF8FA79304913465B001344DB009B1A0B4411331C7827F070FA0346194620461DF019F8782027F0E2FC0346002B1CD0FA79244913465B001344DB009B1A0B440F331B78012118461DF0FC
S3850001EE8005F8FA791D4913465B001344DB009B1A0B4413331B78012118461CF0F7FF1BE0FA79164913465B001344DB009B1A0B440F331B78012118461CF0E8FFFA790F4913465B001344DB009B1A0B4413331B78002118461CF0DAFFFA79084913465B001344DB009B1A0B4415331B78012118461CF0CCFF6FE000BF101C00109C11050023
S3850001EF00FA79464913465B001344DB009B1A0B440E331B78002118461CF0B8FFFA793F4913465B001344DB009B1A0B4412331B78012118461CF0AAFFFA79384913465B001344DB009B1A0B4411331B78002118461CF09CFF782027F065FC0346002B1CD0FA792E4913465B001344DB009B1A0B440F331B78012118461CF088FFFA792749AC
S3850001EF8013465B001344DB009B1A0B4413331B78012118461CF07AFF1DE0FA791F4913465B001344DB009B1A0B440F331B78012118461CF06BFFFA79184913465B001344DB009B1A0B4413331B78002118461CF05DFF00E000BF27F0ABF90346002B06D1FB791846FEF7D2F80346002B01D1012300E00023FB72FA79084913465B00134458
S3850001F000DB009B1A0B4410331B78FA7A114618461CF03CFF00BF1437BD4690BD9C11050090B585B000AF0346FB7100F011FB0346FB73FB791846FEF7CDFFFB7B002B40F05781FB79AC4AD35C032B00F22F8101A252F823F065F0010065F00100ADF2010065F0010027F0A0F90346012B40F0858027F05EF90346002B05D16C2027F0D2FBFE
S3850001F0800346002B01D0012300E000237B737B7B002B00F00D81FA79984913465B001344DB009B1A0B440E331B78002118461CF0EDFEFA79914913465B001344DB009B1A0B4412331C78FB791846FDF7A3FF0346194620461CF0DAFEFA79884913465B001344DB009B1A0B4411331C7827F020F90346194620461CF0C9FE782027F092FBCB
S3850001F1000346002B1CD0FA797C4913465B001344DB009B1A0B440F331B78012118461CF0B5FEFA79754913465B001344DB009B1A0B4413331B78012118461CF0A7FEB7E0FA796E4913465B001344DB009B1A0B440F331B78012118461CF098FEFA79674913465B001344DB009B1A0B4413331B78002118461CF08AFE9AE0F2F739FD034650
S3850001F180002B08D1FB791846FEF798F90346002B01D1012300E00023BB7327F0C9F80346002B05D16C2027F03DFB0346002B01D0012300E000235AB297F90E3013435BB2BB73BB7B002B73D0FA794C4913465B001344DB009B1A0B440E331B78002118461CF054FEFA79454913465B001344DB009B1A0B4412331C78FB791846FDF70AFF63
S3850001F2000346194620461CF041FEFA793B4913465B001344DB009B1A0B4411331C7827F087F80346194620461CF030FE782027F0F9FA0346002B1CD0FA79304913465B001344DB009B1A0B440F331B78012118461CF01CFEFA79294913465B001344DB009B1A0B4413331B78012118461CF00EFE1EE0FA79214913465B001344DB009B1A8E
S3850001F2800B440F331B78012118461CF0FFFDFA791A4913465B001344DB009B1A0B4413331B78002118461CF0F1FD01E000BF00E000BF27F03DF80346002B06D1FB791846FDF764FF0346002B01D1012300E000233B73FA79094913465B001344DB009B1A0B4410331B783A7B114618461CF0CEFD00BF1437BD4690BD101C00109C11050021
S3850001F30080B584B000AF0346FB7100F0A1F90346FB73FB791846FEF75DFEFB7B002B40F09480FB794B4AD35C032B6CD801A252F823F000BF07F4010007F4010045F3010007F4010027F030F80346012B5DD0FB791846FEF799F90346002B08D1FB791846FDF714FF0346002B01D0012300E00023BB73BB7B002B48D0FA79374913465B00C1
S3850001F3801344DB009B1A0B440E331B78012118461CF07CFDFA79304913465B001344DB009B1A0B440F331B78002118461CF06EFDFA79294913465B001344DB009B1A0B4413331B78002118461CF060FDFA79224913465B001344DB009B1A0B4412331B78012118461CF052FDFA791B4913465B001344DB009B1A0B4411331B780021184634
S3850001F4001CF044FD01E000BF00E000BF26F090FF0346002B06D1FB791846FDF7B7FE0346002B01D1012300E000237B73FA790A4913465B001344DB009B1A0B4410331B787A7B114618461CF021FD00BF1037BD4680BD00BF101C00109C11050080B584B000AF0346FB710023FB73FB791846FEF725F80346BB73FB791846FEF705F903461F
S3850001F4807B73FB79704AD35C032B00F2D58001A252F823F0A5F40100A5F4010093F50100A5F40100BB7B002B3BD026F07DFF0346032B33D110F04AFF0346002B2ED0FB79624A162101FB03F3134402331B78012B24D0FB795D4A162101FB03F31344013308221A70FB79594A162101FB03F31344063300221A80022027F0C4F903469AB298
S3850001F500FB79114689000A44520090B24F4A162101FB03F31344083302461A800123FB738DE07B7B002B31D0FB79484A162101FB03F31344063300221A8026F035FF0346032B20D110F002FF0346002B1BD0FB793E4A162101FB03F3134402331B78032B11D0FB79394A162101FB03F31344013302221A70FB79354A162101FB03F313444B
S3850001F580083300221A800323FB7358E00423FB7355E0BB7B002B2CD00123FB7326F004FF0346032B4AD1FB79284A162101FB03F31344013308221A70FB79244A162101FB03F31344063300221A80022027F05AF903469AB2FB79114689000A44520090B21A4A162101FB03F31344083302461A8024E00323FB73FB79144A162101FB03F34D
S3850001F6001344063300221A8026F0CEFE0346032B14D1FB790D4A162101FB03F31344013302221A70FB79094A162101FB03F31344083300221A8001E000BF00E000BFFB7B18461037BD4680BD101C0010181C001080B582B000AF0023FB71F2F7C9FA0346002B42D1732027F0DDF80346002B08D0402018F0E5FC0346002B02D10123FB71B1
S3850001F68033E0762027F0CEF80346002B11D026F0BBFE0346052B09D026F0B6FE03460A2B04D026F0B1FE03460B2B02D10123FB711BE0132027F0B6F80346002B15D0382018F0BEFC0346002B02D10123FB710CE01FF066FA0346002B07D1392018F0B0FC0346002B01D10123FB71FB7918460837BD4680BD80B584B000AF0346FB71FB79EB
S3850001F70018460DF02DF90346022B06D0FB7918460DF026F90346012B01D1012300E00023FB73FB791846FDF775FC0346002B19D1FB791846FDF752FC0346002B12D0FB791846FDF709FD0346002B0BD1FB7904211846FBF759FDFB793C2200211846FEF71BF838E0FB791846FDF754FC0346002B26D1FB791846FDF731FC0346002B1FD049
S3850001F780FB791846FDF71CFD0346002B02D1FB7B002B09D0FB791846FDF7A8FD0346002B0ED1FB7B002B0BD0FB7903211846FBF72BFDFB793C2200211846FDF7EDFF0AE0FB7906211846FBF71FFDFB791E2200211846FDF7E1FF00BF1037BD4680BDFFFF80B584B000AF0346FB71FB791846FDF765FE03467B73F2F7FBF90346002B40F0FD
S3850001F800D08026F095FD0346002B00F0CA80FB79814A162101FB03F3134402331B78012B40F0BF804FF45B7027F05CF803461A467A4BA3FB0223DB08FB8101233B73FB79FF211846FCF7F4F90346FB72FB791846FDF79CFC0346BB72FB7A002B0CD0BB7A002B09D0892027F00DF80346FB81FB89002B01D12823FB81FB79694AD35C032B77
S3850001F88000F28B8001A252F823F000BF9DF801009DF8010015F901009DF801007B7B002B04D107F0F9F80346002B09D0FB795A4A162101FB03F31344083300221A806FE0FB79554A162101FB03F3134408331B88FA899A420BD2FB7909211846FBF794FCFB791E2200211846FDF756FF58E0FB794949162202FB03F20A4408321288013207
S3850001F90090B2454A162101FB03F31344083302461A8045E0FB791846FDF738FC0346002B3DD17B7B002B04D107F0B6F80346002B09D0FB79384A162101FB03F31344083300221A802BE0FB79334A162101FB03F3134408331B88FA899A420BD2FB7909211846FBF751FCFB791E2200211846FDF713FF14E0FB792849162202FB03F20A44C1
S3850001F98008321288013290B2234A162101FB03F31344083302461A8001E000BF38E000BF36E0FB791E4AD35C022B15D126F0C0FC0346002B10D1FB791846FDF7E7FB0346002B09D0FB79144A162101FB03F31344083300221A801BE0FB790F4A162101FB03F3134402331B78012B11D126F0A0FC0346002B0CD17B7B002B09D0FB79064ABE
S3850001FA00162101FB03F31344083300221A80FFE700BF1037BD4680BD181C0010CDCCCCCC101C001090B583B000AF00233B7100237B71862026F0F6FE0346002B00F09B8026F0D6FC0346022B42D126F071FC0346002B3DD10FF034FD0346002B38D012F083F803461C460CF039FF03469C422FD30023FB7126E0FB79444AD35C022B0DD080
S3850001FA80FB791846FCF782FD0346082B06D0FB791846FCF77BFD0346092B04D1FB793C4A0021D1540BE0FB79394AD35C1D2B06D8FB79374AD25C0132D1B2354AD154FB790133FB71334B1B78FA799A42D3D305E02F4B00221A702E4B00225A700023BB7144E0BB792A4AD35C1D2B8CBF01230023DAB2BB7907F108010B4403F8042CBB79C9
S3850001FB00224AD35C022B25D0BB7907F10802134413F8043C002B0CD0BB791846FCF736FD0346062B05D0BB7906211846FCF788F910E0BB7907F10802134413F8043C002B08D1BB79144AD35C002B03D0BB791846FCF7CAFDBA79BB7907F108010A4412F8041C0D4AD154BB790133BB71094B1B78BA799A42B5D33A797B791343DAB2074B8E
S3850001FB801A7000BF0C37BD4690BD00BF101C0010441C0010121C0010481C0010151C001080B584B000AF0346FB7115F0F1FC0346002B04D115F00AFD0346002B07D01C2026F030FE0346002B01D1012300E00023FB73DE2026F026FE0346002B40F03881FB79AB4AD35C012B40F0328126F0DCFB0346032B40F02C81FB7B002B40F0288113
S3850001FC00FB79A44A162101FB03F3134402331B78032B1BD0FB799F4A162101FB03F31344123300221A70FB799A4A162101FB03F31344133300221A70FB79964A162101FB03F31344143300221A701CE1FB79914A162101FB03F3134412331B78012B66D0022B00F0F180002B40F0DB80FA798A4913465B001344DB009B1A0B4415331B7806
S3850001FC8018461CF017F90346002B12D1FB79814A162101FB03F3134406331A88FB797D49162000FB03F30B4408331B889A4240F2CD80FA79784913465B001344DB009B1A0B4402331B78184618F0BAF90346002B00F0BC80FA79704913465B001344DB009B1A0B440D331B78184618F0A9F90346002B00F0AB80FB79664A162101FB03F33D
S3850001FD001344123301221A70FB79624A162101FB03F31344133300221A70FB795D4A162101FB03F31344143300221A708EE0FA79594913465B001344DB009B1A0B4402331B78184618F07CF90346002B3DD1FA79514913465B001344DB009B1A0B440D331B78184618F06CF90346002B2DD1FB794849162202FB03F20A44133212780132FB
S3850001FD80D0B24449162202FB03F20A44133201461170404A162101FB03F3134413331B78042B3DD9FB793B4A162101FB03F31344123302221A70FB79364A162101FB03F31344133300221A702AE0FB79314A162101FB03F31344133300221A70FB792D4A162101FB03F3134414331B78952B04D94FF44A7014F028FA29E0FB7925491622DB
S3850001FE0002FB03F20A44143212780132D0B2214A162101FB03F31344143302461A7016E015E0FB791B4A162101FB03F31344123300221A70FB79174A162101FB03F31344133300221A7002E000BF1CE000BF1AE0FB79104A162101FB03F31344123302221A70FB790B4A162101FB03F31344133300221A70FB79074A162101FB03F313441F
S3850001FE80143300221A7000BF1037BD4680BD00BF101C0010181C00109C11050080B500AF1E4B00221A701E4B00221A70F1F7A0FE0346002B30D126F0A7FA0346092B06D1164B01221A70164B01221A7024E026F09BFA0346032B04D026F096FA0346042B12D10D2018F0ACF80346002B02D00B4B01221A700C2018F0A3F80346002B0BD066
S3850001FF00074B01221A7007E026F07EFA03460A2B02D026F079FAFFE700BF80BD131C0010141C001080B582B000AF26F061FA0346BB7126F039FA0346032B65D10023FB7156E0FB79354AD35C022B4ED0FB79344A162101FB03F3134402331B78032B44D1FB792F4A162101FB03F3134403331B78032B3AD1FB792A4A162101FB03F3134454
S3850001FF8006331B88002B30D1FB79254A162101FB03F3134408331B88002B26D110F0B4F90346002B21D110F0D1F90346002B1CD105F040FD0346032B17D0FB79184A162101FB03F3134401331B78062B08D1154B1B78002B09D0144B1B78BA799A4204D0FB7908211846FBF72BFFFB790133FB710E4B1B78FA799A42A3D310F085F903462B
S385000200001A46084B1A7002E0064B00221A70064ABB79137000BF0837BD4680BD101C0010181C00104A1C00104B1C0010121C001090B587B000AF0346FB71FFF709FB0346FB75FB791846FDF71FFB0346BB75FB791846FDF733FA03467B75FB79BC4A162101FB03F3134404331B78032B6AD0FB79B74A162101FB03F313440C3300221A8038
S38500020080FB79B34A162101FB03F31344043303221A70FB79AE4A162101FB03F3134406331B88002B08D0FB79A94A162101FB03F31344063301221A80402026F0B3FB0346002B09D1FB79A24A162101FB03F313440A3300221A7035E0402026F0A3FB0346002B2FD0A52026F09DFB0346002B29D0FB79974A162101FB03F313440A331B781D
S38500020100002B1FD00021A52026F082FCFB79904A162101FB03F313440A331B78184630F05EFF89A3D3E9002330F04AFC03460C461846214630F018FF0346DBB21946BB2026F09AFCFB79834AD35C032B00F2398101A252F823F000BF69010200690102002903020069010200FFF772FA0346002B09D0FB79764A162101FB03F3134406338F
S3850002018000221A801FE126F00FF90346012B09D1FB796F4A162101FB03F313440C3300221A8010E1FB796A4A162101FB03F3134412331B78022B7CD115F0EAF90346002B04D115F003FA0346002B07D01C2026F029FB0346002B01D1012300E000237B74FB791846FCF7B8FF0346002B0CBF01230023DBB23B74FB79564AD35C012B06D167
S38500020200FB791846FDF708F90346002B09D0FB791846FCF75BFF0346002B04D17B7C002B01D1012300E000235AB297F9103013405BB23B74032026F025FB03469BB21A46920013445B00FB81FB79414A162101FB03F3134406331B881C46FB89FA793C49162000FB02F20A440832128813449C4205DDFB7906211846FDF7B8FA19E0FB7942
S38500020280334A162101FB03F3134406331A88FB792F49162000FB03F30B4408331B889A4207D93B7C002B04D1FB7905211846FDF79DFABB7D002B2DD1FB79254A162101FB03F313440C331B88C82B0BD9FB7905211846FAF799FFFB791E2200211846FDF75BFA70E0F1F784FC0346002B6BD1FB791749162202FB03F20A440C3212880132AF
S3850002030090B2134A162101FB03F313440C3302461A8058E0FB790E4A162101FB03F313440C3300221A804EE026F03EF80346012B12D17B7D002B48D0FB7901211846FDF755FA42E0AFF300809A9999999999F13F181C0010101C0010032026F093FA03469BB21A46920013445B007B827B8A002B1AD0FB79194A162101FB03F31344063340
S385000203801B881C467B8AFA791449162000FB02F20A440832128813449C4205DDFB7906211846FDF723FA10E0FB791846FDF786F80346002B09D0FB7901211846FDF716FA03E000BF02E000BF00E000BFFB791846FDF78AFE00BF1C37BD4690BD181C001090B585B000AF0346FB71FB79B44A162101FB03F313440A331C78BB2026F042FA96
S3850002040003469C4211D8FB79AD49162202FB03F20A440A3212780132D0B2A94A162101FB03F313440A3302461A7025F0BDFF0346032B1BD1402026F0F5F90346002B15D1BB2026F01FFA0346002B0FD0FB799C4A162101FB03F313440A331C78BB2026F011FA03469C4201D9012300E00023FB73FB791846FDF708F90346BB73FB791846E9
S38500020480FDF71CF803467B73FB798E4AD35C032B00F24F8101A252F823F000BFAD040200AD040200A5060200AD040200FFF7D0F80346002B09D0FB79814A162101FB03F31344063300221A8035E1BB7B002B03D1FB7B002B00F0C680FB79794A162101FB03F31344023303221A70FB79744A162101FB03F31344063300221A800FF026FF7E
S385000205000346002B08D0FB796D4A162101FB03F31344013307221A70FB79694A162101FB03F3134401331B78013B0D2B00F28E8001A252F823F000BF8505020085050200AD050200D5050200FD05020071050200710502004D0602004D0602004D0602004D0602004D0602004D06020025060200FB79534A162101FB03F31344083300223F
S385000205801A806DE0012026F07DF903469AB2FB79114689000A44520090B2494A162101FB03F31344083302461A8059E0052026F069F903469AB2FB79114689000A44520090B23F4A162101FB03F31344083302461A8045E0072026F055F903469AB2FB79114689000A44520090B2354A162101FB03F31344083302461A8031E0042026F0BB
S3850002060041F903469AB2FB79114689000A44520090B22B4A162101FB03F31344083302461A801DE00B2026F02DF903469AB2FB79114689000A44520090B2214A162101FB03F31344083302461A8009E0FB791C4A162101FB03F31344083301221A8000BF00BF68E0FB79164A162101FB03F3134406331B881C46022026F004F903461A46B3
S3850002068013469B0013445B009C4254D3FB7905211846FAF7B9FDFB791E2200211846FDF77BF848E025F080FE0346012B0CD17B7B002B42D0FB7901211846FDF797F83CE0181C0010101C0010032026F0DBF803469BB21A46920013445B007B817B89002B1AD0FB79194A162101FB03F3134406331B881C467B89FA791449162000FB02F2D2
S385000207000A440832128813449C4205DDFB7906211846FDF76BF810E0FB791846FCF7CEFE0346002B09D0FB7901211846FDF75EF803E000BF02E000BF00E000BFFB791846FDF7B2FE00BF1437BD4690BD181C001090B585B000AF0346FB71FB79844A162101FB03F313440A3300221A70FB791846FCF7A4FE0346FB73FB797E4AD35C032BA6
S3850002078000F2E88001A252F823F000BF9D0702009D070200D70802009D07020014F0F8FE0346002B04D114F011FF0346002B07D01C2026F037F80346002B01D1012300E00023FB72FB791846FCF7C6FC0346002B0CBF01230023DBB2BB72FB79654AD35C012B06D1FB791846FCF716FE0346002B09D0FB791846FCF769FC0346002B04D153
S38500020800FB7A002B01D1012300E000235AB297F90A3013405BB2BB72FEF71AFF0346002B09D0FB79524A162101FB03F31344063300221A8090E0FB7B002B1BD0FB794C4A162101FB03F31344023301221A70FB79474A162101FB03F31344063300221A80FB79434A162101FB03F31344083300221A8071E0BB7A002B13D0FB791846FCF7E1
S3850002088085FC0346002B0CD0FB791846FCF73EF90346002B1ED1FB7902211846FDF702F818E0FB79324A162101FB03F3134406331B881C46022025F0E5FF03461A4613469B0013445B009C4246D3FB791846FEF711FF41E040E025F067FD0346012B08D1FB7B002B3AD0FB7901211846FCF77EFF34E0032025F0C6FF03469BB21A4692004F
S3850002090013445B00BB81BB89002B1AD0FB79184A162101FB03F3134406331B881C46BB89FA791349162000FB02F20A440832128813449C4205DDFB7906211846FCF756FF0CE0FB7B002B09D0FB7901211846FCF74DFF03E000BF02E000BF00E000BFFB791846FDF713FF00BF1437BD4690BD00BF181C0010101C001090B585B000AF034684
S38500020980FB71FB79484A162101FB03F313440A3300221A70FB791846FCF790FD0346FB73FB79424AD35C032B70D801A252F823F0C1090200C10902004F0A0200C1090200FEF746FE0346002B09D0FB79364A162101FB03F31344063300221A8058E0FB79314A162101FB03F3134406331B881C46022025F047FF03461A4613469B00134462
S38500020A005B009C4204D9FB791846FEF773FE3FE0FB7B002B3CD0FB79234A162101FB03F31344023301221A70FB791F4A162101FB03F31344063300221A80FB791A4A162101FB03F31344083300221A8020E0FB7B002B1FD0FB79144A162101FB03F31344023301221A70FB790F4A162101FB03F31344063300221A80FB790B4A162101FB6E
S38500020A8003F31344083300221A8003E000BF02E000BF00E000BFFB791846FEF7B5F800BF1437BD4690BD00BF181C0010101C001080B584B000AF0346FB71FB79AA4A162101FB03F313440A3300221A70FB79A64A162101FB03F3134404331B78012B24D0FB79A14A162101FB03F313440E3300221A80FB799C4A162101FB03F31344043362
S38500020B0001221A70FB79984A162101FB03F3134406331B88002B08D0FB79934A162101FB03F31344063301221A80FB791846FCF7C5FC0346FB73042025F0A4FE03469BB21A46920013445B009BB23233BB81FB79864AD35C032B00F2F98001A252F823F0710B0200710B0200370C0200710B0200FEF76EFD0346002B1BD0FB797A4A16210B
S38500020B8001FB03F31344063300221A80FB79764A162101FB03F313440E3300221A80FB79714A162101FB03F313440C3300221A80CEE025F0F9FB0346012B00F0C980F1F717F80346002B2BD1FB7B002B28D1FB79654A162101FB03F313440E331B88C82B0BD9FB7906211846FAF70EFBFB791E2200211846FCF7D0FD1CE0FB795A4916225F
S38500020C0002FB03F20A440E321288013290B2564A162101FB03F313440E3302461A8009E0FB79514A162101FB03F313440E3300221A808DE08CE025F0B7FB0346012B11D1FB79494A162101FB03F313440E3300221A80FB7B002B7DD1FB7903211846FCF721FE77E0F0F7C4FF0346002B25D1FB7B002B22D1FB793C4A162101FB03F313443A
S38500020C800E331B880A2B05D9FB7903211846FCF709FE5AE0FB793449162202FB03F20A440E321288013290B22F4A162101FB03F313440E3302461A8047E0FB7B002B49D0FB79294A162101FB03F313440E3300221A80FB79244A162101FB03F3134410331B88BA899A4209D225F022FB0346002B04D1FB7918460FF089FE26E025F018FB6F
S38500020D000346002B17D10FF047FD0346002B12D0FB791549162202FB03F20A4410321288013290B2104A162101FB03F31344103302461A8009E0FB790B4A162101FB03F31344103300221A8004E003E000BF02E000BF00E000BFFB791846FEF761F900BF1037BD4680BD00BF181C0010101C001090B583B000AF0346FB71FB79A44A1621CA
S38500020D8001FB03F313440A3300221A70FB791846FAF752FA0346002B04D0FB791846FDF719F92CE125F000FB0346012B2CD1FB791846FDF70FF9FB791846FCF765FC0346002B11D1FB791846FCF778FB0346002B0AD1FB798E4A162101FB03F3134401331B78002B40F00B81FC79FB791846FEF735FB03461946864A162303FB04F3134447
S38500020E0002330A461A70FAE025F0F2FA0346002B00F0F580FB791846FCF750FB0346002B40F0D880FB791846FCF72EFC0346002B40F0D080FB791846FBF768FE0346002B10D1FB791846FBF703FD0346002B0FD1FB796F4A162101FB03F3134404331B78012B05D1FB7905211846FCF7BFFCB0E0FB791846FBF7ECFC0346002B10D1FB79FD
S38500020E801846FBF7AFFB0346002B0FD0FB79604A162101FB03F3134404331B78032B05D1FB7902211846FCF7FDFC92E014F070FB0346002B3DD0FB79554A162101FB03F3134404331B78002B33D1FC79FB791846FEF7C4FA034619464D4A162303FB04F3134402330A461A70FB79494A162101FB03F3134402331B78042B6AD1FB7918460A
S38500020F00FCF75EF90346002B09D0FB79404A162101FB03F31344043301221A7059E0FB793B4A162101FB03F31344043303221A704FE025F05DFA0346032B13D1FB791846FBF750FB0346002B0CD0FB791846FBF7DDFD0346002B05D1FB7906211846FAF76FFF36E0FB791846FBF73CFB0346002B1CD0FB79264A162101FB03F31344023339
S38500020F801B78052B12D0FB79214A162101FB03F3134402331B78062B08D0FB791C4A162101FB03F313441B78082B05D1FB7905211846FCF71BFC0CE0FB791846FBF712FB0346002B1AD0FB7906211846FCF76AFC14E013E0FB791846FCF7FCFFFC79FB791846FEF73BFA03461946094A162303FB04F3134402330A461A7000E000BFFB79F5
S385000210001846FEF77DF900BF0C37BD4690BD00BF181C001090B583B000AF25F089F90346002B0DD1092020F0A3FF03461C460BF077FC03469C4203D04FF4817013F004F90023FB71DFE0FB79744A162101FB03F3134406331B88002B09D1FB796F4A162101FB03F3134408331B88002B1ED0FB796A4A162101FB03F3134406331B8841F2DC
S385000210806F72934212D8FB796449162202FB03F20A4406321288013290B2604A162101FB03F31344063302461A8036E0FB795B4A162101FB03F3134408331B8841F2707293422AD9FB79554A162101FB03F3134408331A88FB795149162000FB03F30B4406331B88D31ABB80FB794C4A162101FB03F31344063300221A80BB8841F27072DA
S38500021100934201D8BA8800E00122FB794349162000FB03F30B4408331A80FB791846FAF75FFCFB791846FEF73BFDFB793B4A162101FB03F3134402331B78013B052B2DD801A252F823F000BF6B1102007F11020061110200751102008911020093110200FB791846FEF764FF35E0FB791846FFF79FFC30E0FB791846FFF7FAFD2BE0FB795D
S385000211801846FFF72DF926E0FB791846FFF7E0FA21E0FB791846FFF7EFFB1CE0FB791846FCF718FFFB791D4A162101FB03F313440A3300221A70FC79FB791846FEF74EF903461946154A162303FB04F3134402330A461A7000BFFB791846FEF701FBFA79FB790E49162000FB02F20A44023210780A4A162101FB03F31344033302461A700D
S38500021200FB790133FB71064B1B78FA799A42FFF41AAF00BF0C37BD4690BD00BF181C0010121C001080B584B000AF78607B6864221A817B6864225A810023FB7353E0FB7B374A162101FB03F31344013300221A70FB7B334A162101FB03F31344023300221A70FB7B2E4A162101FB03F31344043300221A70FB7B2A4A162101FB03F313446E
S38500021280063300221A80FB7B254A162101FB03F31344083300221A80FB7B214A162101FB03F313440A3300221A70FB7B1C4A162101FB03F313440C3300221A80FB7B184A162101FB03F313440E3300221A80FB7B134A162101FB03F31344103300221A80FB7B0133FB73FB7B012BA8D90BF018FB03460133DAB20B4B1A7000200BF030FBD5
S3850002130003461A46084B1A7001200BF029FB03461A46054B5A70002318461037BD4680BD181C0010121C0010101C001080B582B000AF7860114B1B78002B1AD00F4B1B78022B16D816F09AFB0346002B11D017F0ABFF0346002B0CD0F6F7E4F80346002B07D0FEF7DFFDFEF799FDFEF75BFBFFF751FE002318460837BD4680BD121C0010ED
S3850002138080B483B000AF78607B689B6818460C37BD465DF8047B704780B400AF034B1B881846BD465DF8047B704700BF581C001080B400AF034B1B881846BD465DF8047B704700BF5A1C001080B483B000AF084B1A68084B1B689A422CBF01230023DBB2FB71FB7918460C37BD465DF8047B70474C1C0010541C001080B483B000AF084B0E
S385000214001A68084B1B689A422CBF01230023DBB2FB71FB7918460C37BD465DF8047B7047501C0010541C001080B584B000AF78607B680A221A817B6805225A81D42025F0F1F90346002B02D020F0E6FB01E020F0C7FB0D4B00221A600C4B00221A607C2025F010FA0346FB73FB7BC72B01D8C823FB73FA7B13469B001344054A1360002372
S3850002148018461037BD4680BD501C00104C1C0010541C001080B586B000AF78607B681B68184621F00BFB0346FB757B681B68184621F011FB0346BB757B681B68184621F01AFB0346BB8221F079FA03461A46012393407B82BB7D012202FA03F33B82B7F91230DB431AB2B7F9143013401AB2B7F91030DB431BB213401BB2FB817B680C3388
S38500021500082219460A482EF008FDFB7D1946084821F08EFABB8A184600F0D2FC0346002B02D0786801F08CF800BF1837BD4680BD601C001080B485B000AF786039600023FB737B685B0EDBB203F00F03BB737B681B0DDBB203F01F037B737B68DB0BDBB203F01F033B737B689B0ADBB203F01F03FB723B681B7ABA7B9A4219D13B7B1F2B2B
S3850002158004D03B685B7A3A7B9A4211D13B68DB7A7A7B9A420CD23B685B7A7A7B9A4207D07B7B074AD35CFA7A9A4201D20123FB73FB7B18461437BD465DF8047B704700BF7801001080B584B000AF0023FB7327E0454820F03FFB0346002B02D11023FB7321E04148FFF756FF3F4B1B68184621F072FA03467B737B7B032B02D07B7B042BBF
S3850002160002D13A4B00221A607B7B052B02D07B7B062B02D1364B00221A60FB7B0133FB73FB7B0F2BD4D90023BB7355E02E4820F041FB0346002B02D11023BB734FE02A4B1B682C491846FFF775FF0346002B16D03B1D0822284918462EF05FFC224B1B681B0D03F01F03254A52F823001E4B1B689B0A03F01F033A1D19462CF02EF81A4B66
S385000216801B681B0D03F01F03022B1FD1164B1B689B0A03F01F03002B06D1194820F08AF8184B00229A8214E00F4B1B689B0A03F01F03012B06D1144820F07CF8134B00229A8206E0124820F075F802E0114820F071F8BB7B0133BB73BB7B0F2BA6D900BF1037BD4680BD00BF681C00104C1C0010501C00101C1D0010741C00106C010010DC
S38500021700CC110500D81F0010D0110500F01F0010D4110500D811050080B500AF24F074FE0346092B1DD0104B1A68104B1B689A4205D20D4B1B6805330B4A136002E07F2012F082FD0A4B1A68084B1B689A4205D2074B1B680533064A136002E0822012F073FD00BF80BD00BF4C1C0010541C0010501C001080B582B000AF0023FB7146E05C
S385000217800023BB713DE0FB790021184600F0E8FA0346002B08D1BA79FB791146184622F095F90346012B10D0FB790021184600F0D7FA0346002B10D0BA79FB791146184622F084F903460D2B07D1FB799BB203F20D139BB2184612F037FDBA79FB791146184622F073F903460A2B07D1FB799BB203F58E739BB2184612F026FDBB790133ED
S38500021800BB71BB79072BBED9FB790133FB71044B1B78FA799A42B3D300BF0837BD4680BD5C1C001080B500AF1848FFF7A9FD034603F08003002B0FD00122012113482CF097FF00BF00BF00BF002201210F482CF08FFF5D200CF059FE0D48FFF791FD034603F08003002B0FD00122012108482CF07FFF00BF00BF00BF0022012104482CF09F
S3850002188077FF5E200CF041FE00BF80BD004004400080044080B582B000AF2248FFF770FD78607B681B0CFB707B681B0EBB701E4B1B78FA789A4204D81C4B1B78BA789A4205D91B4B1B8801339AB2194B1A80164AFB781370154ABB7813701648FFF750FD78607B681B0CFB707B681B0EBB70124B1B78FA789A4204D8104B1B78BA789A42CD
S3850002190005D90F4B1B8801339AB20D4B1A800A4AFB781370094ABB78137000BF0837BD4680BD00BF004004407C1C00107D1C0010581C0010008004407E1C00107F1C00105A1C001080B500AFA32016F079FB0346002B04D103F04AFC0346002B03D0044B07221A7002E0024B05221A7000BF80BD5C1C001080B584B000AF0346FB801D2061
S3850002198020F0FAFF0346002B3ED01D2020F0E2FF21F0D6FD03460821184616F095FA21F0DBFD03460921184616F08EFA21F0E0FD03460A21184616F087FA21F0E5FD03460B21184616F080FA21F0EAFD03460C21184616F079FA21F0EFFD03460D21184616F072FA21F0F4FD03460E21184616F06BFA21F0F9FD03460F21184616F064FAFA
S38500021A00D54B00221A800BE0C62020F0B5FF0346002B05D0C62020F09DFFCF4B00221A801E2020F0A9FF0346002B3ED01E2020F091FF21F0E5FD03461021184616F044FA21F0EAFD03461121184616F03DFA21F0EFFD03461221184616F036FA21F0F4FD03461321184616F02FFA21F0F9FD03461421184616F028FA21F0FEFD034615211A
S38500021A80184616F021FA21F003FE03461621184616F01AFA21F008FE03461721184616F013FAAD4B00225A800BE0C72020F064FF0346002B05D0C72020F04CFFA64B00225A801F2020F058FF0346002B3ED01F2020F040FF21F0F4FD03461821184616F0F3F921F0F9FD03461921184616F0ECF921F0FEFD03461A21184616F0E5F921F05B
S38500021B0003FE03461B21184616F0DEF921F008FE03461C21184616F0D7F921F00DFE03461D21184616F0D0F921F012FE03461E21184616F0C9F921F017FE03461F21184616F0C2F9844B00229A800BE0C82020F013FF0346002B05D0C82020F0FBFE7E4B00229A80202020F007FF0346002B3ED0202020F0EFFE21F003FE03462021184610
S38500021B8016F0A2F921F008FE03462121184616F09BF921F00DFE03462221184616F094F921F012FE03462321184616F08DF921F017FE03462421184616F086F921F01CFE03462521184616F07FF921F021FE03462621184616F078F921F026FE03462721184616F071F95C4B0022DA800BE0C92020F0C2FE0346002B05D0C92020F0AAFE6A
S38500021C00554B0022DA80212020F0B6FE0346002B3ED0212020F09EFE21F012FE03462821184616F051F921F017FE03462921184616F04AF921F01CFE03462A21184616F043F921F021FE03462B21184616F03CF921F026FE03462C21184616F035F921F02BFE03462D21184616F02EF921F030FE03462E21184616F027F921F035FE0346AD
S38500021C802F21184616F020F9334B00221A810BE0CA2020F071FE0346002B05D0CA2020F059FE2D4B00221A81A32016F0C9F90346002B04D103F09AFA0346002B29D0222020F05AFE0346002B05D1CB2020F054FE0346002B08D0222020F03CFECB2020F039FE1D4B00225A81232020F045FE0346002B05D1CC2020F03FFE0346002B08D0D4
S38500021D00232020F027FECC2020F024FE124B00229A810023FB7315E0FB7B0F4A32F8133042F20F7293420AD8FB7B0B4A32F81310FB7BFA880A4491B2074A22F81310FB7B0133FB73054B1B78FA7B9A42E4D300BF1037BD4680BD00BF1C0100105C1C001080B584B000AF03460A46FB711346BB710023FB73FB790A4A32F8133042F20F72F4
S38500021D80934207D8BA79FB791146184621F078FE0346FB73FB7B18461037BD4680BD00BF1C01001080B582B000AF7860FFF70AFCFFF7C8FD24F0BCFA0346002B07D10320FAF710FC0346002B01D0FFF7D3FCFFF7A3FCFFF727FDFFF75DFD1FF085FF7B685B891846FFF7C6FD002318460837BD4680BDFFFF80B483B000AF11237B7100239A
S38500021E00FB717B79013BDBB2BB7112E097F906300F4A13443B603B681B782E2B03D1BB790133FB7109E097F90630DBB2013BDBB2BB7197F90630002BE8DAFB79044A1344044A136000BF0C37BD465DF8047B7047DC110500A01C001080B582B000AF01237B6020F0ABFD03461A460F4B1A700E4B1B78012B00D003E00C4B77221A7000BF61
S38500021E800A4B1B78002B06D0084B1B78194608482BF05AFC78607B68002B00D0FEE700BF0837BD4680BD00BFA41C0010A51C0010801C001080B500AF01F0BEFD00BF80BD80B485B000AF0346FB800423BB810023FB73BA89FB8813409BB2002B01D00123FB73FB7B18461437BD465DF8047B704780B485B000AF0346FB8040F67823BB8120
S38500021F000023FB73BA89FB8813409BB2002B01D00123FB73FB7B18461437BD465DF8047B704780B485B000AF0346FB710B46BB711346BB80FB795B051A46BB799B0303F470331A43BB88C3F30D03134343F0804343F48023FB60FB6818461437BD465DF8047B704780B588B000AF0023FB610023BB610123BB750023FB75B5E05E482BF011
S38500021F8088FC0346BB82BB8A002B00F0AA80BB8ADBB2013BFB74594B1B78FA7C9A4280F0A080FB7C3A1D194653482BF071FB20F005FD0346BB74FB7C184620F0C7FB03467B747B7C184620F01FFD0346FB813B1D082219464A482DF0A0FF4A4B08229A60484B00225A60474B4FF080421A60454B1B687A7C52051343424A1360414B1A688A
S38500022000BB7D9B0403F4E01313433E4A13603D4B1A68BB7C9B0303F470331343394A1360384B1A68FB891343364A1360364B1B78002B12D0FB7C184620F014FC03467B747B7C972B09D17B7C43F6FF7203211846FFF767FF02462B4B1A60FB891846FFF747FF0346002B09D026481FF00DFE0346002B0CBF01230023DBB2BB61BB69002BA6
S3850002208010D1FB891846FFF71BFF0346002B09D01C4800F0D5FA0346002B0CBF01230023DBB2FB61FA69BB691343002B19D0FB7C194611482BF0D0FA0F4BDB8A002B06D00D4BDB8A013B9AB20B4BDA8206E00A4B1B699BB2013B9AB2074BDA820323FB7506E0FB7D0133FB75FB7D022B7FF646AF00BF2037BD4680BD801C0010A51C0010AE
S38500022100B41C0010A81C0010541F001080B500AF01F0CFFF00BF80BD80B582B000AF7C2024F0B0FB0346FB71FB79C72B01D8C823FB71FA7913469B001344234A82FB0312DB17D31ABB80214ABB8893830023BB711DE0BB79184620F0F9FA0346FB70FB78184620F037FC03463B803B884FF6FF72934209D03B885B0899B2144BDA68BB7910
S385000221809B0013440A461A60BB790133BB71104B1B78BA799A42DCD30C4BDB6880336FF000421A60094BDB6884336FF000421A60064BDB6803F5D8736FF000421A6000BF0837BD4680BD00BF56555555801C0010A51C001080B582B000AF78607B6805221A817B6805225A81FFF796FFFFF702FE002318460837BD4680BD80B582B000AF3A
S385000222007860FFF757FEFFF7ADFE1FF06DFDFFF77DFF002318460837BD4680BD80B582B000AF174B02221A72154B0322DA72144B01225A72124B1F229A7200237B6012E0104A7B6852F823000F4A7B6813441B7819462BF079FA38603B68002B00D0FEE77B6801337B60064BDB7A1A467B689342E6DB064B08229A6000BF0837BD4680BDCA
S385000222801C1D00106C01001078010010281D001080B400AF00BFBD465DF8047B7047FFFF80B586B000AF00233B610023FB81604B5B7A7B730023FB75B1E07B7B5D4A52F8233018462BF0E5FA0346FB81FB89002B00F0A280FB89DBB2013B3B737B7B564AD35C3A7B9A4280F097807B7B514A52F82330397B3A4618462BF0CAF93B460822C1
S3850002230019464E482DF009FE3B7B002B11D13B7B9B0243F0804343F48033454A527A12051A43434B1B7A5B0613431A46444B1A6027E03B7B012B11D13B7B9B0243F0804343F480333A4A527A12051A43384B1B7A5B0613431A463A4B1A6012E03B7B9B0243F08042324B9B7ADB031A43304B5B7A1B051A432E4B1B7A5B0613431A46304BD0
S385000223801A6030482CF03FFA0346FB72FB7A2C4A19462C4822F08AFC0346002B0CBF01230023DBB23B613B69002B28D07B7B214A52F823303A7B114618462BF04DF97B7B1C4A52F82330DB8A002B08D07B7B194A52F82330DA8A013A92B2DA820CE07B7B144A52F823301B699AB27B7B114951F82330013A92B2DA820223FB7513E03B7BFB
S38500022400002B03D110481FF0D5F905E03B7B012B02D10E481FF0CEF9FB7D0133FB75FB7D012B7FF64AAF00BF1837BD4680BD00BF1C1D00106C01001078010010341D0010281D001000800440F0110500F411050080B582B000AF3B461A4600211B482BF017F93A781A4B9A717A78194BDA71BA78174B1A72FA78164B5A723A79144B9A7200
S385000224807A79134BDA72FA79114B1A733B461A4601210E482BF0FCF83A780E4B9A717A780C4BDA71BA780B4B1A72FA78094B5A723A79084B9A727A79064BDA72FA79054B1A7300BF0837BD4680BD00BFFC1C0010D81F0010F01F001080B582B000AF3B460822002118462DF01AFD1F4B1B783B701D4B5B787B701C4B9B78BB701A4BDB7847
S38500022500FB70194B1B793B71174B5B797B710023FB713B461A46002114482BF0DEF83B460822002118462DF0FAFC114B1B783B700F4B5B787B700E4B9B78BB700C4BDB78FB700B4B1B793B71094B5B797B710023FB713B461A46012104482BF0BEF800BF0837BD4680BD00BFD81F0010DC1C0010F01F001080B584B000AF78607B6805222B
S385000225801A817B6805225A817E2024F07BF90346FB81FB891D2B02D81E23FB8104E0FB89962B01D99623FB81FA89144B5B7A1946134B53F82130D96813469B0013440B60FA890E4B5B7A19460D4B53F82130DB68191D13469B0013440B60084B5B7A1A46074B53F82220FB89194689000B449BB29383002318461037BD4680BD1C1D0010BD
S385000226006C01001080B582B000AF7860FFF740FEFFF71EFFFFF760FFFFF742FE002318460837BD4680BDFFFF80B400AF034B1B881846BD465DF8047B704700BF601D001080B59AB000AF7860002387F867300023BB65002387F857307B683B6600233B6519E03B6E5A1C3A661B7887F8423097F8572097F84230134487F85730BB6D5A1CDB
S38500022680BA6507F16802134497F8422003F83C2C3B6D01333B653B6D032BE2DD7B680C33FB650023FB6419E0FB6D5A1CFA651B7887F8423097F8572097F84230134487F85730BB6D5A1CBA6507F16802134497F8422003F83C2CFB6C0133FB64FB6C072BE2DDBB6D5A1CBA6507F16802134497F8572003F83C2C0023BB64BB6C5A1CBA647B
S3850002270007F168021344552203F8602C00237B642DE007F12C027B6C13441B7887F8433097F84330552B07D097F84330562B03D097F843301B2B0DD1BB6C5A1CBA6407F1680213441B2203F8602C97F84330DB4387F84330BB6C5A1CBA6407F16802134497F8432003F8602C7B6C01337B647A6CBB6D9A42CDDBBB6C5A1CBA6407F16802ED
S385000227801344562203F8602C07F10803B96C18461FF068FF0346002B08D0074B5B780133DAB2054B5A70012387F8673097F8673018466837BD4680BD501D001080B586B000AF78607B681B68184620F077F90346FB757B681B68184620F07DF90346BB757B681B68184620F086F90346BB8220F0E5F803461A46012393407B82BB7D0122AA
S3850002280002FA03F33B82B7F91230DB431AB2B7F9143013401AB2B7F91030DB431BB213401BB2FB817B680C33FA7D1146184620F0FFF8BB8A1846FFF75BFB0346002B02D078681FF021FA034B00221A6000BF1837BD4680BD5C1D001080B582B000AFC423FB71ABE0FB79013BFB715C4B1B781F2B0FD95B4B1B790133DAB2594B1A71574B9F
S3850002288000221A70574B1B8801339AB2554B1A8056E07B791B2B03D1534B01221A704FE07B79552B06D14D4B00221A704F4B00221A7038E07B79562B26D1484B1B78002B31D0464B1B78013B494AD35CBB71474B1A78BB79D31ADAB2444B1A70434B1B78BA799A4203D1434B01221A701BE03C4B9B780133DAB23A4B9A703A4B1B88013305
S385000229009AB2384B1A800EE0374B1B78002B03D07B79DB43DBB27B71344B1A787B791344DAB2324B1A702D4B1B785A1CD1B22B4A11701A4679792E4B99542B4B00221A702C4B1B78002B39D02A4B00221A70234B00221A70284B00221A70214B1B780133DAB21F4B1A70224B5B781A46234B1A60224B1B681E4A9278120213431F4A13601C
S385000229801E4B1B681A4AD278120413431B4A13601A4B1B68164A127912061343174A1360164B08229A60154B00225A600822144914482DF0B2FA1148FFF700FF7B1D18461FF06EFE0346002B03D0FB79002B7FF449AF00BF0837BD4680BD00BF621D0010501D0010601D0010631D0010641D0010681D0010881D0010551D00103C1D001073
S38500022A006D1D0010481D001080B500AF23F0FCFC0346092B0ED0084B1A68084B1B689A4205D2054B1B680533034A136002E0852011F00AFC00BF80BD5C1D0010581D001080B582B000AF78607B6805221A817B6805225A817C2023F015FF03461A460C4B1A700B4B1B78C72B02D8094BC8221A70074B1B781A4613469B001344054A1360A0
S38500022A80054B00221A60002318460837BD4680BD551D0010581D00105C1D001080B582B000AF7860FFF7D8FEFFF7AEFF1FF01CF9002318460837BD4680BDFFFF80B582B000AF3B460822002118462DF028FA3A4B9B793B70384BDB797B70374B1B7ABB70A12015F035F90346002B04D0A12015F0A7FA034601E0304B5B7AFB702E4B9B7AF6
S38500022B003B712D4BDB7A7B712B4B1B7BFB713B461A46272129482AF0E0FD3B2023F082FE0346002B32D0254BDB68A03342F210721A603B460822002118462DF0F0F9204B9B793B701E4BDB797B701D4B1B7ABB70A22015F0FDF80346002B04D0A22015F06FFA034601E0164B5B7AFB70144B9B7A3B71134BDB7A7B71114B1B7BFB713B46FE
S38500022B801A4628210D482AF0A8FD11E03B460822002118462DF0C3F93B461A46282107482AF09BFD054BDB68A0336FF000421A6000BF0837BD4680BDD81F0010801C0010F01F001090B585B000AF0023FB732F2023F028FE0346002B00F05C8123F0E4FB0346032B40F05681A34BDB68983342F210721A602621A0482AF00EFD0346002B79
S38500022C0040F05A819D4B1B780133DAB29B4B1A709A4B1C788E2023F035FE03469C42C0F01481964B00221A70954B1A78954B1B789A4208D0934B1A78914B1A70924B00221A600123FB730822002190482DF067F98C4B1B78042B00F2F48001A252F823F0752C0200AD2C0200152D0200912D02000D2E0200864B1B68002B04D0844B1B68B3
S38500022C80013B834A13601BF05BF80346002B00F0DE807F4B1B68002B40F0D9807C4B4FF4FA621A60774B01221A70D0E0FB7B002B13D0764B53221A70744B4F225A70734B54229A70714B16225A607D2023F0DAFD03461A466D4BDA71BBE06B4B1B68DAB26A4B1A70684B1B68DBB218461BF098F803461A46654B5A60634B1B680133624A54
S38500022D001360614B1B68152B40F2A3805D4B02221A709EE0FB7B002B0ED05C4B53221A705A4B4F225A70594B41229A701BF020F80246564B5A608EE0534B1A683B1D114618461BF02DF80346002B11D0B7F904309AB24E4B1A80B7F906309AB24B4B5A80BB684A4A5360484B1B68DAB2474BDA71454B1B680133444A1360434B1C681AF0F2
S38500022D80F7FF03469C4266D33E4B03221A7062E0FB7B002B0ED03D4B53221A703B4B4F225A703A4B44229A701AF0EEFF0246374B5A6052E0344B1A683B1D114618461BF00FF80346002B11D0B7F904309AB22F4B1A80B7F906309AB22C4B5A80BB682B4A5360294B1B68DAB2284BDA71264B1B680133254A1360244B1C681AF0C5FF0346B6
S38500022E009C422AD31F4B04221A7026E0FB7B002B0CD01E4B45221A701C4B4F225A701B4B44229A70194B00225A6017E01AF088FF0346002B02D1134B00221A701AF08CFF0CE0104B00221A7008E000BF06E000BF04E000BF02E000BF00E000BF0B4A262105482AF03AFC074B1B78002B24D0262101482AF0F1FB1FE0801C0010891D0010FC
S38500022E808A1D00108B1D00108C1D0010901D0010981D00100B4BDB6898336FF000421A60094B00221A60084B00225A60064A262104482AF012FC00E000BF00BF1437BD4690BD00BF801C0010901D001080B582B000AF002009F0D4FD03463B60012009F0CFFD03467B603B461A460D212B482AF0F4FB022009F0C4FD03463B60032009F001
S38500022F00BFFD03467B603B461A460E2123482AF0E4FB042009F0B4FD03463B60052009F0AFFD03467B603B461A460F211B482AF0D4FB062009F0A4FD03463B60072009F09FFD03467B603B461A46102113482AF0C4FB002009F0ACFD03463B60012009F0A7FD03467B603B461A4611210B482AF0B4FB022009F09CFD03463B60032009F0C3
S38500022F8097FD03467B603B461A46122103482AF0A4FB00BF0837BD4680BD00BF801C001080B582B000AF3B460822002118462CF0B6FF022018F0ACFE03463B80032018F0A7FE03467B80012018F0A2FE0346DBB2BB71042018F09CFE0346DBB2FB713B461A461621DC482AF078FB3B460822002118462CF094FF042018F08AFE0346DBB254
S385000230003B70052018F084FE0346DBB27B70062018F07EFE0346DBB2BB70072018F078FE0346DBB2FB703B461A461521CA482AF054FB3B460822002118462CF070FF082018F066FE0346DBB23B70092018F060FE0346DBB27B700A2018F05AFE0346DBB2BB700B2018F054FE0346DBB2FB700C2018F04EFE0346DBB23B710D2018F048FE22
S385000230800346DBB27B710E2018F042FE0346DBB2BB710F2018F03CFE0346DBB2FB713B461A461721AC482AF018FB3B460822002118462CF034FF102018F02AFE0346DBB23B70112018F024FE0346DBB27B70122018F01EFE0346DBB2BB70132018F018FE0346DBB2FB70142018F012FE0346DBB23B71152018F00CFE0346DBB27B71162035
S3850002310018F006FE0346DBB2BB71172018F000FE0346DBB2FB713B461A4618218E482AF0DCFA3B460822002118462CF0F8FE182018F0EEFD0346DBB23B70192018F0E8FD0346DBB27B701A2018F0E2FD0346DBB2BB701B2018F0DCFD0346DBB2FB701C2018F0D6FD0346DBB23B711D2018F0D0FD0346DBB27B711E2018F0CAFD0346DBB23C
S38500023180BB711F2018F0C4FD0346DBB2FB713B461A46192170482AF0A0FA3B460822002118462CF0BCFE202018F0B2FD0346DBB23B70212018F0ACFD0346DBB27B70222018F0A6FD0346DBB2BB70232018F0A0FD0346DBB2FB70242018F09AFD0346DBB23B71252018F094FD0346DBB27B71262018F08EFD0346DBB2BB71272018F088FDD4
S385000232000346DBB2FB713B461A46672152482AF064FA3B460822002118462CF080FE282018F076FD0346DBB23B70292018F070FD0346DBB27B702A2018F06AFD0346DBB2BB702B2018F064FD0346DBB2FB702C2018F05EFD0346DBB23B712D2018F058FD0346DBB27B712E2018F052FD0346DBB2BB712F2018F04CFD0346DBB2FB713B46AC
S385000232801A46682134482AF028FA01F0AFFF0346002B05D1A32014F0D3FE0346002B57D03B460822002118462CF039FE01F0C0FF03463B7001F0F2FF03467B7002F024F80346BB7002F056F80346FB7002F088F803463B7102F0BAF803467B7102F0ECF80346BB7102F01EF90346FB713B461A46752119482AF0F1F93B460822002118460D
S385000233002CF00DFE02F044F903463B7002F076F903467B7002F0A8F90346BB7002F0DAF90346FB7002F00CFA03463B7102F03EFA03467B7102F070FA0346BB7102F0A2FA0346FB713B461A46762103482AF0C5F900BF0837BD4680BD801C001080B582B000AF3B460822002118462CF0D8FD20F023FF03463B6021F0B5F903467B603B4656
S385000233801A46692103482AF0A8F900BF0837BD4680BD00BF801C001080B582B000AF3B460822002118462CF0BAFD03F0BBFD03463B7016F0A3FF03467B7002F03BFB0346BB700FF0CBFC0346FB7012F097F903463B7112F0D3F903467B7120F057FD0346184609F055F80346BB7109F085F80346FB713B461A460421BB482AF06EF93B4602
S385000234000822002118462CF08AFDEEF76FFC03463B70EEF75DFC03467B70EEF775FC0346BB70EEF77FFC0346FB7009F0A5FD0346013B2B2B00F2B98101A252F823F000BFF134020005350200AB370200AB37020019350200AB37020023350200AB370200AB370200AB370200AB370200AB370200AB370200AB370200AB370200AB37020046
S38500023480AB370200AB370200AB370200AB370200AB3702002D350200DF360200F1360200AB370200AB370200AB370200AB370200AB37020019370200AB370200AB370200AB370200AB370200AB370200AB370200AB370200AB37020023370200353702004B37020087370200933702009F370200002021F005FD03467B71FDF74DFF034623
S38500023500FB8055E1012021F0FBFC03467B71FDF74FFF0346FB804BE1FFF786F80346FB8046E1F7F7C1F80346FB8041E122F048FF0346052B0CBF01230023DBB29BB2FB80F8F788FE03465B0003F00203FA8812B21BB213431BB29BB2FB80F8F729FE03469B0003F00403FA8812B21BB213431BB29BB2FB8022F0DCFE0346DB0003F00803CE
S38500023580FA8812B21BB213431BB29BB2FB80EEF73DFB03461B0103F01003FA8812B21BB213431BB29BB2FB80EEF74CFB03465B0103F02003FA8812B21BB213431BB29BB2FB80202014F03CFD0346002B01D1402300E00023FA8812B21BB213431BB29BB2FB80EEF74BFB0346DB0103F08003FA8812B21BB213431BB29BB2FB80432014F008
S385000236001FFD03461B0203F48073FA8812B21BB213431BB29BB2FB80FB881AB2334B93F88D305B021BB203F400731BB213431BB29BB2FB80EEF730FB03469B0203F48063FA8812B21BB213431BB29BB2FB800BF027F90346DB0203F40063FA8812B21BB213431BB29BB2FB80EEF7FAFA03461B0303F48053FA8812B21BB213431BB29BB283
S38500023680FB800BF025F903465B0303F40053FA8812B21BB213431BB29BB2FB8022F060FE0346002B02D04FF4804300E00023FA8812B21BB213431BB29BB2FB8029F022FF0346002B02D04FF4004300E00023FA8812B21BB213431BB29BB2FB8068E0EEF781FB03467B6063E0801C00101C1B0010424B1B681B783B71404B1B6801331B7854
S385000237007B713E4B1B6802331B78BB713B4B1B6803331B78FB714BE0F3F75CFE03467B6046E00CF057FE0346BB800CF0A5FE0346FB803DE00CF0F2FE0346BB8003F0ACF90346BB710023FB7132E00AF08BFC0346DB077B600AF09EFC03461A067B6813437B600AF031FC03461A03254B13407A6813437B600AF012FC0346C3F30B027B68F9
S3850002378013437B6014E0F7F731F903469BB2FB800EE00020F8F708FB03467B6008E00120F8F702FB03467B6002E00023FB8000BF3B461A460521134829F08FFF3B460822002118462CF0ABFBEEF7E4FA03463B60EEF7D2FA03467B6008F03EFE0346FB70EEF7F4FA0346FB713B461A462521054829F073FF00BF0837BD4680BDA01C00100D
S3850002380000F0FF00801C001080B582B000AF3B460822002118462CF082FB3B4618460DF0D5FE20F05FFC034603F07F03DBB2BB7001F036F80346DB0103F08003BA7852B25BB213435BB2DBB2BB700AF017FC03461A46FB781343DBB2FB7002F025FF03461A463B791343DBB23B7102F029FF03461A467B791343DBB27B713B461A462421FF
S38500023880034829F02AFF00BF0837BD4680BD00BF801C001090B583B000AF3B460822002118462CF03CFB0021002013F0DDFF0446002100201EF0C4F8034623433B600021012013F0D1FF0446002101201EF0B8F8034623437B603B461A466F21264829F0FCFE0121002013F0BFFF0446012100201EF0A6F8034623433B600121012013F081
S38500023900B3FF0446012101201EF09AF8034623437B603B461A467121174829F0DEFE0021022013F0A1FF0446002102201EF088F8034623433B6000237B603B461A4670210D4829F0CAFE0121022013F08DFF0446012102201EF074F8034623433B6000237B603B461A467221034829F0B6FE00BF0C37BD4690BD00BF801C001080B586B047
S3850002398000AF09F0F9FA03462D2B40D1294BDB6803F5E67343F698221A60264BDB6803F5E87343F698221A6007F108030021184621F012FD3B7A3B707B7A7B70BB7ABB70FB7AFB703B7B3B717B7B7B71BB7BBB71FB7BFB713B461A467321164829F07DFE3B7C3B707B7C7B70BB7CBB70FB7CFB703B7D3B7100237B710023BB710023FB719F
S38500023A003B461A4674210B4829F067FE0DE0094BDB6803F5E6736FF000421A60054BDB6803F5E8736FF000421A6000BF1837BD4680BD00BF801C001080B582B000AFFFF7ABFCFFF78BFCFFF7ABFA3B460822002118462CF064FA7B4B1B683B60794BDB687B603B461A460A21774829F036FE754B5B683B60734B1B697B603B461A460B21B8
S38500023A80714829F02AFE6F4B9B683B606D4B5B697B603B461A460C216B4829F01EFEFFF715FA3B460822002118462CF038FA22F0EDFC03463B7022F083FC03467B7002F0EBFF0346BB70EEF793F80346FB7022F0A7FC03467B6022F0E5FC0346FB713B461A460621584829F0F8FD3B460822002118462CF014FA22F057FC03463B7022F084
S38500023B0077FC03467B7022F07FFC0346BB7022F063FC0346FB7022F0ADFC0346BB8009F0B7F803469BB2FB803B461A460721464829F0D3FD3B460822002118462CF0EFF922F07CFC03463B6022F0B8FC0346FB7022F082FC03467B600BF0B2FC0346FB713B461A460821384829F0B7FD3B460822002118462CF0D3F90020F9F7BDF8034659
S38500023B803B700120F9F7B8F803467B7007201EF0EFF90346BB702D4B1B78FB70F4F70AFB03467B603B461A460921274829F095FD3B460822002118462CF0B1F922F0B8FB03463B7022F0C0FB0346DBB27B7022F0C7FB03469BB27B8022F0CEFB03467B6022F0D6FB0346FB713B461A461F21164829F073FDF3F758FDFFF706FEFEF7E2FF93
S38500023C00FEF75CFF3B460822002118462CF087F9F6F758FB03463B70F6F760FB03467B80F6F768FB03467B603B461A466A21064829F053FDFFF72EFEFFF7A0FE00BF0837BD4680BD34200010801C0010541F001090B583B000AF4A201EF08EFE0346002B00F0C1804A201EF075FE0FF099FD604B1B78002B09D05F4B1A685D4B1B78013B13
S38500023C801A4413786FF3000313705B4B1B78002B09D0584B1A68584B1B78013B1A4413786FF34103137008F03BFE0346002B1BD04F4B5B78002B09D04E4B1A684C4B5B78013B1A4413786FF3000313704A4B5B78002B09D0474B1A68474B5B78013B1A4413786FF34103137020F034F903461A463F4B1A7020F03AF903461A463C4B5A7008
S38500023D0020F040F903461A463B4B1A7020F046F903461A46384B5A700023FB711AE0FB79334AD45C08F0DAFD03469C4203D9FB792F4A0021D154FB792F4AD45C08F0CEFD03469C4203D9FB792B4A0021D154FB790133FB71FB79012BE1D90EF02FFC0346002B40D1254B9B7B002B3CD1204B1B78002B09D01F4B1A681D4B1B78013B1A44D6
S38500023D80137843F0010313701B4B1B78002B09D0184B1A68184B1B78013B1A44137843F00203137008F0BCFD0346002B1BD0104B5B78002B09D0124B1A680D4B5B78013B1A44137843F0010313700B4B5B78002B09D00B4B1A68084B5B78013B1A44137843F00203137000BF0C37BD4690BD00BF9C1D001088200010A01D0010D821001020
S38500023E008C20001080B582B000AF1C201EF0B4FD0346002B1ED01C201EF09CFD20F05AF803460421184614F04FF820F05FF803460521184614F048F820F064F803460621184614F041F820F069F803460721184614F03AF820F008F90346184622F040F9FFF7F6FE1DF036FD9B201EF085FD0346002B25D09B201EF06DFD1FF0FBFF0346E4
S38500023E80002B08D01FF0F6FF0346013BDBB20021184608F03FFE20F005F80346002B09D0214B1B78002B05D11FF0FCFF03461846ECF7E6FA1FF0F6FF03461A461A4B1A70DE201EF059FD0346002B28D0DE201EF041FD20F059F90346002B08D020F054F90346013BDBB20121184608F013FE20F057F90346FB71FB79002B10D020F050F9D8
S38500023F0003461B0A9BB2DBB203F00F03BB71FB79013BDBB2BA791146184608F0C9FF00BF0837BD4680BD00BFA21D001080B500AF1A201EF021FD0346002B09D01A201EF009FD1FF04DF903460221184613F0BCFF00BF80BD80B500AF1B201EF00DFD0346002B09D01B201EF0F5FC1EF0D7FE03460321184613F0A8FF00BF80BD80B500AF5B
S38500023F809C201EF0F9FC0346002B25D09C201EF0E1FC1FF067FA0346002B08D01FF062FA0346013BDBB20021184608F0B3FD1FF065FA0346002B09D0144B1B78002B05D11FF05CFA03461846ECF75AFA1FF056FA03461A460D4B1A70DF201EF0CDFC0346002B10D0DF201EF0B5FC1FF09DFA0346002B08D01FF098FA0346013BDBB2012100
S38500024000184608F087FD00BF80BD00BFA31D001080B500AF9D201EF0AFFC0346002B25D09D201EF097FC1EF0BBFF0346002B08D01EF0B6FF0346013BDBB20021184608F069FD1EF0B9FF0346002B09D0144B1B78002B05D11EF0B0FF03461846ECF710FA1EF0AAFF03461A460D4B1A70E0201EF083FC0346002B10D0E0201EF06BFC1EF0EF
S38500024080B3FF0346002B08D01EF0AEFF0346013BDBB20121184608F03DFD00BF80BD00BFA41D001080B400AF00BFBD465DF8047B704780B500AFFFF7A5FEFFF737FFFFF749FFFFF75BFFFFF7A3FFFFF7EBFF00BF80BDFFFF80B483B000AF0346FB71084B1B78022B02D0064AFB791370054B01221A7000BF0C37BD465DF8047B704700BF93
S38500024100A61D0010A51D001080B483B000AF0346FB71094B1B78022B02D1FB79002B05D0054B00221A70054B00221A7000BF0C37BD465DF8047B7047A61D0010A51D001080B400AF034B1B781846BD465DF8047B704700BFA51D001080B400AF034B1B781846BD465DF8047B704700BFA61D001080B584B000AF0346FB7122F0E5F80346B7
S385000241800321184601F062FC0346FB730EF0D4FA0EF048FA08F024FC0346184602F0D4FDF97BFB790322184601F0C8FE0346002B08D0FFF7C5FF0346002B03D04FF4967010F042F800BF1037BD4680BD80B584B000AF0346FB710EF0AFFA0EF023FA08F0FFFB0346184602F0AFFD02F0A1FC702022F048FB0346FB7308F070FB03461A466C
S38500024200FB7B934225D222F041F903461A46FB7B934209D108F0A2FF0346002B04D022F087F80346002B0FD0002002F041FC08210020F7F705FE08210120F7F701FEFB7B18460DF0FFF804E0012002F031FC02F0F9FF06210020F7F7F3FD00BF1037BD4680BDFFFF80B500AF074B1B78002B06D022F0BEF80346072B01D1012300E0002310
S38500024280DBB2184680BD00BFA91D001080B500AF074B1B78002B06D022F0AAF80346072B01D1012300E00023DBB2184680BD00BFA71D001080B500AF074B1B78002B06D022F096F80346072B01D1012300E00023DBB2184680BD00BFA81D001080B400AF034B93F900301846BD465DF8047B7047AB1D001080B483B000AF0346FB71044AE8
S38500024300FB79137000BF0C37BD465DF8047B7047AB1D001080B500AF074B1B78002B06D022F066F80346072B01D1012300E00023DBB2184680BD00BFAC1D001080B584B000AF0346FB710023FB73FB79002B04D01FF030FE0346FB7303E01FF037FE0346FB73FB7B18461037BD4680BD80B500AF712013F065FE0346002B02D00C4B0022D0
S385000243801A800B4B1B8842F20F7293420BD8084B1B8832339AB2064B1A80064B01221A700EF040F902E0034B00221A7000BF80BD9C010010A91D001080B584B000AFA62022F060FA03461A46642303FB02F3BB600023FB730020F8F78FFC0346032B05D00120F8F789FC0346032B01D1012300E00023FB71FB79002B06D11E4B00221A8088
S385000244001D4B00221A7030E01C4B1B78002B03D11B4B1B78002B01D00123FB73FB7B002B03D1144B00221A800FE0124B1B8842F20F72934203D90F4B01221A8005E00D4B1B8832339AB20B4B1A800A4B1B88002B07D0084B1B881A46BB68934201D9012300E00023DAB2044B1A7000BF1037BD4680BD00BFAE1D0010AC1D0010A71D0010D8
S38500024480A81D001080B582B000AF304B1B78002B2ED029F037F80346042B38DC29F032F8034613F1040F32DB6F2013F0C9FD0346002B09D0702013F0C3FD0346002B03D1234B01221A7022E06F2013F0B9FD0346002B09D1702013F0B3FD0346002B03D01B4BFF221A7012E0194B00221A700EE06F2013F0A5FD0346002B08D1702013F07C
S385000245009FFD0346002B02D1104B01221A7021F0BDFF0346FB7108F0E1F90346013BBB7100237B71FA79BB799A4203D1084BFF221A7006E0FA797B799A4202D1044B01221A7000BF0837BD4680BD00BFAA1D0010AB1D001080B500AF0120FFF7EFFE0346002B03D00A4B01221A7002E0084B00221A700020FFF7E2FE0346002B03D0054B9C
S3850002458001221A7002E0034B00221A7000BF80BDA71D0010A81D001080B582B000AF0346FB7108F01DFA0346184602F0CDFB02F0BFFAFB79002B09D00C4B00221A700C4B00221A700B4B42F211721A80FFF7CEFEFFF7F2FEFFF7BEFFFFF754FFFB79184602F0C6FB00BF0837BD4680BDAA1D0010AB1D00109C01001080B483B000AF7860C9
S385000246000B46FB70FB78012202FA03F3DAB27B68DBB21340DBB218460C37BD465DF8047B704780B584B000AF0023FB730320F7F7D9FF0346002B43D021F07AFE0346002B3ED121F023FF0346BB73BB7B1F2B0ED8202022F0AFF93860BB7B19463868FFF7CBFF0346002B2BD00123FB7328E0BB7B1F2B13D9BB7B3F2B10D8212022F09AF944
S38500024680B860BB7B203BDBB21946B868FFF7B4FF0346002B13D00123FB7310E0222022F089F97860BB7B403BDBB219467868FFF7A3FF0346002B03D00123FB7300E000BFFB7B18461037BD4680BDFFFF80B582B000AF0346FB71FFF7A4FF0346002B19D0FB791846FFF744FD194A92F8283043F0100382F82830164A92F8283043F0040344
S3850002470082F82830124A92F8283043F0080382F8283018E0FB79184602F02AFB0C4A92F828306FF3041382F82830094A92F828306FF3820382F82830054A92F828306FF3C30382F8283000BF0837BD4680BD00BF9020001080B582B000AF0346FB71562022F060F8034603F00103D9B24B4A92F8363061F3000382F83630572022F052F8D2
S38500024780034603F00103D9B2444A92F8363061F3410382F83630582022F044F8034603F00103D9B23D4A92F8363061F3451382F83630592022F036F8034603F00103D9B2364A92F8363061F3861382F836305A2022F028F8034603F00103D9B22F4A92F8363061F3820382F836305B2022F01AF8034603F00103D9B2284A92F8363061F3E2
S38500024800C30382F836305C2022F00CF8034603F00103D9B2214A92F8363061F3041382F836305D2021F0FEFF034603F00103D9B21A4A92F8363061F3C71382F836305E2021F0F0FF034603F00103D9B2134A92F8373061F3410382F837305F2021F0E2FF034603F00103D9B20C4A92F8373061F3000382F83730602021F0D4FF034603F064
S385000248800103D9B2054A92F8373061F3820382F8373000BF0837BD4680BD00BF9020001080B400AF034B1B781846BD465DF8047B704700BFB21D001080B400AF034B00221A7000BFBD465DF8047B7047B21D001080B582B000AF0023FB711FF003FC0346BB71BB79002B04D0BB79022B01D00123FB71FB7918460837BD4680BD80B584B03C
S3850002490000AF0346FB71FB79002B08D0584B00221A70584B00221A70574BFF221A7002F007F91FF0DFFB03461A46524B1A70514B1B78012B02D0042B36D078E00DF0FCFE0DF070FE4D4A137E43F0040313764B4A137E43F008031376484A137E43F0100313766F2021F08EFF03461A46424B1A70002021F057FF0346FB733D4B1A783D4B0B
S385000249801B789A4214BF01230023DBB218463A4B1B78FA7B194601F0D1FA0346002B5DD0374B01221A7059E00DF0C6FE0DF03AFE324A137E43F004031376304A137E43F0080313762D4A137E43F010031376284B1A78284B1B789A4203D1274B1B78FF2B0AD121F0B1FC03460321184601F02EF803461A46204B1A70A62021F013FF0346E6
S38500024A00002B03D04FF4A7700FF01EFC184B1A78184B1B789A4214BF01230023DBB21846154B1B780322194601F088FA17E0124BFF221A70114A137E43F0040313760F4A137E43F0080313760C4A137E43F0100313764FF4A7700FF0F7FB00E000BF054B1A78034B1A7000BF1037BD4680BD00BFB01D0010B11D00109E010010902000101F
S38500024A80B21D001080B582B000AF0346FB71FB79002B01D00DF050FE0DF0C4FD412021F0C1FE034603F00103D9B2064A137C61F300031374FB79184602F05AF900BF0837BD4680BD9020001080B582B000AF1EF06BFF0346FB711EF0C7FF0346BB7121F0D5FC03467B713C4B00221A703B4B00221A700021472013F0B7FA00215B2013F0DA
S38500024B00B3FAFB795B09DBB203F00103002B07D00121472013F0A8FA2F4B01221A7014E0FB799B09DBB203F00103002B0DD02C4A92F83B306FF3000382F83B300121482013F092FA254B01221A70BB795B09DBB203F00103002B07D001215B2013F084FA1D4B01221A7014E0BB799B09DBB203F00103002B0DD01A4A92F83B306FF30003E3
S38500024B8082F83B3001215C2013F06EFA134B01221A70114B1B78002B0DD0EDF7B5F80346002B08D1F7F798FC0346002B10D00D4B01221A700CE0094B1B78002B08D0EDF7A3F80346002B03D1074B01221A70FFE700BF0837BD4680BDB51D0010B61D001090200010B31D0010B41D001080B58CB000AF1EF085FE0346FB771EF08DFE0346B0
S38500024C00BB771EF095FE03467B771EF09DFE03463B771EF0A5FE0346FB761EF0ADFE0346BB761EF0B5FE03467B761EF0BDFE03463B761EF0C5FE0346FB751EF0CDFE0346BB751EF0D5FE03467B751EF0DDFE03463B751EF0E5FE0346FB741EF0EDFE0346BB741EF0F5FE03467B741EF0FDFE03463B74FB7F002B27D0002387F82F301FE056
S38500024C80FA7F97F82F3003F0070342FA03F3DBB203F00103FB73FB7B002B0CD0D04A92F83A306FF3820382F83A3097F82F300021184607F02FFF97F82F30013387F82F3097F82F30072BDBD9BB7F002B27D0082387F82E301FE0BA7F97F82E3003F0070342FA03F3DBB203F00103BB73BB7B002B0CD0BB4A92F83A306FF3820382F83A30FD
S38500024D0097F82E300021184607F004FF97F82E30013387F82E3097F82E300F2BDBD97B7F002B27D0102387F82D301FE07A7F97F82D3003F0070342FA03F3DBB203F001037B737B7B002B0CD0A54A92F83A306FF3820382F83A3097F82D300021184607F0D9FE97F82D30013387F82D3097F82D30172BDBD93B7F002B27D0182387F82C3088
S38500024D801FE03A7F97F82C3003F0070342FA03F3DBB203F001033B733B7B002B0CD0904A92F83A306FF3820382F83A3097F82C300021184607F0AEFE97F82C30013387F82C3097F82C301F2BDBD9FB7E002B27D0202387F82B301FE0FA7E97F82B3003F0070342FA03F3DBB203F00103FB72FB7A002B0CD07A4A92F83A306FF3820382F893
S38500024E003A3097F82B300021184607F083FE97F82B30013387F82B3097F82B30272BDBD9BB7E002B27D0282387F82A301FE0BA7E97F82A3003F0070342FA03F3DBB203F00103BB72BB7A002B0CD0654A92F83A306FF3820382F83A3097F82A300021184607F058FE97F82A30013387F82A3097F82A302F2BDBD97B7E002B27D0302387F83F
S38500024E8029301FE07A7E97F8293003F0070342FA03F3DBB203F001037B727B7A002B0CD04F4A92F83A306FF3820382F83A3097F829300021184607F02DFE97F82930013387F8293097F82930372BDBD93B7E03F01F03002B27D0382387F828301FE03A7E97F8283003F0070342FA03F3DBB203F001033B723B7A002B0CD0394A92F83A30B0
S38500024F006FF3820382F83A3097F828300021184607F000FE97F82830013387F8283097F828303C2BDBD9FB7D002B27D0002387F827301FE0FA7D97F8273003F0070342FA03F3DBB203F00103FB71FB79002B0CD0234A92F83A306FF3C30382F83A3097F827300121184607F0D5FD97F82730013387F8273097F82730072BDBD9BB7D002BCB
S38500024F8027D0082387F826301FE0BA7D97F8263003F0070342FA03F3DBB203F00103BB71BB79002B0CD00E4A92F83A306FF3C30382F83A3097F826300121184607F0AAFD97F82630013387F8263097F826300F2BDBD97B7D002B29D0102387F8253021E0902000107A7D97F8253003F0070342FA03F3DBB203F001037B717B79002B0CD008
S38500025000794A92F83A306FF3C30382F83A3097F825300121184607F07DFD97F82530013387F8253097F82530172BDBD93B7D002B27D0182387F824301FE03A7D97F8243003F0070342FA03F3DBB203F001033B713B79002B0CD0644A92F83A306FF3C30382F83A3097F824300121184607F052FD97F82430013387F8243097F824301F2BC1
S38500025080DBD9FB7C002B27D0202387F823301FE0FA7C97F8233003F0070342FA03F3DBB203F00103FB70FB78002B0CD04E4A92F83A306FF3C30382F83A3097F823300121184607F027FD97F82330013387F8233097F82330272BDBD9BB7C002B27D0282387F822301FE0BA7C97F8223003F0070342FA03F3DBB203F00103BB70BB78002BAB
S385000251000CD0394A92F83A306FF3C30382F83A3097F822300121184607F0FCFC97F82230013387F8223097F822302F2BDBD97B7C002B27D0302387F821301FE07A7C97F8213003F0070342FA03F3DBB203F001037B707B78002B0CD0234A92F83A306FF3C30382F83A3097F821300121184607F0D1FC97F82130013387F8213097F82130A5
S38500025180372BDBD93B7C03F01F03002B27D0382387F820301FE03A7C97F8203003F0070342FA03F3DBB203F001033B703B78002B0CD00D4A92F83A306FF3C30382F83A3097F820300121184607F0A4FC97F82030013387F8203097F820303C2BDBD900BF3037BD4680BD00BF9020001080B582B000AF0023FB711EF0D7FB034623F07F035C
S38500025200BB711EF031FC034623F07F037B71BB79002B02D17B79002B05D00121A32012F023FF0123FB71FB7918460837BD4680BD80B483B000AF0023FB710023BB7120E0154B1A68BB7913441B7803F00203DBB2002B13D0104B1A68BB7913441B78C3F34003DBB21A46BB7903F0070302FA03F35AB297F9073013435BB2FB71BB79013350
S38500025280BB71BB79072BDBD9FB7918460C37BD465DF8047B704700BF2C20001080B483B000AF0023FB710823BB7120E0154B1A68BB7913441B7803F00203DBB2002B13D0104B1A68BB7913441B78C3F34003DBB21A46BB7903F0070302FA03F35AB297F9073013435BB2FB71BB790133BB71BB790F2BDBD9FB7918460C37BD465DF8047BCB
S38500025300704700BF2C20001080B483B000AF0023FB711023BB7120E0154B1A68BB7913441B7803F00203DBB2002B13D0104B1A68BB7913441B78C3F34003DBB21A46BB7903F0070302FA03F35AB297F9073013435BB2FB71BB790133BB71BB79172BDBD9FB7918460C37BD465DF8047B704700BF2C20001080B483B000AF0023FB711823BA
S38500025380BB7120E0154B1A68BB7913441B7803F00203DBB2002B13D0104B1A68BB7913441B78C3F34003DBB21A46BB7903F0070302FA03F35AB297F9073013435BB2FB71BB790133BB71BB791F2BDBD9FB7918460C37BD465DF8047B704700BF2C20001080B483B000AF0023FB712023BB7120E0154B1A68BB7913441B7803F00203DBB223
S38500025400002B13D0104B1A68BB7913441B78C3F34003DBB21A46BB7903F0070302FA03F35AB297F9073013435BB2FB71BB790133BB71BB79272BDBD9FB7918460C37BD465DF8047B704700BF2C20001080B483B000AF0023FB712823BB7120E0154B1A68BB7913441B7803F00203DBB2002B13D0104B1A68BB7913441B78C3F34003DBB2B4
S385000254801A46BB7903F0070302FA03F35AB297F9073013435BB2FB71BB790133BB71BB792F2BDBD9FB7918460C37BD465DF8047B704700BF2C20001080B483B000AF0023FB713023BB7120E0154B1A68BB7913441B7803F00203DBB2002B13D0104B1A68BB7913441B78C3F34003DBB21A46BB7903F0070302FA03F35AB297F90730134307
S385000255005BB2FB71BB790133BB71BB79372BDBD9FB7918460C37BD465DF8047B704700BF2C20001080B483B000AF0023FB713823BB7120E0154B1A68BB7913441B7803F00203DBB2002B13D0104B1A68BB7913441B78C3F34003DBB21A46BB7903F0070302FA03F35AB297F9073013435BB2FB71BB790133BB71BB793C2BDBD9FB791846F4
S385000255800C37BD465DF8047B704700BF2C20001080B483B000AF0023FB710023BB7120E0154B1A68BB7913441B7803F00203DBB2002B13D0104B1A68BB7913441B78C3F34003DBB21A46BB7903F0070302FA03F35AB297F9073013435BB2FB71BB790133BB71BB79072BDBD9FB7918460C37BD465DF8047B704700BF3020001080B483B0B3
S3850002560000AF0023FB710823BB7120E0154B1A68BB7913441B7803F00203DBB2002B13D0104B1A68BB7913441B78C3F34003DBB21A46BB7903F0070302FA03F35AB297F9073013435BB2FB71BB790133BB71BB790F2BDBD9FB7918460C37BD465DF8047B704700BF3020001080B483B000AF0023FB711023BB7120E0154B1A68BB7913446B
S385000256801B7803F00203DBB2002B13D0104B1A68BB7913441B78C3F34003DBB21A46BB7903F0070302FA03F35AB297F9073013435BB2FB71BB790133BB71BB79172BDBD9FB7918460C37BD465DF8047B704700BF3020001080B483B000AF0023FB711823BB7120E0154B1A68BB7913441B7803F00203DBB2002B13D0104B1A68BB7913444F
S385000257001B78C3F34003DBB21A46BB7903F0070302FA03F35AB297F9073013435BB2FB71BB790133BB71BB791F2BDBD9FB7918460C37BD465DF8047B704700BF3020001080B483B000AF0023FB712023BB7120E0154B1A68BB7913441B7803F00203DBB2002B13D0104B1A68BB7913441B78C3F34003DBB21A46BB7903F0070302FA03F3B0
S385000257805AB297F9073013435BB2FB71BB790133BB71BB79272BDBD9FB7918460C37BD465DF8047B704700BF3020001080B483B000AF0023FB712823BB7120E0154B1A68BB7913441B7803F00203DBB2002B13D0104B1A68BB7913441B78C3F34003DBB21A46BB7903F0070302FA03F35AB297F9073013435BB2FB71BB790133BB71BB7952
S385000258002F2BDBD9FB7918460C37BD465DF8047B704700BF3020001080B483B000AF0023FB713023BB7120E0154B1A68BB7913441B7803F00203DBB2002B13D0104B1A68BB7913441B78C3F34003DBB21A46BB7903F0070302FA03F35AB297F9073013435BB2FB71BB790133BB71BB79372BDBD9FB7918460C37BD465DF8047B704700BFB3
S385000258803020001080B483B000AF0023FB713823BB7120E0154B1A68BB7913441B7803F00203DBB2002B13D0104B1A68BB7913441B78C3F34003DBB21A46BB7903F0070302FA03F35AB297F9073013435BB2FB71BB790133BB71BB793C2BDBD9FB7918460C37BD465DF8047B704700BF3020001080B582B000AF0346FB71FB79002B05D0F7
S385000259000CF01AFF0CF08EFE0BF026FE364A92F83A3043F0040382F83A30334A92F83A3043F0080382F83A302F4A92F83B3043F0010382F83B30FFF759F9FFF7C5F82B4B1B78002B1AD00020F7F7B8FD0346002B05D00120F7F7B2FD0346002B07D1012020F0C8FDFB79184601F002FA38E01F4B00221A701E4B00221A7031E01C4B1B7882
S38500025980002B03D0012020F0B5FD29E0ECF7BCF90346002B24D1164B1B78002B20D1134B1B78002B1CD1134B1B8832339AB2114B1A80114B1B78002B07D0FB79184601F0D7F90C4B00221A800AE00A4B1B88962B06D9FB79184601F0CBF9064B00221A8000BF0837BD4680BD90200010B41D0010B31D0010B81D0010B51D001080B400AFDD
S38500025A00084B00221A70084B00221A70074B00221A80074B00221A8000BFBD465DF8047B704700BFBA1D0010BB1D0010BC1D0010BE1D001080B400AF034B1B781846BD465DF8047B704700BFBA1D001080B58AB000AF03460A46FB711346BB71FF2387F8273027F043FD786120F010FD0346FB7406F034FF03461A46FB7C934280F0B28199
S38500025A8097F90730012B4BD1EBF7A2FC0346FB74FB7C87F826303AE0A44B1A6897F826309B0013441B68C3F317031A467B69934228D8BB79002B02D0BB79032B0BD19B4B1A6897F826309B001344DB7803F00103DBB2002B11D1BB79012B02D0BB79032B10D1924B1A6897F826309B001344DB7803F00203DBB2002B04D097F8263087F8C5
S38500025B0027306FE197F82630013387F8263006F0E5FE03461A4697F826309342BCD361E197F90730B3F1FF3F52D1EBF751FC0346FB74FB7C013387F8253044E07B4B1A6897F8253003F18043013B9B0013441B68C3F317031A467B6993422FD3BB79002B02D0BB79032B0ED1704B1A6897F8253003F18043013B9B001344DB7803F00103E4
S38500025B80DBB2002B14D1BB79012B02D0BB79032B14D1664B1A6897F8253003F18043013B9B001344DB7803F00203DBB2002B05D097F82530013B87F8273013E197F82530013B87F8253097F82530002BB6D109E14FF0FF333B624FF0FF33FB61FF23FB76FF23BB76FB7C7B763FE0504B1A687B7E9B0013441B68C3F317031A467B69934299
S38500025C0030D8BB79002B02D0BB79032B0AD1474B1A687B7E9B001344DB7803F00103DBB2002B10D1BB79012B02D0BB79032B19D13E4B1A687B7E9B001344DB7803F00203DBB2002B0ED07B7EFB76384B1A687B7E9B0013441B68C3F317031A467B69D31A3B6209E07B7E01337B7606F037FE03461A467B7E9342B8D3FB7C01333B764CE038
S38500025C802A4B1A683B7E03F18043013B9B0013441B68C3F317031A467B6993423AD3BB79002B02D0BB79032B0DD1204B1A683B7E03F18043013B9B001344DB7803F00103DBB2002B13D1BB79012B02D0BB79032B20D1164B1A683B7E03F18043013B9B001344DB7803F00203DBB2002B12D03B7E013BBB760D4B1A683B7E03F18043013B15
S38500025D009B0013441B68C3F317031A467B699B1AFB6105E03B7E013B3B763B7E002BAFD13A6AFB699A4203D2FB7E02E068270010BB7E87F827302E4B1A68FB7C9B0013441B68C3F3170307EE903AF8EEE77A9FED297A77EE877AFCEEE77A17EE903AFB60234B1A68FB7C9B0013441B68C3F3170307EE903AF8EEE77A9FED1E7A77EEC77A8D
S38500025D80FCEEE77A17EE903ABB607A69BB689A4228D97A69FB689A4224D2BB79002B02D0BB79032B0AD1124B1A68FB7C9B001344DB7803F00103DBB2002B10D1BB79012B02D0BB79032B0DD1094B1A68FB7C9B001344DB7803F00203DBB2002B02D0FB7C87F8273097F8273018462837BD4680BD682700103333CB4280B582B000AF0346AB
S38500025E000A46FB711346BB80FB791846F6F774FF0346012B0ED0FB791846F6F7B7FB0346062B02D1BB883B2B04D9FB790A211846F6F706F800BF0837BD4680BD80B582B000AF03460A46FB711346BB7106F046FD03461A46FB7993420ED3364B1B78C72B06D8344B1B780133DAB2324B1A705DE0552008F04AFB59E0BB79022B0ED92D4B8A
S38500025E801B78C72B06D82B4B1B780133DAB2294B1A704BE0542008F038FB47E0BB79002B0AD1254B1A68FB799B001344DB7803F00103DBB2002B26D0BB79012B0AD11E4B1A68FB799B001344DB7803F00203DBB2002B18D0BB79022B24D1174B1A68FB799B001344DB7803F00103DBB2002B19D1114B1A68FB799B001344DB7803F0020363
S38500025F00DBB2002B0ED10B4B1B78C72B06D8094B1B780133DAB2074B1A7007E0562008F0F4FA03E0034B00221A70FFE700BF0837BD4680BDC01D00106827001090B587B000AF0346FB710B46BB7113467B710023FB75F6F73BFB03463B7420F025FA0346032B18D120F044FA03460C2B04D0FEF797FC0346002B0ED040F26E3020F0B2FC8D
S38500025F800346BB82BB8A092B01D80A23BB82BB8A184600F0D9FE7B79032B13D1BB79184606F0DAFE0346002B02D000237B7129E0BB79184606F0F9FE0346002B22D001237B711FE07B79022B1CD1BB79184606F0C3FE0346FB73BB79184606F0E6FE0346BB73FB7B002B05D0BB7B002B02D100237B7107E0FB7B002B04D1BB7B002B01D0FC
S3850002600001237B71FB79002B01D0FFF7F7FC4FF4517101200EF0EAFB0346002B00F09F8020F086F90346002B40F092800320F6F7D9FA0346002B00F08B80012000F038FD0023FB7464E020F021FA03461A46BB7993425AD10FF09CFA0346002B02D001F0F1F852E07A79FB7C9A421FD1FB7C1846F6F742FE0346032B0DD0FB7C184606F02A
S385000260806FFC0346022B11D1FB7C1846F6F734FE0346012B0AD10123FB75BD4B03221A707B7902211846F5F7CBFE2EE07B79022B2BD10020F6F720FE0346032B05D10120F6F71AFE0346032B12D0FB7C184606F047FC0346022B18D10020F6F70DFE0346012B12D10120F6F707FE0346012B0CD10123FB75A64B03221A7002210020F5F755
S385000261009FFE02210120F5F79BFEFB7C0133FB74FA7C3B7C9A4296D3FB7D002B13D10FF037FA0346002B0ED19A4B1B88C72B03D90320F6F7DFFE0AE0964B1B8801339AB2944B1A8003E0934B00221A80BCE1BBE1002000F0ADFC8F4B00221A80B4E18D4B00221A808C4B1B8801339AB28A4B1A80874B1B78012B00F03881012BC0F29181B0
S38500026180032B00F38E810023BB7400237B7422E120F07CF903461A46BB79934240F0D3800FF0F6F90346002B35D00320F6F71AFA03467B7306F0D2FF03463B737B7B002B13D00123BB74012000F072FC01F03AF83B7B002B00F0FC800123FB756C4B03221A706D4B00221A80F2E03B7B002B06D060200EF029F8002000F05AFCE8E000209C
S3850002620000F056FC01F01EF820F040F9034618460BF018F9DCE006F0A1FF0346BB747A797B7C9A4214D17B7C1846F6F765FD0346032B0DD10123FB75554B03221A707B7902211846F5F7FCFD534B00221A80BFE07B79022B1CD10020F6F74EFD0346032B16D10120F6F748FD0346032B10D10123FB75474B03221A7002210020F5F7E0FDDD
S3850002628002210120F5F7DCFD434B00221A809FE07A797B7C9A4202D07B79022B4BD17B7C1846F6F79FF90346002B20D006F056FF0346002B1BD007F0D5FE0346002B10D020F036F80346002B0BD120F0DFF803461C4620F0E7F803469C4202D1012000F0E7FB7B7C02211846F5F7AAFD22E07B7C1846F6F777F90346002B08D106F02EFFBE
S385000263000346002B03D060200DF09EFF12E07B7C1846F6F767F90346002B04D006F01EFF0346002B53D120F0B1F8034618460BF089F84CE04BE0184B1A887B7C11461846FFF75AFD44E0F5F7A7FE0346002B0DD0002000F0ADFBBB7918460BF073F80C4B01221A700D4B00221A7039E0084B02221A700FF00DF90346002B11D00123BB7477
S38500026380BB7C184600F094FB00F05CFF20E000BFBA1D0010BE1D0010BC1D0010BB1D00107B7C1846F6F754FA0346002B07D00123BB747B7C01211846F5F742FD08E0454B1A887B7C11461846FFF716FD00E000BF7B7C01337B747A7C3B7C9A42FFF4D8AEBB7C184600F064FB68E0002000F060FB1FF09EFF0346002B44D01FF0A5FF0346B3
S38500026400B3F1FF3F06D120F041F803461A46BB7993420BD91FF098FF0346012B0BD120F035F803461A46BB79934204D3BB7918460BF008F822E01FF087FF0346002B18D01FF0D6FF03461A46234B13F81230C3F34013DBB2002B0CD0002020F04BF8962020F0E0F90346002B08D0492008F04DF804E00BF071F8012020F03CF8174B6522C0
S385000264801A701BE0154B1B78642B03D9144B02221A7013E0114B1B780133DAB20F4B1A700CE01FF045FF0346002B03D00C4B01221A7002E00A4B02221A7000BF7A79BB7911461846FFF7BAFCFB7D18461C37BD4690BD00BFBC1D001090200010BB1D0010BA1D001080B582B000AF0023FB71A12020F0C8F903469BB21A46920013449B0007
S385000265009AB2144B1A80134B1B88C72B02D8114BC8221A801DF072FD0346002B05D16A2011F08EFD0346002B02D00123FB710BE0094B1B78002B07D1084B1A88054B1B889A4201D20123FB71FB7918460837BD4680BD00BFC61D0010C21D0010A001001080B400AF034B1B781846BD465DF8047B704700BFC11D001080B500AF0BF0F4FAA6
S385000265800346FF2B11D10B4B1B88C72B06D90A4B02221A70094B00221A8009E0054B1B8801339AB2034B1A8002E0024B00221A8000BF80BDC41D0010C11D0010A001001080B582B000AF0BF0CFFA0346FB711FF0AFFE0346002B07D1FB79FF2B04D1F5F743FF0346002B03D00B4B00221A800BE0094B1A88094B1B889A4205D2064B1B8896
S3850002660001339AB2044B1A80054B00221A8000BF0837BD4680BD00BFA0010010C61D0010C41D001080B582B000AF0346FB7106F0D7F90346184600F087FB00F079FAFB79002B09D0144B00221A80144B4FF6FF721A80134B01221A706A2011F0F1FC03461A46104B1A700E4B1B78012B02D0022B03D005E0FFF780FF06E0FFF7A1FF03E008
S38500026680074B01221A7000BF002000F071FB00BF0837BD4680BD00BFC41D0010A0010010C11D0010C21D001080B400AF034B1B781846BD465DF8047B704700BFC91D001080B400AF034B1B781846BD465DF8047B704700BFCA1D001080B582B000AF0023FB71332020F0CEF803469BB21A46120113449AB20C4B1A800C4B1B78002B01D0C0
S385000267000123FB710A4B1B78002B01D00023FB711DF074FC0346002B01D00123FB71FB7918460837BD4680BDD21D0010CD1D0010CC1D001080B400AF034B1B781846BD465DF8047B704700BFC81D001080B500AF434B1B78002B51D00BF006FA0346FF2B2CD1404B1B78002B08D03F4B01221A703E4B00221A703E4B01221A703D4B1A886C
S385000267803D4B1B889A4209D3374B01221A70374B00221A70364B01221A705EE0354B1B8801339AB2334B1A80304B01221A70334B01221A70324B00221A704EE02D4B1A882D4B1B889A4209D3284B01221A70284B01221A70234B01221A703EE0254B1B8801339AB2234B1A80244B01221A70244B00221A701D4B01221A702EE00BF0B4F97D
S385000268000346FF2B1DD11B4B1B88092B09D91D4B02221A701C4B00221A80144B01221A701BE0144B1B8801339AB2124B1A80134B01221A70124B00221A700C4B01221A700BE00E4B01221A700D4B00221A70094B00221A80054B01221A7000BF80BD00BFCB1D0010CF1D0010CC1D0010CD1D0010CE1D0010D01D0010D21D0010CA1D00102D
S38500026880C91D0010C81D0010A201001080B582B000AF0BF069F90346FB713B4B1B78002B6AD1FB79FF2B1DD0384B00221A80384B02221A70374B01221A70374B00221A70364B01221A70364A92F83C3043F0040382F83C30324A92F83C3043F0080382F83C304CE0294B1B8801339AB2274B1A80274B02221A70274B01221A70264B0022F8
S385000269001A70264B01221A70254A92F83C3043F0040382F83C30224A92F83C3043F0080382F83C30194B1B88142B28D9F5F79CFD0346002B23D0164B01221A70194B00221A80114B01221A70124B01221A70124B01221A70114B00221A70114A92F83C306FF3820382F83C300D4A92F83C306FF3C30382F83C3002E0054B01221A7000BFBF
S385000269800837BD4680BD00BFCB1D0010A2010010C81D0010CD1D0010CA1D0010C91D001090200010D01D001080B582B000AF0346FB71FB79002B23D02D4B00221A702D4B00221A702C4B00221A802C4B4FF6FF721A802B4B01221A702A4B00221A702A4A92F83C306FF3820382F83C30264A92F83C306FF3C30382F83C30244B00221A7064
S38500026A0005F0EEFF0346184600F09EF900F090F81B4B1B78012B02D0022B03D005E0FFF795FE06E0FFF732FF03E0154B01221A7000BF144B1B78002B13D0134A92F83C3043F0040382F83C300F4A92F83C3043F0080382F83C300E4B00221A700D4B00221A70002000F084F900BF0837BD4680BDCB1D0010CC1D0010D01D0010A20100100A
S38500026A80C81D0010CE1D001090200010CF1D0010CA1D0010C91D001080B400AF034B1B781846BD465DF8047B704700BFD41D001080B483B000AF0346FB71044AFB79137000BF0C37BD465DF8047B7047D41D001080B584B000AF0346FB710023FB730EF057FD0346002B07D019201FF09BFE0346002B01D0012300E00023BB73BB7B002B0D
S38500026B000FD0FB79094AD35C002B08D0FB791846F5F79EFE0346002B01D1012300E00023FB73FB7B18461037BD4680BDE01D001090B585B000AF0023FB606FF07F43BB601FF0A4FC0346FB71314B9B7B002B03D1304B1B78002B32D01FF04AFC0346172B2DD005F0BBFE03461A46FB7993421FD2294B1A68FB799B0013441B68C3F3170368
S38500026B80652B09D9244B1A68FB799B0013441B68C3F31703663B00E00023BB601E4B1A68FB799B0013441B68C3F317036633FB60B8681FF0FFFCF8681FF0ECFC24E0164B1B681B68C3F31703322B06D9124B1B681B68C3F31703333B00E00023BB600E4B1C6805F07BFE034603F18043013B9B0023441B68C3F317033333FB60B8681FF097
S38500026C00D9FCF8681FF0C6FC00BF1437BD4690BDD8210010D41D00106827001090B585B000AF0023FB606FF07F43BB601FF02EFC0346BB71A5201FF025FE0346013BFB71FB79002B06D005F049FE03461A46FB79934201D90123FB71384B9B7B002B03D1374B1B78002B32D01FF0C2FB0346172B2DD005F033FE03461A46BB7993421FD286
S38500026C80304B1A68FB799B0013441B68C3F31703652B09D92B4B1A68FB799B0013441B68C3F31703663B00E00023BB60254B1A68BB799B0013441B68C3F317036633FB60B8681FF077FCF8681FF064FC32E01D4B1A68FB799B0013441B68C3F31703322B09D9184B1A68FB799B0013441B68C3F31703333B00E00023BB60124B1C6805F030
S38500026D00EDFD034603F18043013B9B0023441B68C3F317033333FB600A4B1A68FB799B0013441B68C3F3170318461FF043FCF8681FF030FC00BF1437BD4690BDD8210010D41D00106827001080B582B000AF0346FB8005F045FE03461A46FB88934203D8FB8818461FF036FC00BF0837BD4680BD80B584B000AF0346FB711FF015FB034672
S38500026D80032B19D11FF034FB03460C2B04D0FDF787FD0346002B0FD040F26E301FF0A2FD0346FB81FB89092B01D80A23FB81FB891846FFF7C9FF05E005F012FE03461846FFF7C2FF514B00221A70FB79002B0FD04F4B00221A704F4B00221A700EF0D8FB0346002B01D1F5F7FBF84B4B00221A70494B1B78002B05D0474B1B78013BDAB213
S38500026E00454B1A70454B9B7B002B09D000201FF071FB3F4B1B78022B02D13D4B04221A703F4B1B78002B0DD0FEF7E0F90346002B05D1A32011F004F90346002B02D0344B01221A70324B1B78013B032B22D801A252F823F0656E0200716E0200896E02007D6E020000F0AAFC2A4B01221A7017E000F0D8FD274B02221A7011E000F07AFEE9
S38500026E80244B04221A700BE001F018F8214B03221A7005E000F05CFC1E4B00221A7000BF09F004FE00F05EF8194B1B78184605F0CFFE40F2CF101FF0B5FC0346002B21D01FF07EFA0346052B1CD1EAF7F3FE0346002B17D10020F5F70FFF0346012B03D0822007F012FB0DE005F01AFD0346002B08D00120F5F700FF0346012B02D0822078
S38500026F0007F003FB00BF1037BD4680BDDD1D0010DB1D0010DC1D0010E21D0010D8210010B31D001080B400AF034B1B781846BD465DF8047B704700BFDB1D001080B500AF074B1B78002B06D01FF052FA0346022B01D1012300E00023DBB2184680BD00BFD51D001080B582B000AF07F06FF80346FB711FF0DDF90346002B12D11FF086FAD3
S38500026F8003461A46FB7993420BD1094B1B78032B03D0074B1B78012B03D1064B01221A7002E0044B00221A7000BF0837BD4680BDDB1D0010D51D001080B582B000AF0023FB711FF063FA0346BB710020F5F740FC0346002B15D005F081FC03461A46BB7993420ED2174B1A68BB799B001344DB7803F00103DBB2002B03D0FB7943F0010316
S38500027000FB710120F5F724FC0346002B15D005F065FC03461A46BB7993420ED2094B1A68BB799B001344DB7803F00203DBB2002B03D0FB7943F01003FB71FB7918460837BD4680BD6827001080B584B000AF0346FB710023FB730EF09BFA0346002B07D019201FF0DFFB0346002B01D0012300E00023BB7305F054FC0346002B0BD1FB7945
